{
  "_format": "hh-sol-artifact-1",
  "contractName": "SpaceToken",
  "sourceName": "contracts/ERC721/SpaceToken.sol",
  "abi": [
    {
      "inputs": [
        {
          "internalType": "string",
          "name": "baseURI",
          "type": "string"
        }
      ],
      "stateMutability": "nonpayable",
      "type": "constructor"
    },
    {
      "anonymous": false,
      "inputs": [
        {
          "indexed": true,
          "internalType": "address",
          "name": "owner",
          "type": "address"
        },
        {
          "indexed": true,
          "internalType": "address",
          "name": "approved",
          "type": "address"
        },
        {
          "indexed": true,
          "internalType": "uint256",
          "name": "tokenId",
          "type": "uint256"
        }
      ],
      "name": "Approval",
      "type": "event"
    },
    {
      "anonymous": false,
      "inputs": [
        {
          "indexed": true,
          "internalType": "address",
          "name": "owner",
          "type": "address"
        },
        {
          "indexed": true,
          "internalType": "address",
          "name": "operator",
          "type": "address"
        },
        {
          "indexed": false,
          "internalType": "bool",
          "name": "approved",
          "type": "bool"
        }
      ],
      "name": "ApprovalForAll",
      "type": "event"
    },
    {
      "anonymous": false,
      "inputs": [
        {
          "indexed": true,
          "internalType": "address",
          "name": "previousOwner",
          "type": "address"
        },
        {
          "indexed": true,
          "internalType": "address",
          "name": "newOwner",
          "type": "address"
        }
      ],
      "name": "OwnershipTransferred",
      "type": "event"
    },
    {
      "anonymous": false,
      "inputs": [
        {
          "indexed": true,
          "internalType": "address",
          "name": "from",
          "type": "address"
        },
        {
          "indexed": true,
          "internalType": "address",
          "name": "to",
          "type": "address"
        },
        {
          "indexed": true,
          "internalType": "uint256",
          "name": "tokenId",
          "type": "uint256"
        }
      ],
      "name": "Transfer",
      "type": "event"
    },
    {
      "inputs": [
        {
          "internalType": "address",
          "name": "to",
          "type": "address"
        },
        {
          "internalType": "uint256",
          "name": "tokenId",
          "type": "uint256"
        }
      ],
      "name": "approve",
      "outputs": [],
      "stateMutability": "nonpayable",
      "type": "function"
    },
    {
      "inputs": [
        {
          "internalType": "address",
          "name": "owner",
          "type": "address"
        }
      ],
      "name": "balanceOf",
      "outputs": [
        {
          "internalType": "uint256",
          "name": "",
          "type": "uint256"
        }
      ],
      "stateMutability": "view",
      "type": "function"
    },
    {
      "inputs": [
        {
          "internalType": "uint256",
          "name": "tokenId",
          "type": "uint256"
        }
      ],
      "name": "burn",
      "outputs": [],
      "stateMutability": "nonpayable",
      "type": "function"
    },
    {
      "inputs": [
        {
          "internalType": "uint256",
          "name": "tokenId",
          "type": "uint256"
        }
      ],
      "name": "getApproved",
      "outputs": [
        {
          "internalType": "address",
          "name": "",
          "type": "address"
        }
      ],
      "stateMutability": "view",
      "type": "function"
    },
    {
      "inputs": [
        {
          "internalType": "uint256",
          "name": "tokenId",
          "type": "uint256"
        }
      ],
      "name": "getHolderSecretURI",
      "outputs": [
        {
          "internalType": "string",
          "name": "",
          "type": "string"
        }
      ],
      "stateMutability": "view",
      "type": "function"
    },
    {
      "inputs": [
        {
          "internalType": "address",
          "name": "owner",
          "type": "address"
        },
        {
          "internalType": "address",
          "name": "operator",
          "type": "address"
        }
      ],
      "name": "isApprovedForAll",
      "outputs": [
        {
          "internalType": "bool",
          "name": "",
          "type": "bool"
        }
      ],
      "stateMutability": "view",
      "type": "function"
    },
    {
      "inputs": [
        {
          "internalType": "address",
          "name": "_to",
          "type": "address"
        },
        {
          "internalType": "string",
          "name": "_tokenSecretURI",
          "type": "string"
        }
      ],
      "name": "mint721Token",
      "outputs": [],
      "stateMutability": "nonpayable",
      "type": "function"
    },
    {
      "inputs": [
        {
          "internalType": "uint8",
          "name": "_number",
          "type": "uint8"
        }
      ],
      "name": "mintBatch721Token",
      "outputs": [],
      "stateMutability": "nonpayable",
      "type": "function"
    },
    {
      "inputs": [],
      "name": "name",
      "outputs": [
        {
          "internalType": "string",
          "name": "",
          "type": "string"
        }
      ],
      "stateMutability": "view",
      "type": "function"
    },
    {
      "inputs": [],
      "name": "owner",
      "outputs": [
        {
          "internalType": "address",
          "name": "",
          "type": "address"
        }
      ],
      "stateMutability": "view",
      "type": "function"
    },
    {
      "inputs": [
        {
          "internalType": "uint256",
          "name": "tokenId",
          "type": "uint256"
        }
      ],
      "name": "ownerOf",
      "outputs": [
        {
          "internalType": "address",
          "name": "",
          "type": "address"
        }
      ],
      "stateMutability": "view",
      "type": "function"
    },
    {
      "inputs": [
        {
          "internalType": "address",
          "name": "from",
          "type": "address"
        },
        {
          "internalType": "address",
          "name": "to",
          "type": "address"
        },
        {
          "internalType": "uint256",
          "name": "tokenId",
          "type": "uint256"
        }
      ],
      "name": "safeTransferFrom",
      "outputs": [],
      "stateMutability": "nonpayable",
      "type": "function"
    },
    {
      "inputs": [
        {
          "internalType": "address",
          "name": "from",
          "type": "address"
        },
        {
          "internalType": "address",
          "name": "to",
          "type": "address"
        },
        {
          "internalType": "uint256",
          "name": "tokenId",
          "type": "uint256"
        },
        {
          "internalType": "bytes",
          "name": "_data",
          "type": "bytes"
        }
      ],
      "name": "safeTransferFrom",
      "outputs": [],
      "stateMutability": "nonpayable",
      "type": "function"
    },
    {
      "inputs": [
        {
          "internalType": "address",
          "name": "operator",
          "type": "address"
        },
        {
          "internalType": "bool",
          "name": "approved",
          "type": "bool"
        }
      ],
      "name": "setApprovalForAll",
      "outputs": [],
      "stateMutability": "nonpayable",
      "type": "function"
    },
    {
      "inputs": [
        {
          "internalType": "string",
          "name": "baseURI",
          "type": "string"
        }
      ],
      "name": "setBaseURI",
      "outputs": [],
      "stateMutability": "nonpayable",
      "type": "function"
    },
    {
      "inputs": [
        {
          "internalType": "uint256",
          "name": "tokenId",
          "type": "uint256"
        },
        {
          "internalType": "string",
          "name": "_tokenSecretURI",
          "type": "string"
        }
      ],
      "name": "setTokenOnlyHolderURI",
      "outputs": [],
      "stateMutability": "nonpayable",
      "type": "function"
    },
    {
      "inputs": [
        {
          "internalType": "bytes4",
          "name": "interfaceId",
          "type": "bytes4"
        }
      ],
      "name": "supportsInterface",
      "outputs": [
        {
          "internalType": "bool",
          "name": "",
          "type": "bool"
        }
      ],
      "stateMutability": "view",
      "type": "function"
    },
    {
      "inputs": [],
      "name": "symbol",
      "outputs": [
        {
          "internalType": "string",
          "name": "",
          "type": "string"
        }
      ],
      "stateMutability": "view",
      "type": "function"
    },
    {
      "inputs": [
        {
          "internalType": "uint256",
          "name": "index",
          "type": "uint256"
        }
      ],
      "name": "tokenByIndex",
      "outputs": [
        {
          "internalType": "uint256",
          "name": "",
          "type": "uint256"
        }
      ],
      "stateMutability": "view",
      "type": "function"
    },
    {
      "inputs": [
        {
          "internalType": "address",
          "name": "owner",
          "type": "address"
        },
        {
          "internalType": "uint256",
          "name": "index",
          "type": "uint256"
        }
      ],
      "name": "tokenOfOwnerByIndex",
      "outputs": [
        {
          "internalType": "uint256",
          "name": "",
          "type": "uint256"
        }
      ],
      "stateMutability": "view",
      "type": "function"
    },
    {
      "inputs": [
        {
          "internalType": "uint256",
          "name": "tokenId",
          "type": "uint256"
        }
      ],
      "name": "tokenURI",
      "outputs": [
        {
          "internalType": "string",
          "name": "",
          "type": "string"
        }
      ],
      "stateMutability": "view",
      "type": "function"
    },
    {
      "inputs": [
        {
          "internalType": "address",
          "name": "_owner",
          "type": "address"
        }
      ],
      "name": "tokensOfOwner",
      "outputs": [
        {
          "internalType": "uint256[]",
          "name": "",
          "type": "uint256[]"
        }
      ],
      "stateMutability": "view",
      "type": "function"
    },
    {
      "inputs": [],
      "name": "totalSupply",
      "outputs": [
        {
          "internalType": "uint256",
          "name": "",
          "type": "uint256"
        }
      ],
      "stateMutability": "view",
      "type": "function"
    },
    {
      "inputs": [
        {
          "internalType": "address",
          "name": "from",
          "type": "address"
        },
        {
          "internalType": "address",
          "name": "to",
          "type": "address"
        },
        {
          "internalType": "uint256",
          "name": "tokenId",
          "type": "uint256"
        }
      ],
      "name": "transferFrom",
      "outputs": [],
      "stateMutability": "nonpayable",
      "type": "function"
    },
    {
      "inputs": [
        {
          "internalType": "address",
          "name": "newOwner",
          "type": "address"
        }
      ],
      "name": "transferOwnership",
      "outputs": [],
      "stateMutability": "nonpayable",
      "type": "function"
    }
  ],
  "bytecode": "0x60806040523480156200001157600080fd5b50604051620026023803806200260283398101604081905262000034916200022f565b604080518082018252600b81526a43525950544f535041434560a81b6020808301918252835180850190945260038452624e435360e81b908401528151919291620000829160009162000189565b5080516200009890600190602084019062000189565b5050506000620000ad6200010d60201b60201c565b600a80546001600160a01b0319166001600160a01b038316908117909155604051919250906000907f8be0079c531659141344cd1fd0a4f28419497f9722a3daafe3b4186f6b6457e0908290a350620001068162000111565b5062000358565b3390565b600a546001600160a01b03163314620001705760405162461bcd60e51b815260206004820181905260248201527f4f776e61626c653a2063616c6c6572206973206e6f7420746865206f776e6572604482015260640160405180910390fd5b80516200018590600b90602084019062000189565b5050565b828054620001979062000305565b90600052602060002090601f016020900481019282620001bb576000855562000206565b82601f10620001d657805160ff191683800117855562000206565b8280016001018555821562000206579182015b8281111562000206578251825591602001919060010190620001e9565b506200021492915062000218565b5090565b5b8082111562000214576000815560010162000219565b6000602080838503121562000242578182fd5b82516001600160401b038082111562000259578384fd5b818501915085601f8301126200026d578384fd5b81518181111562000282576200028262000342565b604051601f8201601f19908116603f01168101908382118183101715620002ad57620002ad62000342565b816040528281528886848701011115620002c5578687fd5b8693505b82841015620002e85784840186015181850187015292850192620002c9565b82841115620002f957868684830101525b98975050505050505050565b600181811c908216806200031a57607f821691505b602082108114156200033c57634e487b7160e01b600052602260045260246000fd5b50919050565b634e487b7160e01b600052604160045260246000fd5b61229a80620003686000396000f3fe608060405234801561001057600080fd5b50600436106101735760003560e01c80636352211e116100de57806395d89b4111610097578063c87b56dd11610071578063c87b56dd14610337578063d758fc491461034a578063e985e9c51461035d578063f2fde38b1461039957600080fd5b806395d89b4114610309578063a22cb46514610311578063b88d4fde1461032457600080fd5b80636352211e1461028c5780636f8511641461029f57806370a08231146102b25780637ad68e6b146102c55780638462151c146102d85780638da5cb5b146102f857600080fd5b806323b872dd1161013057806323b872dd1461021a5780632f745c591461022d57806342842e0e1461024057806342966c68146102535780634f6ccce71461026657806355f804b31461027957600080fd5b8063010a3a041461017857806301ffc9a71461018d57806306fdde03146101b5578063081812fc146101ca578063095ea7b3146101f557806318160ddd14610208575b600080fd5b61018b610186366004611e87565b6103ac565b005b6101a061019b366004611e04565b610480565b60405190151581526020015b60405180910390f35b6101bd6104ab565b6040516101ac9190611fb3565b6101dd6101d8366004611e6f565b61053d565b6040516001600160a01b0390911681526020016101ac565b61018b610203366004611ddb565b6105c5565b6008545b6040519081526020016101ac565b61018b610228366004611ca1565b6106db565b61020c61023b366004611ddb565b61070c565b61018b61024e366004611ca1565b6107a2565b61018b610261366004611e6f565b6107bd565b61020c610274366004611e6f565b610848565b61018b610287366004611e3c565b6108e9565b6101dd61029a366004611e6f565b61092a565b61018b6102ad366004611eb6565b6109a1565b61020c6102c0366004611c55565b610a07565b61018b6102d3366004611d8f565b610a8e565b6102eb6102e6366004611c55565b610b16565b6040516101ac9190611f6f565b600a546001600160a01b03166101dd565b6101bd610bd4565b61018b61031f366004611d55565b610be3565b61018b610332366004611cdc565b610ca8565b6101bd610345366004611e6f565b610cda565b6101bd610358366004611e6f565b610da5565b6101a061036b366004611c6f565b6001600160a01b03918216600090815260056020908152604080832093909416825291909152205460ff1690565b61018b6103a7366004611c55565b610f3a565b816103b68161092a565b6001600160a01b0316336001600160a01b0316146103ef5760405162461bcd60e51b81526004016103e69061204b565b60405180910390fd5b6103f883611025565b61045b5760405162461bcd60e51b815260206004820152602e60248201527f45524337323155524953746f726167653a2055524920736574206f66206e6f6e60448201526d32bc34b9ba32b73a103a37b5b2b760911b60648201526084016103e6565b6000838152600c60209081526040909120835161047a92850190611b0b565b50505050565b60006001600160e01b0319821663780e9d6360e01b14806104a557506104a582611042565b92915050565b6060600080546104ba90612188565b80601f01602080910402602001604051908101604052809291908181526020018280546104e690612188565b80156105335780601f1061050857610100808354040283529160200191610533565b820191906000526020600020905b81548152906001019060200180831161051657829003601f168201915b5050505050905090565b600061054882611025565b6105a95760405162461bcd60e51b815260206004820152602c60248201527f4552433732313a20617070726f76656420717565727920666f72206e6f6e657860448201526b34b9ba32b73a103a37b5b2b760a11b60648201526084016103e6565b506000908152600460205260409020546001600160a01b031690565b60006105d08261092a565b9050806001600160a01b0316836001600160a01b0316141561063e5760405162461bcd60e51b815260206004820152602160248201527f4552433732313a20617070726f76616c20746f2063757272656e74206f776e656044820152603960f91b60648201526084016103e6565b336001600160a01b038216148061065a575061065a813361036b565b6106cc5760405162461bcd60e51b815260206004820152603860248201527f4552433732313a20617070726f76652063616c6c6572206973206e6f74206f7760448201527f6e6572206e6f7220617070726f76656420666f7220616c6c000000000000000060648201526084016103e6565b6106d68383611092565b505050565b6106e53382611100565b6107015760405162461bcd60e51b81526004016103e6906120c8565b6106d68383836111ea565b600061071783610a07565b82106107795760405162461bcd60e51b815260206004820152602b60248201527f455243373231456e756d657261626c653a206f776e657220696e646578206f7560448201526a74206f6620626f756e647360a81b60648201526084016103e6565b506001600160a01b03919091166000908152600660209081526040808320938352929052205490565b6106d683838360405180602001604052806000815250610ca8565b6107c68161092a565b6001600160a01b0316336001600160a01b03161461083c5760405162461bcd60e51b815260206004820152602d60248201527f4f6e6c792074686520546f6b656e496420686f6c6465722063616e206275726e60448201526c081d1a1a5cc81d1bdad95b9259609a1b60648201526084016103e6565b61084581611395565b50565b600061085360085490565b82106108b65760405162461bcd60e51b815260206004820152602c60248201527f455243373231456e756d657261626c653a20676c6f62616c20696e646578206f60448201526b7574206f6620626f756e647360a01b60648201526084016103e6565b600882815481106108d757634e487b7160e01b600052603260045260246000fd5b90600052602060002001549050919050565b600a546001600160a01b031633146109135760405162461bcd60e51b81526004016103e690612093565b805161092690600b906020840190611b0b565b5050565b6000818152600260205260408120546001600160a01b0316806104a55760405162461bcd60e51b815260206004820152602960248201527f4552433732313a206f776e657220717565727920666f72206e6f6e657869737460448201526832b73a103a37b5b2b760b91b60648201526084016103e6565b600a546001600160a01b031633146109cb5760405162461bcd60e51b81526004016103e690612093565b60005b8160ff168160ff161015610926576109f53360405180602001604052806000815250610a8e565b806109ff816121d8565b9150506109ce565b60006001600160a01b038216610a725760405162461bcd60e51b815260206004820152602a60248201527f4552433732313a2062616c616e636520717565727920666f7220746865207a65604482015269726f206164647265737360b01b60648201526084016103e6565b506001600160a01b031660009081526003602052604090205490565b600a546001600160a01b03163314610ab85760405162461bcd60e51b81526004016103e690612093565b6000610ac360085490565b9050610afb604051806040016040528060138152602001724d696e7420746f6b656e20257320746f20257360681b815250828561143c565b610b058382611483565b8151156106d6576106d681836103ac565b60606000610b2383610a07565b905060008167ffffffffffffffff811115610b4e57634e487b7160e01b600052604160045260246000fd5b604051908082528060200260200182016040528015610b77578160200160208202803683370190505b50905060005b82811015610bcc57610b8f858261070c565b828281518110610baf57634e487b7160e01b600052603260045260246000fd5b602090810291909101015280610bc4816121bd565b915050610b7d565b509392505050565b6060600180546104ba90612188565b6001600160a01b038216331415610c3c5760405162461bcd60e51b815260206004820152601960248201527f4552433732313a20617070726f766520746f2063616c6c65720000000000000060448201526064016103e6565b3360008181526005602090815260408083206001600160a01b03871680855290835292819020805460ff191686151590811790915590519081529192917f17307eab39ab6107e8899845ad3d59bd9653f200f220920489ca2b5937696c31910160405180910390a35050565b610cb23383611100565b610cce5760405162461bcd60e51b81526004016103e6906120c8565b61047a8484848461149d565b6060610ce582611025565b610d495760405162461bcd60e51b815260206004820152602f60248201527f4552433732314d657461646174613a2055524920717565727920666f72206e6f60448201526e3732bc34b9ba32b73a103a37b5b2b760891b60648201526084016103e6565b6000610d536114d0565b90506000815111610d735760405180602001604052806000815250610d9e565b80610d7d846114df565b604051602001610d8e929190611f03565b6040516020818303038152906040525b9392505050565b606081610db18161092a565b6001600160a01b0316336001600160a01b031614610de15760405162461bcd60e51b81526004016103e69061204b565b610dea83611025565b610e365760405162461bcd60e51b815260206004820152601f60248201527f55524920717565727920666f72206e6f6e6578697374656e7420746f6b656e0060448201526064016103e6565b6000838152600c602052604081208054610e4f90612188565b80601f0160208091040260200160405190810160405280929190818152602001828054610e7b90612188565b8015610ec85780601f10610e9d57610100808354040283529160200191610ec8565b820191906000526020600020905b815481529060010190602001808311610eab57829003601f168201915b505050505090506000610ed96114d0565b9050805160001415610eed57509150610f34565b815115610f1f578082604051602001610f07929190611f03565b60405160208183030381529060405293505050610f34565b60405180602001604052806000815250935050505b50919050565b600a546001600160a01b03163314610f645760405162461bcd60e51b81526004016103e690612093565b6001600160a01b038116610fc95760405162461bcd60e51b815260206004820152602660248201527f4f776e61626c653a206e6577206f776e657220697320746865207a65726f206160448201526564647265737360d01b60648201526084016103e6565b600a546040516001600160a01b038084169216907f8be0079c531659141344cd1fd0a4f28419497f9722a3daafe3b4186f6b6457e090600090a3600a80546001600160a01b0319166001600160a01b0392909216919091179055565b6000908152600260205260409020546001600160a01b0316151590565b60006001600160e01b031982166380ac58cd60e01b148061107357506001600160e01b03198216635b5e139f60e01b145b806104a557506301ffc9a760e01b6001600160e01b03198316146104a5565b600081815260046020526040902080546001600160a01b0319166001600160a01b03841690811790915581906110c78261092a565b6001600160a01b03167f8c5be1e5ebec7d5bd14f71427d1e84f3dd0314c0f7b2291e5b200ac8c7c3b92560405160405180910390a45050565b600061110b82611025565b61116c5760405162461bcd60e51b815260206004820152602c60248201527f4552433732313a206f70657261746f7220717565727920666f72206e6f6e657860448201526b34b9ba32b73a103a37b5b2b760a11b60648201526084016103e6565b60006111778361092a565b9050806001600160a01b0316846001600160a01b031614806111b25750836001600160a01b03166111a78461053d565b6001600160a01b0316145b806111e257506001600160a01b0380821660009081526005602090815260408083209388168352929052205460ff165b949350505050565b826001600160a01b03166111fd8261092a565b6001600160a01b0316146112655760405162461bcd60e51b815260206004820152602960248201527f4552433732313a207472616e73666572206f6620746f6b656e2074686174206960448201526839903737ba1037bbb760b91b60648201526084016103e6565b6001600160a01b0382166112c75760405162461bcd60e51b8152602060048201526024808201527f4552433732313a207472616e7366657220746f20746865207a65726f206164646044820152637265737360e01b60648201526084016103e6565b6112d28383836115f9565b6112dd600082611092565b6001600160a01b0383166000908152600360205260408120805460019290611306908490612145565b90915550506001600160a01b0382166000908152600360205260408120805460019290611334908490612119565b909155505060008181526002602052604080822080546001600160a01b0319166001600160a01b0386811691821790925591518493918716917fddf252ad1be2c89b69c2b068fc378daa952ba7f163c4a11628f55a4df523b3ef91a4505050565b60006113a08261092a565b90506113ae816000846115f9565b6113b9600083611092565b6001600160a01b03811660009081526003602052604081208054600192906113e2908490612145565b909155505060008281526002602052604080822080546001600160a01b0319169055518391906001600160a01b038416907fddf252ad1be2c89b69c2b068fc378daa952ba7f163c4a11628f55a4df523b3ef908390a45050565b6106d683838360405160240161145493929190611fc6565b60408051601f198184030181529190526020810180516001600160e01b031663e3849f7960e01b1790526116b1565b6109268282604051806020016040528060008152506116d2565b6114a88484846111ea565b6114b484848484611705565b61047a5760405162461bcd60e51b81526004016103e690611ff9565b6060600b80546104ba90612188565b6060816115035750506040805180820190915260018152600360fc1b602082015290565b8160005b811561152d5780611517816121bd565b91506115269050600a83612131565b9150611507565b60008167ffffffffffffffff81111561155657634e487b7160e01b600052604160045260246000fd5b6040519080825280601f01601f191660200182016040528015611580576020820181803683370190505b5090505b84156111e257611595600183612145565b91506115a2600a866121f8565b6115ad906030612119565b60f81b8183815181106115d057634e487b7160e01b600052603260045260246000fd5b60200101906001600160f81b031916908160001a9053506115f2600a86612131565b9450611584565b6001600160a01b0383166116545761164f81600880546000838152600960205260408120829055600182018355919091527ff3f7a9fe364faab93b216da50a3214154f22a0a2b415b23a84c8169e8b636ee30155565b611677565b816001600160a01b0316836001600160a01b031614611677576116778382611812565b6001600160a01b03821661168e576106d6816118af565b826001600160a01b0316826001600160a01b0316146106d6576106d68282611988565b80516a636f6e736f6c652e6c6f67602083016000808483855afa5050505050565b6116dc83836119cc565b6116e96000848484611705565b6106d65760405162461bcd60e51b81526004016103e690611ff9565b60006001600160a01b0384163b1561180757604051630a85bd0160e11b81526001600160a01b0385169063150b7a0290611749903390899088908890600401611f32565b602060405180830381600087803b15801561176357600080fd5b505af1925050508015611793575060408051601f3d908101601f1916820190925261179091810190611e20565b60015b6117ed573d8080156117c1576040519150601f19603f3d011682016040523d82523d6000602084013e6117c6565b606091505b5080516117e55760405162461bcd60e51b81526004016103e690611ff9565b805181602001fd5b6001600160e01b031916630a85bd0160e11b1490506111e2565b506001949350505050565b6000600161181f84610a07565b6118299190612145565b60008381526007602052604090205490915080821461187c576001600160a01b03841660009081526006602090815260408083208584528252808320548484528184208190558352600790915290208190555b5060009182526007602090815260408084208490556001600160a01b039094168352600681528383209183525290812055565b6008546000906118c190600190612145565b600083815260096020526040812054600880549394509092849081106118f757634e487b7160e01b600052603260045260246000fd5b90600052602060002001549050806008838154811061192657634e487b7160e01b600052603260045260246000fd5b600091825260208083209091019290925582815260099091526040808220849055858252812055600880548061196c57634e487b7160e01b600052603160045260246000fd5b6001900381819060005260206000200160009055905550505050565b600061199383610a07565b6001600160a01b039093166000908152600660209081526040808320868452825280832085905593825260079052919091209190915550565b6001600160a01b038216611a225760405162461bcd60e51b815260206004820181905260248201527f4552433732313a206d696e7420746f20746865207a65726f206164647265737360448201526064016103e6565b611a2b81611025565b15611a785760405162461bcd60e51b815260206004820152601c60248201527f4552433732313a20746f6b656e20616c7265616479206d696e7465640000000060448201526064016103e6565b611a84600083836115f9565b6001600160a01b0382166000908152600360205260408120805460019290611aad908490612119565b909155505060008181526002602052604080822080546001600160a01b0319166001600160a01b03861690811790915590518392907fddf252ad1be2c89b69c2b068fc378daa952ba7f163c4a11628f55a4df523b3ef908290a45050565b828054611b1790612188565b90600052602060002090601f016020900481019282611b395760008555611b7f565b82601f10611b5257805160ff1916838001178555611b7f565b82800160010185558215611b7f579182015b82811115611b7f578251825591602001919060010190611b64565b50611b8b929150611b8f565b5090565b5b80821115611b8b5760008155600101611b90565b600067ffffffffffffffff80841115611bbf57611bbf612238565b604051601f8501601f19908116603f01168101908282118183101715611be757611be7612238565b81604052809350858152868686011115611c0057600080fd5b858560208301376000602087830101525050509392505050565b80356001600160a01b0381168114611c3157600080fd5b919050565b600082601f830112611c46578081fd5b610d9e83833560208501611ba4565b600060208284031215611c66578081fd5b610d9e82611c1a565b60008060408385031215611c81578081fd5b611c8a83611c1a565b9150611c9860208401611c1a565b90509250929050565b600080600060608486031215611cb5578081fd5b611cbe84611c1a565b9250611ccc60208501611c1a565b9150604084013590509250925092565b60008060008060808587031215611cf1578081fd5b611cfa85611c1a565b9350611d0860208601611c1a565b925060408501359150606085013567ffffffffffffffff811115611d2a578182fd5b8501601f81018713611d3a578182fd5b611d4987823560208401611ba4565b91505092959194509250565b60008060408385031215611d67578182fd5b611d7083611c1a565b915060208301358015158114611d84578182fd5b809150509250929050565b60008060408385031215611da1578182fd5b611daa83611c1a565b9150602083013567ffffffffffffffff811115611dc5578182fd5b611dd185828601611c36565b9150509250929050565b60008060408385031215611ded578182fd5b611df683611c1a565b946020939093013593505050565b600060208284031215611e15578081fd5b8135610d9e8161224e565b600060208284031215611e31578081fd5b8151610d9e8161224e565b600060208284031215611e4d578081fd5b813567ffffffffffffffff811115611e63578182fd5b6111e284828501611c36565b600060208284031215611e80578081fd5b5035919050565b60008060408385031215611e99578182fd5b82359150602083013567ffffffffffffffff811115611dc5578182fd5b600060208284031215611ec7578081fd5b813560ff81168114610d9e578182fd5b60008151808452611eef81602086016020860161215c565b601f01601f19169290920160200192915050565b60008351611f1581846020880161215c565b835190830190611f2981836020880161215c565b01949350505050565b6001600160a01b0385811682528416602082015260408101839052608060608201819052600090611f6590830184611ed7565b9695505050505050565b6020808252825182820181905260009190848201906040850190845b81811015611fa757835183529284019291840191600101611f8b565b50909695505050505050565b602081526000610d9e6020830184611ed7565b606081526000611fd96060830186611ed7565b6020830194909452506001600160a01b0391909116604090910152919050565b60208082526032908201527f4552433732313a207472616e7366657220746f206e6f6e20455243373231526560408201527131b2b4bb32b91034b6b83632b6b2b73a32b960711b606082015260800190565b60208082526028908201527f4f6e6c792074686520546f6b656e496420686f6c6465722063616e2073656520604082015267746869732055524960c01b606082015260800190565b6020808252818101527f4f776e61626c653a2063616c6c6572206973206e6f7420746865206f776e6572604082015260600190565b60208082526031908201527f4552433732313a207472616e736665722063616c6c6572206973206e6f74206f6040820152701ddb995c881b9bdc88185c1c1c9bdd9959607a1b606082015260800190565b6000821982111561212c5761212c61220c565b500190565b60008261214057612140612222565b500490565b6000828210156121575761215761220c565b500390565b60005b8381101561217757818101518382015260200161215f565b8381111561047a5750506000910152565b600181811c9082168061219c57607f821691505b60208210811415610f3457634e487b7160e01b600052602260045260246000fd5b60006000198214156121d1576121d161220c565b5060010190565b600060ff821660ff8114156121ef576121ef61220c565b60010192915050565b60008261220757612207612222565b500690565b634e487b7160e01b600052601160045260246000fd5b634e487b7160e01b600052601260045260246000fd5b634e487b7160e01b600052604160045260246000fd5b6001600160e01b03198116811461084557600080fdfea26469706673582212202ac4f4e6195a8d4a67b9d41673fb27237ad82a3a0ce9ad2ee25855066212a0f564736f6c63430008040033",
  "linkReferences": {},
  "deployedLinkReferences": {}
}