{
  "_format": "hh-sol-artifact-1",
  "contractName": "NapaCryptoSpaceMarket",
  "sourceName": "contracts/NapaCryptoSpaceMarket.sol",
  "abi": [
    {
      "inputs": [
        {
          "internalType": "address",
          "name": "_stAddress",
          "type": "address"
        }
      ],
      "stateMutability": "nonpayable",
      "type": "constructor"
    },
    {
      "anonymous": false,
      "inputs": [
        {
          "indexed": true,
          "internalType": "address",
          "name": "to",
          "type": "address"
        },
        {
          "indexed": false,
          "internalType": "uint256",
          "name": "spaceId",
          "type": "uint256"
        }
      ],
      "name": "Assign",
      "type": "event"
    },
    {
      "anonymous": false,
      "inputs": [
        {
          "indexed": true,
          "internalType": "address",
          "name": "from",
          "type": "address"
        },
        {
          "indexed": true,
          "internalType": "address",
          "name": "to",
          "type": "address"
        },
        {
          "indexed": false,
          "internalType": "uint256",
          "name": "value",
          "type": "uint256"
        }
      ],
      "name": "ETHTransfer",
      "type": "event"
    },
    {
      "anonymous": false,
      "inputs": [
        {
          "indexed": true,
          "internalType": "address",
          "name": "previousOwner",
          "type": "address"
        },
        {
          "indexed": true,
          "internalType": "address",
          "name": "newOwner",
          "type": "address"
        }
      ],
      "name": "OwnershipTransferred",
      "type": "event"
    },
    {
      "anonymous": false,
      "inputs": [
        {
          "indexed": true,
          "internalType": "uint256",
          "name": "spaceId",
          "type": "uint256"
        },
        {
          "indexed": false,
          "internalType": "uint256",
          "name": "value",
          "type": "uint256"
        }
      ],
      "name": "SpaceBidEntered",
      "type": "event"
    },
    {
      "anonymous": false,
      "inputs": [
        {
          "indexed": true,
          "internalType": "uint256",
          "name": "spaceId",
          "type": "uint256"
        },
        {
          "indexed": false,
          "internalType": "uint256",
          "name": "value",
          "type": "uint256"
        }
      ],
      "name": "SpaceBidWithdrawn",
      "type": "event"
    },
    {
      "anonymous": false,
      "inputs": [
        {
          "indexed": true,
          "internalType": "uint256",
          "name": "spaceId",
          "type": "uint256"
        },
        {
          "indexed": false,
          "internalType": "uint256",
          "name": "value",
          "type": "uint256"
        },
        {
          "indexed": true,
          "internalType": "address",
          "name": "fromAddress",
          "type": "address"
        },
        {
          "indexed": true,
          "internalType": "address",
          "name": "toAddress",
          "type": "address"
        }
      ],
      "name": "SpaceBought",
      "type": "event"
    },
    {
      "anonymous": false,
      "inputs": [
        {
          "indexed": true,
          "internalType": "uint256",
          "name": "spaceId",
          "type": "uint256"
        }
      ],
      "name": "SpaceNoLongerForSale",
      "type": "event"
    },
    {
      "anonymous": false,
      "inputs": [
        {
          "indexed": true,
          "internalType": "uint256",
          "name": "spaceId",
          "type": "uint256"
        },
        {
          "indexed": false,
          "internalType": "uint256",
          "name": "minValue",
          "type": "uint256"
        },
        {
          "indexed": true,
          "internalType": "address",
          "name": "toAddress",
          "type": "address"
        }
      ],
      "name": "SpaceOffered",
      "type": "event"
    },
    {
      "anonymous": false,
      "inputs": [
        {
          "indexed": true,
          "internalType": "address",
          "name": "from",
          "type": "address"
        },
        {
          "indexed": true,
          "internalType": "address",
          "name": "to",
          "type": "address"
        },
        {
          "indexed": false,
          "internalType": "uint256",
          "name": "spaceId",
          "type": "uint256"
        }
      ],
      "name": "SpaceTransfer",
      "type": "event"
    },
    {
      "inputs": [
        {
          "internalType": "uint256",
          "name": "spaceId",
          "type": "uint256"
        },
        {
          "internalType": "uint256",
          "name": "minPrice",
          "type": "uint256"
        }
      ],
      "name": "acceptBidForSpace",
      "outputs": [],
      "stateMutability": "nonpayable",
      "type": "function"
    },
    {
      "inputs": [
        {
          "internalType": "address",
          "name": "",
          "type": "address"
        }
      ],
      "name": "balanceOf",
      "outputs": [
        {
          "internalType": "uint256",
          "name": "",
          "type": "uint256"
        }
      ],
      "stateMutability": "view",
      "type": "function"
    },
    {
      "inputs": [
        {
          "internalType": "uint256",
          "name": "spaceId",
          "type": "uint256"
        }
      ],
      "name": "buySpace",
      "outputs": [],
      "stateMutability": "payable",
      "type": "function"
    },
    {
      "inputs": [
        {
          "internalType": "uint256",
          "name": "spaceId",
          "type": "uint256"
        }
      ],
      "name": "enterBidForSpace",
      "outputs": [],
      "stateMutability": "payable",
      "type": "function"
    },
    {
      "inputs": [
        {
          "internalType": "uint256",
          "name": "spaceId",
          "type": "uint256"
        }
      ],
      "name": "getSpace",
      "outputs": [],
      "stateMutability": "nonpayable",
      "type": "function"
    },
    {
      "inputs": [],
      "name": "name",
      "outputs": [
        {
          "internalType": "string",
          "name": "",
          "type": "string"
        }
      ],
      "stateMutability": "view",
      "type": "function"
    },
    {
      "inputs": [
        {
          "internalType": "uint256",
          "name": "spaceId",
          "type": "uint256"
        },
        {
          "internalType": "uint256",
          "name": "minSalePriceInWei",
          "type": "uint256"
        }
      ],
      "name": "offerSpaceForSale",
      "outputs": [],
      "stateMutability": "nonpayable",
      "type": "function"
    },
    {
      "inputs": [
        {
          "internalType": "uint256",
          "name": "spaceId",
          "type": "uint256"
        },
        {
          "internalType": "uint256",
          "name": "minSalePriceInWei",
          "type": "uint256"
        },
        {
          "internalType": "address",
          "name": "toAddress",
          "type": "address"
        }
      ],
      "name": "offerSpaceForSaleToAddress",
      "outputs": [],
      "stateMutability": "nonpayable",
      "type": "function"
    },
    {
      "inputs": [],
      "name": "owner",
      "outputs": [
        {
          "internalType": "address",
          "name": "",
          "type": "address"
        }
      ],
      "stateMutability": "view",
      "type": "function"
    },
    {
      "inputs": [
        {
          "internalType": "address",
          "name": "",
          "type": "address"
        }
      ],
      "name": "pendingWithdrawals",
      "outputs": [
        {
          "internalType": "uint256",
          "name": "",
          "type": "uint256"
        }
      ],
      "stateMutability": "view",
      "type": "function"
    },
    {
      "inputs": [],
      "name": "returnSpaceIndexToAddressArray",
      "outputs": [
        {
          "internalType": "address[]",
          "name": "",
          "type": "address[]"
        }
      ],
      "stateMutability": "view",
      "type": "function"
    },
    {
      "inputs": [],
      "name": "returnSpacesBidsArray",
      "outputs": [
        {
          "components": [
            {
              "internalType": "bool",
              "name": "hasBid",
              "type": "bool"
            },
            {
              "internalType": "uint256",
              "name": "spaceIndex",
              "type": "uint256"
            },
            {
              "internalType": "address",
              "name": "bidder",
              "type": "address"
            },
            {
              "internalType": "uint256",
              "name": "value",
              "type": "uint256"
            }
          ],
          "internalType": "struct NapaCryptoSpaceMarket.Bid[]",
          "name": "",
          "type": "tuple[]"
        }
      ],
      "stateMutability": "view",
      "type": "function"
    },
    {
      "inputs": [],
      "name": "returnSpacesOfferedForSaleArray",
      "outputs": [
        {
          "components": [
            {
              "internalType": "bool",
              "name": "isForSale",
              "type": "bool"
            },
            {
              "internalType": "uint256",
              "name": "spaceIndex",
              "type": "uint256"
            },
            {
              "internalType": "address",
              "name": "seller",
              "type": "address"
            },
            {
              "internalType": "uint256",
              "name": "minValue",
              "type": "uint256"
            },
            {
              "internalType": "address",
              "name": "onlySellTo",
              "type": "address"
            }
          ],
          "internalType": "struct NapaCryptoSpaceMarket.Offer[]",
          "name": "",
          "type": "tuple[]"
        }
      ],
      "stateMutability": "view",
      "type": "function"
    },
    {
      "inputs": [
        {
          "internalType": "uint256",
          "name": "",
          "type": "uint256"
        }
      ],
      "name": "spaceBids",
      "outputs": [
        {
          "internalType": "bool",
          "name": "hasBid",
          "type": "bool"
        },
        {
          "internalType": "uint256",
          "name": "spaceIndex",
          "type": "uint256"
        },
        {
          "internalType": "address",
          "name": "bidder",
          "type": "address"
        },
        {
          "internalType": "uint256",
          "name": "value",
          "type": "uint256"
        }
      ],
      "stateMutability": "view",
      "type": "function"
    },
    {
      "inputs": [],
      "name": "spaceTokenContract",
      "outputs": [
        {
          "internalType": "address",
          "name": "",
          "type": "address"
        }
      ],
      "stateMutability": "view",
      "type": "function"
    },
    {
      "inputs": [
        {
          "internalType": "uint256",
          "name": "",
          "type": "uint256"
        }
      ],
      "name": "spacesOfferedForSale",
      "outputs": [
        {
          "internalType": "bool",
          "name": "isForSale",
          "type": "bool"
        },
        {
          "internalType": "uint256",
          "name": "spaceIndex",
          "type": "uint256"
        },
        {
          "internalType": "address",
          "name": "seller",
          "type": "address"
        },
        {
          "internalType": "uint256",
          "name": "minValue",
          "type": "uint256"
        },
        {
          "internalType": "address",
          "name": "onlySellTo",
          "type": "address"
        }
      ],
      "stateMutability": "view",
      "type": "function"
    },
    {
      "inputs": [],
      "name": "symbol",
      "outputs": [
        {
          "internalType": "string",
          "name": "",
          "type": "string"
        }
      ],
      "stateMutability": "view",
      "type": "function"
    },
    {
      "inputs": [
        {
          "internalType": "address",
          "name": "newOwner",
          "type": "address"
        }
      ],
      "name": "transferOwnership",
      "outputs": [],
      "stateMutability": "nonpayable",
      "type": "function"
    },
    {
      "inputs": [
        {
          "internalType": "address",
          "name": "to",
          "type": "address"
        },
        {
          "internalType": "uint256",
          "name": "spaceId",
          "type": "uint256"
        }
      ],
      "name": "transferSpace",
      "outputs": [],
      "stateMutability": "nonpayable",
      "type": "function"
    },
    {
      "inputs": [],
      "name": "withdraw",
      "outputs": [],
      "stateMutability": "nonpayable",
      "type": "function"
    },
    {
      "inputs": [
        {
          "internalType": "uint256",
          "name": "spaceId",
          "type": "uint256"
        }
      ],
      "name": "withdrawBidForSpace",
      "outputs": [],
      "stateMutability": "nonpayable",
      "type": "function"
    }
  ],
  "bytecode": "0x608060405234801561001057600080fd5b506040516200240b3803806200240b83398101604081905261003191610097565b600080546001600160a01b031916339081178255604051909182917f8be0079c531659141344cd1fd0a4f28419497f9722a3daafe3b4186f6b6457e0908290a350600380546001600160a01b0319166001600160a01b03929092169190911790556100c5565b6000602082840312156100a8578081fd5b81516001600160a01b03811681146100be578182fd5b9392505050565b61233680620000d56000396000f3fe60806040526004361061012a5760003560e01c80638da5cb5b116100ab578063dccd88271161006f578063dccd882714610380578063de80318d146103a2578063e8807e89146103c2578063f2fde38b146103e2578063f3f4370314610402578063ff7bdc0a1461042f57600080fd5b80638da5cb5b146102e45780638de656bd1461031657806395d89b4114610338578063994f42eb1461034d5780639bd1332e1461036d57600080fd5b80636178e8d1116100f25780636178e8d11461022757806370a082311461024757806370e104311461028257806378b95888146102a25780637fa4f1d9146102c457600080fd5b806306fdde031461012f5780633ccfd60b1461015a57806351d28bdb1461017157806354e39e88146101f45780635b795c7c14610214575b600080fd5b34801561013b57600080fd5b506101446104be565b604051610151919061221e565b60405180910390f35b34801561016657600080fd5b5061016f61054c565b005b34801561017d57600080fd5b506101c361018c366004611ffb565b600660205260009081526040902080546001820154600283015460039093015460ff9092169290916001600160a01b039091169084565b6040516101519493929190931515845260208401929092526001600160a01b03166040830152606082015260800190565b34801561020057600080fd5b5061016f61020f36600461202b565b6105c8565b61016f610222366004611ffb565b61096c565b34801561023357600080fd5b5061016f610242366004611fd0565b610c1c565b34801561025357600080fd5b50610274610262366004611f91565b60046020526000908152604090205481565b604051908152602001610151565b34801561028e57600080fd5b5061016f61029d366004611ffb565b610e3c565b3480156102ae57600080fd5b506102b761100a565b6040516101519190612140565b3480156102d057600080fd5b5061016f6102df36600461204c565b6111b5565b3480156102f057600080fd5b506000546001600160a01b03165b6040516001600160a01b039091168152602001610151565b34801561032257600080fd5b5061032b61127f565b60405161015191906120f3565b34801561034457600080fd5b50610144611431565b34801561035957600080fd5b5061016f610368366004611ffb565b61143e565b61016f61037b366004611ffb565b6116b9565b34801561038c57600080fd5b50610395611ae0565b60405161015191906121af565b3480156103ae57600080fd5b5061016f6103bd36600461202b565b611c98565b3480156103ce57600080fd5b506003546102fe906001600160a01b031681565b3480156103ee57600080fd5b5061016f6103fd366004611f91565b611d5e565b34801561040e57600080fd5b5061027461041d366004611f91565b60076020526000908152604090205481565b34801561043b57600080fd5b5061048861044a366004611ffb565b6005602052600090815260409020805460018201546002830154600384015460049094015460ff9093169391926001600160a01b0391821692911685565b60408051951515865260208601949094526001600160a01b0392831693850193909352606084015216608082015260a001610151565b600180546104cb9061227c565b80601f01602080910402602001604051908101604052809291908181526020018280546104f79061227c565b80156105445780601f1061051957610100808354040283529160200191610544565b820191906000526020600020905b81548152906001019060200180831161052757829003601f168201915b505050505081565b33600081815260076020526040808220805490839055905190929183156108fc02918491818181858888f1935050505015801561058d573d6000803e3d6000fd5b50604051818152339030907fa96f45c7f021e61b3f486703c7db5ff1987ae3e6c1612b7085a0ded0270e96799060200160405180910390a350565b6000828152600660209081526040918290208251608081018452815460ff161515815260018201549281019290925260028101546001600160a01b0316928201929092526003909101546060820181905261066a5760405162461bcd60e51b815260206004820152601760248201527f4269642076616c7565206d757374206e6f74206265203000000000000000000060448201526064015b60405180910390fd5b81816060015110156106d35760405162461bcd60e51b815260206004820152602c60248201527f4269642076616c7565206d7573742062652067726561746572206f722065717560448201526b616c206d696e20707269636560a01b6064820152608401610661565b6003546001600160a01b03166342842e0e338360400151866040518463ffffffff1660e01b8152600401610709939291906120cf565b600060405180830381600087803b15801561072357600080fd5b505af1158015610737573d6000803e3d6000fd5b505050506040518060a0016040528060001515815260200184815260200182604001516001600160a01b031681526020016000815260200160006001600160a01b03168152506005600085815260200190815260200160002060008201518160000160006101000a81548160ff0219169083151502179055506020820151816001015560408201518160020160006101000a8154816001600160a01b0302191690836001600160a01b031602179055506060820151816003015560808201518160040160006101000a8154816001600160a01b0302191690836001600160a01b03160217905550905050600081606001519050604051806080016040528060001515815260200185815260200160006001600160a01b0316815260200160008152506006600086815260200190815260200160002060008201518160000160006101000a81548160ff0219169083151502179055506020820151816001015560408201518160020160006101000a8154816001600160a01b0302191690836001600160a01b031602179055506060820151816003015590505080600760006108dc3390565b6001600160a01b03166001600160a01b03168152602001908152602001600020600082825461090b9190612264565b909155505060408201516001600160a01b0316336001600160a01b0316857f23bd6a7d776cc01b293e9573ef30f3328402c0477c502ed84c8f0ba1dcc094f6856060015160405161095e91815260200190565b60405180910390a450505050565b600034116109b15760405162461bcd60e51b8152602060048201526012602482015271056616c75652063616e206e6f7420626520360741b6044820152606401610661565b6003546040516331a9108f60e11b8152600481018390526000916001600160a01b031690636352211e9060240160206040518083038186803b1580156109f657600080fd5b505afa158015610a0a573d6000803e3d6000fd5b505050506040513d601f19601f82011682018060405250810190610a2e9190611fb4565b9050336001600160a01b0382161415610a7d5760405162461bcd60e51b815260206004820152601160248201527013dddb995c8818d85b881b9bdd08189a59607a1b6044820152606401610661565b6000828152600660209081526040918290208251608081018452815460ff161515815260018201549281019290925260028101546001600160a01b031692820192909252600390910154606082018190523411610b2f5760405162461bcd60e51b815260206004820152602a60248201527f56616c7565206d7573742062652067726561746572207468616e2074686520686044820152691a59da195cdd08189a5960b21b6064820152608401610661565b606081015115610b705760608101516040808301516001600160a01b0316600090815260076020529081208054909190610b6a908490612264565b90915550505b604080516080810182526001808252602080830187815233848601908152346060860181815260008b8152600686528890209651875460ff1916901515178755925194860194909455516002850180546001600160a01b0319166001600160a01b03909216919091179055516003909301929092558251908152915185927f6c7774aa65846ab41024d9d3bf54d81c4949b1e05db79af29ac41c752817ab1692908290030190a2505050565b60008181526005602052604090205460ff1615610c3c57610c3c81611e78565b610c826040518060400160405280601881526020017f7472616e736665725370616365203a20257320746f2025730000000000000000815250610c7c3390565b84611f2e565b6003546001600160a01b03166342842e0e3384846040518463ffffffff1660e01b8152600401610cb4939291906120cf565b600060405180830381600087803b158015610cce57600080fd5b505af1158015610ce2573d6000803e3d6000fd5b50505050816001600160a01b0316610cf73390565b6001600160a01b03167f93637f65711d87b65eab15bd147a75be2ff4d04b41aaf70e10b062851190a39983604051610d3191815260200190565b60405180910390a36000818152600660209081526040918290208251608081018452815460ff161515815260018201549281019290925260028101546001600160a01b03908116938301849052600390910154606083015290919084161415610e375760608101516001600160a01b03841660009081526007602052604081208054909190610dc1908490612264565b90915550506040805160808101825260008082526020808301868152838501838152606085018481528885526006909352949092209251835460ff19169015151783559051600183015591516002820180546001600160a01b0319166001600160a01b0390921691909117905590516003909101555b505050565b6003546040516331a9108f60e11b8152600481018390526000916001600160a01b031690636352211e9060240160206040518083038186803b158015610e8157600080fd5b505afa158015610e95573d6000803e3d6000fd5b505050506040513d601f19601f82011682018060405250810190610eb99190611fb4565b9050610ecd6000546001600160a01b031690565b6001600160a01b0316816001600160a01b031614610f1e5760405162461bcd60e51b815260206004820152600e60248201526d4e6f74206672656520737061636560901b6044820152606401610661565b610f596040518060400160405280601281526020017167657453706163653a20257320746f20257360701b81525082610f543390565b611f2e565b6003546001600160a01b03166342842e0e8233856040518463ffffffff1660e01b8152600401610f8b939291906120cf565b600060405180830381600087803b158015610fa557600080fd5b505af1158015610fb9573d6000803e3d6000fd5b50505050610fc43390565b6001600160a01b03167f8a0e37b73a0d9c82e205d4d1a3ff3d0b57ce5f4d7bccf6bac03336dc101cb7ba83604051610ffe91815260200190565b60405180910390a25050565b60606000600360009054906101000a90046001600160a01b03166001600160a01b03166318160ddd6040518163ffffffff1660e01b815260040160206040518083038186803b15801561105c57600080fd5b505afa158015611070573d6000803e3d6000fd5b505050506040513d601f19601f820116820180604052508101906110949190612013565b905060008167ffffffffffffffff8111156110bf57634e487b7160e01b600052604160045260246000fd5b60405190808252806020026020018201604052801561111157816020015b6040805160808101825260008082526020808301829052928201819052606082015282526000199092019101816110dd5790505b50905060005b828110156111ae576000818152600660209081526040918290208251608081018452815460ff161515815260018201549281019290925260028101546001600160a01b0316928201929092526003909101546060820152825183908390811061119057634e487b7160e01b600052603260045260246000fd5b602002602001018190525080806111a6906122b7565b915050611117565b5092915050565b6040805160a0810182526001808252602080830187815233848601908152606085018881526001600160a01b038881166080880181815260008d8152600588528a90209851895460ff191690151517895594519688019690965591516002870180546001600160a01b031990811692851692909217905590516003870155915160049095018054909216941693909317909255915184815285917fc7745c5ed59fb6521d8052f28bbbedc81ff4bdbe6860459067975d37eb4f9d4d910160405180910390a3505050565b60606000600360009054906101000a90046001600160a01b03166001600160a01b03166318160ddd6040518163ffffffff1660e01b815260040160206040518083038186803b1580156112d157600080fd5b505afa1580156112e5573d6000803e3d6000fd5b505050506040513d601f19601f820116820180604052508101906113099190612013565b905060008167ffffffffffffffff81111561133457634e487b7160e01b600052604160045260246000fd5b60405190808252806020026020018201604052801561135d578160200160208202803683370190505b50905060005b828110156111ae576003546040516331a9108f60e11b8152600481018390526001600160a01b0390911690636352211e9060240160206040518083038186803b1580156113af57600080fd5b505afa1580156113c3573d6000803e3d6000fd5b505050506040513d601f19601f820116820180604052508101906113e79190611fb4565b82828151811061140757634e487b7160e01b600052603260045260246000fd5b6001600160a01b039092166020928302919091019091015280611429816122b7565b915050611363565b600280546104cb9061227c565b6000818152600660209081526040918290208251608081018452815460ff161515815260018201549281019290925260028101546001600160a01b03169282018390526003015460608201529033146114d25760405162461bcd60e51b81526020600482015260166024820152752cb7ba9030b932903737ba103a3432903134b23232b960511b6044820152606401610661565b6003546040516331a9108f60e11b8152600481018490526000916001600160a01b031690636352211e9060240160206040518083038186803b15801561151757600080fd5b505afa15801561152b573d6000803e3d6000fd5b505050506040513d601f19601f8201168201806040525081019061154f9190611fb4565b9050336001600160a01b038216141561159e5760405162461bcd60e51b815260206004820152601160248201527013dddb995c8818d85b881b9bdd08189a59607a1b6044820152606401610661565b60608281015160408051608081018252600080825260208083018981528385018381529684018381528a845260069092528483209351845460ff191690151517845551600184015594516002830180546001600160a01b0319166001600160a01b03909216919091179055935160039091015551909133916108fc84150291849190818181858888f1935050505015801561163d573d6000803e3d6000fd5b50837fb03733b7bfa62b05d6586f75b62255477eb894cb5cae3d6ba2c887050f284ca4846060015160405161167491815260200190565b60405180910390a2604051818152339030907fa96f45c7f021e61b3f486703c7db5ff1987ae3e6c1612b7085a0ded0270e96799060200160405180910390a350505050565b600081815260056020908152604091829020825160a081018452815460ff16151580825260018301549382019390935260028201546001600160a01b039081169482019490945260038201546060820152600490910154909216608083015261175c5760405162461bcd60e51b81526020600482015260156024820152745370616365206973206e6f7420666f722073616c6560581b6044820152606401610661565b60808101516001600160a01b03161580611782575060808101516001600160a01b031633145b6117d85760405162461bcd60e51b815260206004820152602160248201527f546869732073706163652063616e206e6f7420626520736f6c6420746f20796f6044820152607560f81b6064820152608401610661565b806060015134101561182c5760405162461bcd60e51b815260206004820181905260248201527f596f75206d75737420627579206d6f7265207468616e206d696e2076616c75656044820152606401610661565b6003546040516331a9108f60e11b8152600481018490526000916001600160a01b031690636352211e9060240160206040518083038186803b15801561187157600080fd5b505afa158015611885573d6000803e3d6000fd5b505050506040513d601f19601f820116820180604052508101906118a99190611fb4565b9050806001600160a01b031682604001516001600160a01b0316146119105760405162461bcd60e51b815260206004820152601f60248201527f53656c6c6572206e6f206c6f6e676572206f776e6572206f66207370616365006044820152606401610661565b6003546001600160a01b03166342842e0e8233866040518463ffffffff1660e01b8152600401611942939291906120cf565b600060405180830381600087803b15801561195c57600080fd5b505af1158015611970573d6000803e3d6000fd5b5050505061197d83611e78565b6001600160a01b038116600090815260076020526040812080543492906119a5908490612264565b909155505060405134815233906001600160a01b0383169085907f23bd6a7d776cc01b293e9573ef30f3328402c0477c502ed84c8f0ba1dcc094f69060200160405180910390a46000838152600660209081526040918290208251608081018452815460ff161515815260018201549281019290925260028101546001600160a01b031692820183905260030154606082015290331415611ada5760608101513360009081526007602052604081208054909190611a64908490612264565b90915550506040805160808101825260008082526020808301888152838501838152606085018481528a85526006909352949092209251835460ff19169015151783559051600183015591516002820180546001600160a01b0319166001600160a01b0390921691909117905590516003909101555b50505050565b60606000600360009054906101000a90046001600160a01b03166001600160a01b03166318160ddd6040518163ffffffff1660e01b815260040160206040518083038186803b158015611b3257600080fd5b505afa158015611b46573d6000803e3d6000fd5b505050506040513d601f19601f82011682018060405250810190611b6a9190612013565b905060008167ffffffffffffffff811115611b9557634e487b7160e01b600052604160045260246000fd5b604051908082528060200260200182016040528015611bee57816020015b6040805160a081018252600080825260208083018290529282018190526060820181905260808201528252600019909201910181611bb35790505b50905060005b828110156111ae57600081815260056020908152604091829020825160a081018452815460ff161515815260018201549281019290925260028101546001600160a01b0390811693830193909352600381015460608301526004015490911660808201528251839083908110611c7a57634e487b7160e01b600052603260045260246000fd5b60200260200101819052508080611c90906122b7565b915050611bf4565b6040805160a0810182526001808252602080830186815233848601908152606085018781526000608087018181528a8252600586528882209751885460ff191690151517885593519587019590955590516002860180546001600160a01b03199081166001600160a01b0393841617909155915160038701559151600490950180549091169490911693909317909255915183815284917fc7745c5ed59fb6521d8052f28bbbedc81ff4bdbe6860459067975d37eb4f9d4d910160405180910390a35050565b6000546001600160a01b03163314611db85760405162461bcd60e51b815260206004820181905260248201527f4f776e61626c653a2063616c6c6572206973206e6f7420746865206f776e65726044820152606401610661565b6001600160a01b038116611e1d5760405162461bcd60e51b815260206004820152602660248201527f4f776e61626c653a206e6577206f776e657220697320746865207a65726f206160448201526564647265737360d01b6064820152608401610661565b600080546040516001600160a01b03808516939216917f8be0079c531659141344cd1fd0a4f28419497f9722a3daafe3b4186f6b6457e091a3600080546001600160a01b0319166001600160a01b0392909216919091179055565b6040805160a0810182526000808252602080830185815233848601908152606085018481526080860185815288865260059094528685209551865460ff191690151517865591516001860155516002850180546001600160a01b03199081166001600160a01b0393841617909155915160038601559151600490940180549091169390911692909217909155905182917fffac6398132e5a7ffa281256055095adef949befe9b41a15f260a723ac3bcc4591a250565b610e37838383604051602401611f4693929190612231565b60408051601f198184030181529190526020810180516001600160e01b03166307e763af60e51b17905280516a636f6e736f6c652e6c6f67602083016000808483855afa5050505050565b600060208284031215611fa2578081fd5b8135611fad816122e8565b9392505050565b600060208284031215611fc5578081fd5b8151611fad816122e8565b60008060408385031215611fe2578081fd5b8235611fed816122e8565b946020939093013593505050565b60006020828403121561200c578081fd5b5035919050565b600060208284031215612024578081fd5b5051919050565b6000806040838503121561203d578182fd5b50508035926020909101359150565b600080600060608486031215612060578081fd5b83359250602084013591506040840135612079816122e8565b809150509250925092565b60008151808452815b818110156120a95760208185018101518683018201520161208d565b818111156120ba5782602083870101525b50601f01601f19169290920160200192915050565b6001600160a01b039384168152919092166020820152604081019190915260600190565b6020808252825182820181905260009190848201906040850190845b818110156121345783516001600160a01b03168352928401929184019160010161210f565b50909695505050505050565b602080825282518282018190526000919060409081850190868401855b828110156121a25781518051151585528681015187860152858101516001600160a01b031686860152606090810151908501526080909301929085019060010161215d565b5091979650505050505050565b602080825282518282018190526000919060409081850190868401855b828110156121a25781518051151585528681015187860152858101516001600160a01b039081168787015260608083015190870152608091820151169085015260a090930192908501906001016121cc565b602081526000611fad6020830184612084565b6060815260006122446060830186612084565b6001600160a01b0394851660208401529290931660409091015292915050565b60008219821115612277576122776122d2565b500190565b600181811c9082168061229057607f821691505b602082108114156122b157634e487b7160e01b600052602260045260246000fd5b50919050565b60006000198214156122cb576122cb6122d2565b5060010190565b634e487b7160e01b600052601160045260246000fd5b6001600160a01b03811681146122fd57600080fd5b5056fea26469706673582212204a8de5b0d9c879e1ee50685229974d1ccc77ed7c9b54364eca8f80c060c656f764736f6c63430008040033",
  "linkReferences": {},
  "deployedLinkReferences": {}
}