{
  "_format": "hh-sol-artifact-1",
  "contractName": "NapaCryptoSpaceMarket",
  "sourceName": "contracts/NapaCryptoSpaceMarket.sol",
  "abi": [
    {
      "inputs": [],
      "stateMutability": "nonpayable",
      "type": "constructor"
    },
    {
      "anonymous": false,
      "inputs": [
        {
          "indexed": true,
          "internalType": "address",
          "name": "to",
          "type": "address"
        },
        {
          "indexed": false,
          "internalType": "uint256",
          "name": "spaceIndex",
          "type": "uint256"
        }
      ],
      "name": "Assign",
      "type": "event"
    },
    {
      "anonymous": false,
      "inputs": [
        {
          "indexed": true,
          "internalType": "address",
          "name": "from",
          "type": "address"
        },
        {
          "indexed": true,
          "internalType": "address",
          "name": "to",
          "type": "address"
        },
        {
          "indexed": false,
          "internalType": "uint256",
          "name": "value",
          "type": "uint256"
        }
      ],
      "name": "ETHTransfer",
      "type": "event"
    },
    {
      "anonymous": false,
      "inputs": [
        {
          "indexed": true,
          "internalType": "address",
          "name": "previousOwner",
          "type": "address"
        },
        {
          "indexed": true,
          "internalType": "address",
          "name": "newOwner",
          "type": "address"
        }
      ],
      "name": "OwnershipTransferred",
      "type": "event"
    },
    {
      "anonymous": false,
      "inputs": [
        {
          "indexed": true,
          "internalType": "uint256",
          "name": "spaceIndex",
          "type": "uint256"
        },
        {
          "indexed": false,
          "internalType": "uint256",
          "name": "value",
          "type": "uint256"
        }
      ],
      "name": "SpaceBidEntered",
      "type": "event"
    },
    {
      "anonymous": false,
      "inputs": [
        {
          "indexed": true,
          "internalType": "uint256",
          "name": "spaceIndex",
          "type": "uint256"
        },
        {
          "indexed": false,
          "internalType": "uint256",
          "name": "value",
          "type": "uint256"
        }
      ],
      "name": "SpaceBidWithdrawn",
      "type": "event"
    },
    {
      "anonymous": false,
      "inputs": [
        {
          "indexed": true,
          "internalType": "uint256",
          "name": "spaceIndex",
          "type": "uint256"
        },
        {
          "indexed": false,
          "internalType": "uint256",
          "name": "value",
          "type": "uint256"
        },
        {
          "indexed": true,
          "internalType": "address",
          "name": "fromAddress",
          "type": "address"
        },
        {
          "indexed": true,
          "internalType": "address",
          "name": "toAddress",
          "type": "address"
        }
      ],
      "name": "SpaceBought",
      "type": "event"
    },
    {
      "anonymous": false,
      "inputs": [
        {
          "indexed": true,
          "internalType": "uint256",
          "name": "spaceIndex",
          "type": "uint256"
        }
      ],
      "name": "SpaceNoLongerForSale",
      "type": "event"
    },
    {
      "anonymous": false,
      "inputs": [
        {
          "indexed": true,
          "internalType": "uint256",
          "name": "spaceIndex",
          "type": "uint256"
        },
        {
          "indexed": false,
          "internalType": "uint256",
          "name": "minValue",
          "type": "uint256"
        },
        {
          "indexed": true,
          "internalType": "address",
          "name": "toAddress",
          "type": "address"
        }
      ],
      "name": "SpaceOffered",
      "type": "event"
    },
    {
      "anonymous": false,
      "inputs": [
        {
          "indexed": true,
          "internalType": "address",
          "name": "from",
          "type": "address"
        },
        {
          "indexed": true,
          "internalType": "address",
          "name": "to",
          "type": "address"
        },
        {
          "indexed": false,
          "internalType": "uint256",
          "name": "spaceIndex",
          "type": "uint256"
        }
      ],
      "name": "SpaceTransfer",
      "type": "event"
    },
    {
      "inputs": [
        {
          "internalType": "uint256",
          "name": "spaceIndex",
          "type": "uint256"
        },
        {
          "internalType": "uint256",
          "name": "minPrice",
          "type": "uint256"
        }
      ],
      "name": "acceptBidForSpace",
      "outputs": [],
      "stateMutability": "nonpayable",
      "type": "function"
    },
    {
      "inputs": [
        {
          "internalType": "address",
          "name": "",
          "type": "address"
        }
      ],
      "name": "balanceOf",
      "outputs": [
        {
          "internalType": "uint256",
          "name": "",
          "type": "uint256"
        }
      ],
      "stateMutability": "view",
      "type": "function"
    },
    {
      "inputs": [
        {
          "internalType": "uint256",
          "name": "spaceIndex",
          "type": "uint256"
        }
      ],
      "name": "buySpace",
      "outputs": [],
      "stateMutability": "payable",
      "type": "function"
    },
    {
      "inputs": [],
      "name": "decimals",
      "outputs": [
        {
          "internalType": "uint8",
          "name": "",
          "type": "uint8"
        }
      ],
      "stateMutability": "view",
      "type": "function"
    },
    {
      "inputs": [
        {
          "internalType": "uint256",
          "name": "spaceIndex",
          "type": "uint256"
        }
      ],
      "name": "enterBidForSpace",
      "outputs": [],
      "stateMutability": "payable",
      "type": "function"
    },
    {
      "inputs": [
        {
          "internalType": "uint256",
          "name": "spaceIndex",
          "type": "uint256"
        }
      ],
      "name": "getSpace",
      "outputs": [],
      "stateMutability": "nonpayable",
      "type": "function"
    },
    {
      "inputs": [],
      "name": "name",
      "outputs": [
        {
          "internalType": "string",
          "name": "",
          "type": "string"
        }
      ],
      "stateMutability": "view",
      "type": "function"
    },
    {
      "inputs": [
        {
          "internalType": "uint256",
          "name": "spaceIndex",
          "type": "uint256"
        },
        {
          "internalType": "uint256",
          "name": "minSalePriceInWei",
          "type": "uint256"
        }
      ],
      "name": "offerSpaceForSale",
      "outputs": [],
      "stateMutability": "nonpayable",
      "type": "function"
    },
    {
      "inputs": [
        {
          "internalType": "uint256",
          "name": "spaceIndex",
          "type": "uint256"
        },
        {
          "internalType": "uint256",
          "name": "minSalePriceInWei",
          "type": "uint256"
        },
        {
          "internalType": "address",
          "name": "toAddress",
          "type": "address"
        }
      ],
      "name": "offerSpaceForSaleToAddress",
      "outputs": [],
      "stateMutability": "nonpayable",
      "type": "function"
    },
    {
      "inputs": [],
      "name": "owner",
      "outputs": [
        {
          "internalType": "address",
          "name": "",
          "type": "address"
        }
      ],
      "stateMutability": "view",
      "type": "function"
    },
    {
      "inputs": [
        {
          "internalType": "address",
          "name": "",
          "type": "address"
        }
      ],
      "name": "pendingWithdrawals",
      "outputs": [
        {
          "internalType": "uint256",
          "name": "",
          "type": "uint256"
        }
      ],
      "stateMutability": "view",
      "type": "function"
    },
    {
      "inputs": [],
      "name": "renounceOwnership",
      "outputs": [],
      "stateMutability": "nonpayable",
      "type": "function"
    },
    {
      "inputs": [
        {
          "internalType": "address",
          "name": "to",
          "type": "address"
        },
        {
          "internalType": "uint256",
          "name": "spaceIndex",
          "type": "uint256"
        }
      ],
      "name": "setInitialOwner",
      "outputs": [],
      "stateMutability": "nonpayable",
      "type": "function"
    },
    {
      "inputs": [
        {
          "internalType": "address[]",
          "name": "addresses",
          "type": "address[]"
        },
        {
          "internalType": "uint256[]",
          "name": "indices",
          "type": "uint256[]"
        }
      ],
      "name": "setInitialOwners",
      "outputs": [],
      "stateMutability": "nonpayable",
      "type": "function"
    },
    {
      "inputs": [
        {
          "internalType": "uint256",
          "name": "",
          "type": "uint256"
        }
      ],
      "name": "spaceBids",
      "outputs": [
        {
          "internalType": "bool",
          "name": "hasBid",
          "type": "bool"
        },
        {
          "internalType": "uint256",
          "name": "spaceIndex",
          "type": "uint256"
        },
        {
          "internalType": "address",
          "name": "bidder",
          "type": "address"
        },
        {
          "internalType": "uint256",
          "name": "value",
          "type": "uint256"
        }
      ],
      "stateMutability": "view",
      "type": "function"
    },
    {
      "inputs": [
        {
          "internalType": "uint256",
          "name": "",
          "type": "uint256"
        }
      ],
      "name": "spaceIndexToAddress",
      "outputs": [
        {
          "internalType": "address",
          "name": "",
          "type": "address"
        }
      ],
      "stateMutability": "view",
      "type": "function"
    },
    {
      "inputs": [
        {
          "internalType": "uint256",
          "name": "",
          "type": "uint256"
        }
      ],
      "name": "spacesOfferedForSale",
      "outputs": [
        {
          "internalType": "bool",
          "name": "isForSale",
          "type": "bool"
        },
        {
          "internalType": "uint256",
          "name": "spaceIndex",
          "type": "uint256"
        },
        {
          "internalType": "address",
          "name": "seller",
          "type": "address"
        },
        {
          "internalType": "uint256",
          "name": "minValue",
          "type": "uint256"
        },
        {
          "internalType": "address",
          "name": "onlySellTo",
          "type": "address"
        }
      ],
      "stateMutability": "view",
      "type": "function"
    },
    {
      "inputs": [],
      "name": "spacesRemainingToAssign",
      "outputs": [
        {
          "internalType": "uint256",
          "name": "",
          "type": "uint256"
        }
      ],
      "stateMutability": "view",
      "type": "function"
    },
    {
      "inputs": [],
      "name": "symbol",
      "outputs": [
        {
          "internalType": "string",
          "name": "",
          "type": "string"
        }
      ],
      "stateMutability": "view",
      "type": "function"
    },
    {
      "inputs": [
        {
          "internalType": "address",
          "name": "newOwner",
          "type": "address"
        }
      ],
      "name": "transferOwnership",
      "outputs": [],
      "stateMutability": "nonpayable",
      "type": "function"
    },
    {
      "inputs": [
        {
          "internalType": "address",
          "name": "to",
          "type": "address"
        },
        {
          "internalType": "uint256",
          "name": "spaceIndex",
          "type": "uint256"
        }
      ],
      "name": "transferSpace",
      "outputs": [],
      "stateMutability": "nonpayable",
      "type": "function"
    },
    {
      "inputs": [],
      "name": "withdraw",
      "outputs": [],
      "stateMutability": "nonpayable",
      "type": "function"
    },
    {
      "inputs": [
        {
          "internalType": "uint256",
          "name": "spaceIndex",
          "type": "uint256"
        }
      ],
      "name": "withdrawBidForSpace",
      "outputs": [],
      "stateMutability": "nonpayable",
      "type": "function"
    }
  ],
  "bytecode": "0x608060405261271060045560006005553480156200001c57600080fd5b5060006200002f6200019460201b60201c565b9050806000806101000a81548173ffffffffffffffffffffffffffffffffffffffff021916908373ffffffffffffffffffffffffffffffffffffffff1602179055508073ffffffffffffffffffffffffffffffffffffffff16600073ffffffffffffffffffffffffffffffffffffffff167f8be0079c531659141344cd1fd0a4f28419497f9722a3daafe3b4186f6b6457e060405160405180910390a3506004546005819055506040518060400160405280600b81526020017f43525950544f535041434500000000000000000000000000000000000000000081525060019080519060200190620001239291906200019c565b506040518060400160405280600381526020017f4e4353000000000000000000000000000000000000000000000000000000000081525060029080519060200190620001719291906200019c565b506000600360006101000a81548160ff021916908360ff160217905550620002b1565b600033905090565b828054620001aa906200024c565b90600052602060002090601f016020900481019282620001ce57600085556200021a565b82601f10620001e957805160ff19168380011785556200021a565b828001600101855582156200021a579182015b8281111562000219578251825591602001919060010190620001fc565b5b5090506200022991906200022d565b5090565b5b80821115620002485760008160009055506001016200022e565b5090565b600060028204905060018216806200026557607f821691505b602082108114156200027c576200027b62000282565b5b50919050565b7f4e487b7100000000000000000000000000000000000000000000000000000000600052602260045260246000fd5b6144b580620002c16000396000f3fe6080604052600436106101405760003560e01c80637fa4f1d9116100b6578063a797de941161006f578063a797de94146103f3578063da99c4201461041e578063de80318d1461045b578063f2fde38b14610484578063f3f43703146104ad578063ff7bdc0a146104ea57610140565b80637fa4f1d9146103065780638da5cb5b1461032f57806395d89b411461035a578063994f42eb146103855780639bd1332e146103ae578063a75a9049146103ca57610140565b806354e39e881161010857806354e39e881461021b5780635b795c7c146102445780636178e8d11461026057806370a082311461028957806370e10431146102c6578063715018a6146102ef57610140565b806306fdde0314610145578063313ce5671461017057806339c5dde61461019b5780633ccfd60b146101c457806351d28bdb146101db575b600080fd5b34801561015157600080fd5b5061015a61052b565b6040516101679190613b2e565b60405180910390f35b34801561017c57600080fd5b506101856105b9565b6040516101929190613dab565b60405180910390f35b3480156101a757600080fd5b506101c260048036038101906101bd9190613670565b6105cc565b005b3480156101d057600080fd5b506101d96106fc565b005b3480156101e757600080fd5b5061020260048036038101906101fd91906136dc565b610850565b6040516102129493929190613a96565b60405180910390f35b34801561022757600080fd5b50610242600480360381019061023d9190613705565b6108ad565b005b61025e600480360381019061025991906136dc565b610eb8565b005b34801561026c57600080fd5b5061028760048036038101906102829190613634565b6112f7565b005b34801561029557600080fd5b506102b060048036038101906102ab919061360b565b611795565b6040516102bd9190613d90565b60405180910390f35b3480156102d257600080fd5b506102ed60048036038101906102e891906136dc565b6117ad565b005b3480156102fb57600080fd5b50610304611a02565b005b34801561031257600080fd5b5061032d60048036038101906103289190613741565b611b3c565b005b34801561033b57600080fd5b50610344611db5565b6040516103519190613a7b565b60405180910390f35b34801561036657600080fd5b5061036f611dde565b60405161037c9190613b2e565b60405180910390f35b34801561039157600080fd5b506103ac60048036038101906103a791906136dc565b611e6c565b005b6103c860048036038101906103c391906136dc565b6122f1565b005b3480156103d657600080fd5b506103f160048036038101906103ec9190613634565b612a12565b005b3480156103ff57600080fd5b50610408612d5f565b6040516104159190613d90565b60405180910390f35b34801561042a57600080fd5b50610445600480360381019061044091906136dc565b612d65565b6040516104529190613a7b565b60405180910390f35b34801561046757600080fd5b50610482600480360381019061047d9190613705565b612d98565b005b34801561049057600080fd5b506104ab60048036038101906104a6919061360b565b613012565b005b3480156104b957600080fd5b506104d460048036038101906104cf919061360b565b6131bb565b6040516104e19190613d90565b60405180910390f35b3480156104f657600080fd5b50610511600480360381019061050c91906136dc565b6131d3565b604051610522959493929190613adb565b60405180910390f35b6001805461053890613f67565b80601f016020809104026020016040519081016040528092919081815260200182805461056490613f67565b80156105b15780601f10610586576101008083540402835291602001916105b1565b820191906000526020600020905b81548152906001019060200180831161059457829003601f168201915b505050505081565b600360009054906101000a900460ff1681565b6105d4613256565b73ffffffffffffffffffffffffffffffffffffffff166105f2611db5565b73ffffffffffffffffffffffffffffffffffffffff1614610648576040517f08c379a000000000000000000000000000000000000000000000000000000000815260040161063f90613c90565b60405180910390fd5b60008251905060005b818110156106f6576106e3848281518110610695577f4e487b7100000000000000000000000000000000000000000000000000000000600052603260045260246000fd5b60200260200101518483815181106106d6577f4e487b7100000000000000000000000000000000000000000000000000000000600052603260045260246000fd5b6020026020010151612a12565b80806106ee90613fca565b915050610651565b50505050565b6000600a600061070a613256565b73ffffffffffffffffffffffffffffffffffffffff1673ffffffffffffffffffffffffffffffffffffffff1681526020019081526020016000205490506000600a6000610755613256565b73ffffffffffffffffffffffffffffffffffffffff1673ffffffffffffffffffffffffffffffffffffffff1681526020019081526020016000208190555061079b613256565b73ffffffffffffffffffffffffffffffffffffffff166108fc829081150290604051600060405180830381858888f193505050501580156107e0573d6000803e3d6000fd5b506107e9613256565b73ffffffffffffffffffffffffffffffffffffffff163073ffffffffffffffffffffffffffffffffffffffff167fa96f45c7f021e61b3f486703c7db5ff1987ae3e6c1612b7085a0ded0270e9679836040516108459190613d90565b60405180910390a350565b60096020528060005260406000206000915090508060000160009054906101000a900460ff16908060010154908060020160009054906101000a900473ffffffffffffffffffffffffffffffffffffffff16908060030154905084565b8160045481106108f2576040517f08c379a00000000000000000000000000000000000000000000000000000000081526004016108e990613c50565b60405180910390fd5b826108fb613256565b73ffffffffffffffffffffffffffffffffffffffff166006600083815260200190815260200160002060009054906101000a900473ffffffffffffffffffffffffffffffffffffffff1673ffffffffffffffffffffffffffffffffffffffff161461099b576040517f08c379a000000000000000000000000000000000000000000000000000000000815260040161099290613d50565b60405180910390fd5b60006109a5613256565b90506000600960008781526020019081526020016000206040518060800160405290816000820160009054906101000a900460ff16151515158152602001600182015481526020016002820160009054906101000a900473ffffffffffffffffffffffffffffffffffffffff1673ffffffffffffffffffffffffffffffffffffffff1673ffffffffffffffffffffffffffffffffffffffff1681526020016003820154815250509050600081606001511415610a96576040517f08c379a0000000000000000000000000000000000000000000000000000000008152600401610a8d90613c30565b60405180910390fd5b8481606001511015610add576040517f08c379a0000000000000000000000000000000000000000000000000000000008152600401610ad490613cb0565b60405180910390fd5b80604001516006600088815260200190815260200160002060006101000a81548173ffffffffffffffffffffffffffffffffffffffff021916908373ffffffffffffffffffffffffffffffffffffffff160217905550600760008373ffffffffffffffffffffffffffffffffffffffff1673ffffffffffffffffffffffffffffffffffffffff1681526020019081526020016000206000815480929190610b8390613f3d565b919050555060076000826040015173ffffffffffffffffffffffffffffffffffffffff1673ffffffffffffffffffffffffffffffffffffffff1681526020019081526020016000206000815480929190610bdc90613fca565b91905055506040518060a00160405280600015158152602001878152602001826040015173ffffffffffffffffffffffffffffffffffffffff16815260200160008152602001600073ffffffffffffffffffffffffffffffffffffffff168152506008600088815260200190815260200160002060008201518160000160006101000a81548160ff0219169083151502179055506020820151816001015560408201518160020160006101000a81548173ffffffffffffffffffffffffffffffffffffffff021916908373ffffffffffffffffffffffffffffffffffffffff1602179055506060820151816003015560808201518160040160006101000a81548173ffffffffffffffffffffffffffffffffffffffff021916908373ffffffffffffffffffffffffffffffffffffffff1602179055509050506000816060015190506040518060800160405280600015158152602001888152602001600073ffffffffffffffffffffffffffffffffffffffff16815260200160008152506009600089815260200190815260200160002060008201518160000160006101000a81548160ff0219169083151502179055506020820151816001015560408201518160020160006101000a81548173ffffffffffffffffffffffffffffffffffffffff021916908373ffffffffffffffffffffffffffffffffffffffff1602179055506060820151816003015590505080600a60008573ffffffffffffffffffffffffffffffffffffffff1673ffffffffffffffffffffffffffffffffffffffff1681526020019081526020016000206000828254610e3a9190613e5f565b92505081905550816040015173ffffffffffffffffffffffffffffffffffffffff168373ffffffffffffffffffffffffffffffffffffffff16887f23bd6a7d776cc01b293e9573ef30f3328402c0477c502ed84c8f0ba1dcc094f68560600151604051610ea79190613d90565b60405180910390a450505050505050565b806004548110610efd576040517f08c379a0000000000000000000000000000000000000000000000000000000008152600401610ef490613c50565b60405180910390fd5b81600073ffffffffffffffffffffffffffffffffffffffff166006600083815260200190815260200160002060009054906101000a900473ffffffffffffffffffffffffffffffffffffffff1673ffffffffffffffffffffffffffffffffffffffff161415610fa1576040517f08c379a0000000000000000000000000000000000000000000000000000000008152600401610f9890613cf0565b60405180910390fd5b610fa9613256565b73ffffffffffffffffffffffffffffffffffffffff166006600083815260200190815260200160002060009054906101000a900473ffffffffffffffffffffffffffffffffffffffff1673ffffffffffffffffffffffffffffffffffffffff16141561104a576040517f08c379a000000000000000000000000000000000000000000000000000000000815260040161104190613bf0565b60405180910390fd5b600034141561108e576040517f08c379a000000000000000000000000000000000000000000000000000000000815260040161108590613cd0565b60405180910390fd5b6000600960008581526020019081526020016000206040518060800160405290816000820160009054906101000a900460ff16151515158152602001600182015481526020016002820160009054906101000a900473ffffffffffffffffffffffffffffffffffffffff1673ffffffffffffffffffffffffffffffffffffffff1673ffffffffffffffffffffffffffffffffffffffff16815260200160038201548152505090508060600151341161117b576040517f08c379a000000000000000000000000000000000000000000000000000000000815260040161117290613b90565b60405180910390fd5b6000816060015111156111e7578060600151600a6000836040015173ffffffffffffffffffffffffffffffffffffffff1673ffffffffffffffffffffffffffffffffffffffff16815260200190815260200160002060008282546111df9190613e5f565b925050819055505b6040518060800160405280600115158152602001858152602001611209613256565b73ffffffffffffffffffffffffffffffffffffffff168152602001348152506009600086815260200190815260200160002060008201518160000160006101000a81548160ff0219169083151502179055506020820151816001015560408201518160020160006101000a81548173ffffffffffffffffffffffffffffffffffffffff021916908373ffffffffffffffffffffffffffffffffffffffff16021790555060608201518160030155905050837f6c7774aa65846ab41024d9d3bf54d81c4949b1e05db79af29ac41c752817ab16346040516112e99190613d90565b60405180910390a250505050565b80600454811061133c576040517f08c379a000000000000000000000000000000000000000000000000000000000815260040161133390613c50565b60405180910390fd5b81611345613256565b73ffffffffffffffffffffffffffffffffffffffff166006600083815260200190815260200160002060009054906101000a900473ffffffffffffffffffffffffffffffffffffffff1673ffffffffffffffffffffffffffffffffffffffff16146113e5576040517f08c379a00000000000000000000000000000000000000000000000000000000081526004016113dc90613d50565b60405180910390fd5b6008600084815260200190815260200160002060000160009054906101000a900460ff1615611418576114178361325e565b5b836006600085815260200190815260200160002060006101000a81548173ffffffffffffffffffffffffffffffffffffffff021916908373ffffffffffffffffffffffffffffffffffffffff16021790555060076000611476613256565b73ffffffffffffffffffffffffffffffffffffffff1673ffffffffffffffffffffffffffffffffffffffff16815260200190815260200160002060008154809291906114c190613f3d565b9190505550600760008573ffffffffffffffffffffffffffffffffffffffff1673ffffffffffffffffffffffffffffffffffffffff168152602001908152602001600020600081548092919061151690613fca565b91905055508373ffffffffffffffffffffffffffffffffffffffff1661153a613256565b73ffffffffffffffffffffffffffffffffffffffff167f93637f65711d87b65eab15bd147a75be2ff4d04b41aaf70e10b062851190a3998560405161157f9190613d90565b60405180910390a36000600960008581526020019081526020016000206040518060800160405290816000820160009054906101000a900460ff16151515158152602001600182015481526020016002820160009054906101000a900473ffffffffffffffffffffffffffffffffffffffff1673ffffffffffffffffffffffffffffffffffffffff1673ffffffffffffffffffffffffffffffffffffffff16815260200160038201548152505090508473ffffffffffffffffffffffffffffffffffffffff16816040015173ffffffffffffffffffffffffffffffffffffffff16141561178e578060600151600a60008773ffffffffffffffffffffffffffffffffffffffff1673ffffffffffffffffffffffffffffffffffffffff16815260200190815260200160002060008282546116b99190613e5f565b925050819055506040518060800160405280600015158152602001858152602001600073ffffffffffffffffffffffffffffffffffffffff16815260200160008152506009600086815260200190815260200160002060008201518160000160006101000a81548160ff0219169083151502179055506020820151816001015560408201518160020160006101000a81548173ffffffffffffffffffffffffffffffffffffffff021916908373ffffffffffffffffffffffffffffffffffffffff160217905550606082015181600301559050505b5050505050565b60076020528060005260406000206000915090505481565b8060045481106117f2576040517f08c379a00000000000000000000000000000000000000000000000000000000081526004016117e990613c50565b60405180910390fd5b8160006005541415611839576040517f08c379a000000000000000000000000000000000000000000000000000000000815260040161183090613c10565b60405180910390fd5b600073ffffffffffffffffffffffffffffffffffffffff166006600083815260200190815260200160002060009054906101000a900473ffffffffffffffffffffffffffffffffffffffff1673ffffffffffffffffffffffffffffffffffffffff16146118db576040517f08c379a00000000000000000000000000000000000000000000000000000000081526004016118d290613b50565b60405180910390fd5b6118e3613256565b6006600085815260200190815260200160002060006101000a81548173ffffffffffffffffffffffffffffffffffffffff021916908373ffffffffffffffffffffffffffffffffffffffff16021790555060076000611940613256565b73ffffffffffffffffffffffffffffffffffffffff1673ffffffffffffffffffffffffffffffffffffffff168152602001908152602001600020600081548092919061198b90613fca565b9190505550600560008154809291906119a390613f3d565b91905055506119b0613256565b73ffffffffffffffffffffffffffffffffffffffff167f8a0e37b73a0d9c82e205d4d1a3ff3d0b57ce5f4d7bccf6bac03336dc101cb7ba846040516119f59190613d90565b60405180910390a2505050565b611a0a613256565b73ffffffffffffffffffffffffffffffffffffffff16611a28611db5565b73ffffffffffffffffffffffffffffffffffffffff1614611a7e576040517f08c379a0000000000000000000000000000000000000000000000000000000008152600401611a7590613c90565b60405180910390fd5b600073ffffffffffffffffffffffffffffffffffffffff1660008054906101000a900473ffffffffffffffffffffffffffffffffffffffff1673ffffffffffffffffffffffffffffffffffffffff167f8be0079c531659141344cd1fd0a4f28419497f9722a3daafe3b4186f6b6457e060405160405180910390a360008060006101000a81548173ffffffffffffffffffffffffffffffffffffffff021916908373ffffffffffffffffffffffffffffffffffffffff160217905550565b826004548110611b81576040517f08c379a0000000000000000000000000000000000000000000000000000000008152600401611b7890613c50565b60405180910390fd5b83611b8a613256565b73ffffffffffffffffffffffffffffffffffffffff166006600083815260200190815260200160002060009054906101000a900473ffffffffffffffffffffffffffffffffffffffff1673ffffffffffffffffffffffffffffffffffffffff1614611c2a576040517f08c379a0000000000000000000000000000000000000000000000000000000008152600401611c2190613d50565b60405180910390fd5b6040518060a00160405280600115158152602001868152602001611c4c613256565b73ffffffffffffffffffffffffffffffffffffffff1681526020018581526020018473ffffffffffffffffffffffffffffffffffffffff168152506008600087815260200190815260200160002060008201518160000160006101000a81548160ff0219169083151502179055506020820151816001015560408201518160020160006101000a81548173ffffffffffffffffffffffffffffffffffffffff021916908373ffffffffffffffffffffffffffffffffffffffff1602179055506060820151816003015560808201518160040160006101000a81548173ffffffffffffffffffffffffffffffffffffffff021916908373ffffffffffffffffffffffffffffffffffffffff1602179055509050508273ffffffffffffffffffffffffffffffffffffffff16857fc7745c5ed59fb6521d8052f28bbbedc81ff4bdbe6860459067975d37eb4f9d4d86604051611da69190613d90565b60405180910390a35050505050565b60008060009054906101000a900473ffffffffffffffffffffffffffffffffffffffff16905090565b60028054611deb90613f67565b80601f0160208091040260200160405190810160405280929190818152602001828054611e1790613f67565b8015611e645780601f10611e3957610100808354040283529160200191611e64565b820191906000526020600020905b815481529060010190602001808311611e4757829003601f168201915b505050505081565b806004548110611eb1576040517f08c379a0000000000000000000000000000000000000000000000000000000008152600401611ea890613c50565b60405180910390fd5b81600073ffffffffffffffffffffffffffffffffffffffff166006600083815260200190815260200160002060009054906101000a900473ffffffffffffffffffffffffffffffffffffffff1673ffffffffffffffffffffffffffffffffffffffff161415611f55576040517f08c379a0000000000000000000000000000000000000000000000000000000008152600401611f4c90613cf0565b60405180910390fd5b611f5d613256565b73ffffffffffffffffffffffffffffffffffffffff166006600083815260200190815260200160002060009054906101000a900473ffffffffffffffffffffffffffffffffffffffff1673ffffffffffffffffffffffffffffffffffffffff161415611ffe576040517f08c379a0000000000000000000000000000000000000000000000000000000008152600401611ff590613bf0565b60405180910390fd5b6000600960008581526020019081526020016000206040518060800160405290816000820160009054906101000a900460ff16151515158152602001600182015481526020016002820160009054906101000a900473ffffffffffffffffffffffffffffffffffffffff1673ffffffffffffffffffffffffffffffffffffffff1673ffffffffffffffffffffffffffffffffffffffff16815260200160038201548152505090506120ad613256565b73ffffffffffffffffffffffffffffffffffffffff16816040015173ffffffffffffffffffffffffffffffffffffffff161461211e576040517f08c379a000000000000000000000000000000000000000000000000000000000815260040161211590613b70565b60405180910390fd5b837fb03733b7bfa62b05d6586f75b62255477eb894cb5cae3d6ba2c887050f284ca482606001516040516121529190613d90565b60405180910390a26000816060015190506040518060800160405280600015158152602001868152602001600073ffffffffffffffffffffffffffffffffffffffff16815260200160008152506009600087815260200190815260200160002060008201518160000160006101000a81548160ff0219169083151502179055506020820151816001015560408201518160020160006101000a81548173ffffffffffffffffffffffffffffffffffffffff021916908373ffffffffffffffffffffffffffffffffffffffff16021790555060608201518160030155905050612238613256565b73ffffffffffffffffffffffffffffffffffffffff166108fc829081150290604051600060405180830381858888f1935050505015801561227d573d6000803e3d6000fd5b50612286613256565b73ffffffffffffffffffffffffffffffffffffffff163073ffffffffffffffffffffffffffffffffffffffff167fa96f45c7f021e61b3f486703c7db5ff1987ae3e6c1612b7085a0ded0270e9679836040516122e29190613d90565b60405180910390a35050505050565b806004548110612336576040517f08c379a000000000000000000000000000000000000000000000000000000000815260040161232d90613c50565b60405180910390fd5b6000600860008481526020019081526020016000206040518060a00160405290816000820160009054906101000a900460ff16151515158152602001600182015481526020016002820160009054906101000a900473ffffffffffffffffffffffffffffffffffffffff1673ffffffffffffffffffffffffffffffffffffffff1673ffffffffffffffffffffffffffffffffffffffff168152602001600382015481526020016004820160009054906101000a900473ffffffffffffffffffffffffffffffffffffffff1673ffffffffffffffffffffffffffffffffffffffff1673ffffffffffffffffffffffffffffffffffffffff168152505090508060000151612477576040517f08c379a000000000000000000000000000000000000000000000000000000000815260040161246e90613d70565b60405180910390fd5b600073ffffffffffffffffffffffffffffffffffffffff16816080015173ffffffffffffffffffffffffffffffffffffffff1614806124ec57506124b9613256565b73ffffffffffffffffffffffffffffffffffffffff16816080015173ffffffffffffffffffffffffffffffffffffffff16145b61252b576040517f08c379a000000000000000000000000000000000000000000000000000000000815260040161252290613d30565b60405180910390fd5b8060600151341015612572576040517f08c379a000000000000000000000000000000000000000000000000000000000815260040161256990613d10565b60405180910390fd5b6006600084815260200190815260200160002060009054906101000a900473ffffffffffffffffffffffffffffffffffffffff1673ffffffffffffffffffffffffffffffffffffffff16816040015173ffffffffffffffffffffffffffffffffffffffff1614612617576040517f08c379a000000000000000000000000000000000000000000000000000000000815260040161260e90613c70565b60405180910390fd5b600081604001519050612628613256565b6006600086815260200190815260200160002060006101000a81548173ffffffffffffffffffffffffffffffffffffffff021916908373ffffffffffffffffffffffffffffffffffffffff160217905550600760008273ffffffffffffffffffffffffffffffffffffffff1673ffffffffffffffffffffffffffffffffffffffff16815260200190815260200160002060008154809291906126c990613f3d565b9190505550600760006126da613256565b73ffffffffffffffffffffffffffffffffffffffff1673ffffffffffffffffffffffffffffffffffffffff168152602001908152602001600020600081548092919061272590613fca565b91905055506127338461325e565b34600a60008373ffffffffffffffffffffffffffffffffffffffff1673ffffffffffffffffffffffffffffffffffffffff16815260200190815260200160002060008282546127829190613e5f565b92505081905550612791613256565b73ffffffffffffffffffffffffffffffffffffffff168173ffffffffffffffffffffffffffffffffffffffff16857f23bd6a7d776cc01b293e9573ef30f3328402c0477c502ed84c8f0ba1dcc094f6346040516127ee9190613d90565b60405180910390a46000600960008681526020019081526020016000206040518060800160405290816000820160009054906101000a900460ff16151515158152602001600182015481526020016002820160009054906101000a900473ffffffffffffffffffffffffffffffffffffffff1673ffffffffffffffffffffffffffffffffffffffff1673ffffffffffffffffffffffffffffffffffffffff16815260200160038201548152505090506128a5613256565b73ffffffffffffffffffffffffffffffffffffffff16816040015173ffffffffffffffffffffffffffffffffffffffff161415612a0b578060600151600a60006128ed613256565b73ffffffffffffffffffffffffffffffffffffffff1673ffffffffffffffffffffffffffffffffffffffff16815260200190815260200160002060008282546129369190613e5f565b925050819055506040518060800160405280600015158152602001868152602001600073ffffffffffffffffffffffffffffffffffffffff16815260200160008152506009600087815260200190815260200160002060008201518160000160006101000a81548160ff0219169083151502179055506020820151816001015560408201518160020160006101000a81548173ffffffffffffffffffffffffffffffffffffffff021916908373ffffffffffffffffffffffffffffffffffffffff160217905550606082015181600301559050505b5050505050565b612a1a613256565b73ffffffffffffffffffffffffffffffffffffffff16612a38611db5565b73ffffffffffffffffffffffffffffffffffffffff1614612a8e576040517f08c379a0000000000000000000000000000000000000000000000000000000008152600401612a8590613c90565b60405180910390fd5b806004548110612ad3576040517f08c379a0000000000000000000000000000000000000000000000000000000008152600401612aca90613c50565b60405180910390fd5b8273ffffffffffffffffffffffffffffffffffffffff166006600084815260200190815260200160002060009054906101000a900473ffffffffffffffffffffffffffffffffffffffff1673ffffffffffffffffffffffffffffffffffffffff161415612b75576040517f08c379a0000000000000000000000000000000000000000000000000000000008152600401612b6c90613bb0565b60405180910390fd5b600073ffffffffffffffffffffffffffffffffffffffff166006600084815260200190815260200160002060009054906101000a900473ffffffffffffffffffffffffffffffffffffffff1673ffffffffffffffffffffffffffffffffffffffff1614612c6557600760006006600085815260200190815260200160002060009054906101000a900473ffffffffffffffffffffffffffffffffffffffff1673ffffffffffffffffffffffffffffffffffffffff1673ffffffffffffffffffffffffffffffffffffffff1681526020019081526020016000206000815480929190612c5f90613f3d565b91905055505b826006600084815260200190815260200160002060006101000a81548173ffffffffffffffffffffffffffffffffffffffff021916908373ffffffffffffffffffffffffffffffffffffffff160217905550600760008473ffffffffffffffffffffffffffffffffffffffff1673ffffffffffffffffffffffffffffffffffffffff1681526020019081526020016000206000815480929190612d0790613fca565b91905055508273ffffffffffffffffffffffffffffffffffffffff167f8a0e37b73a0d9c82e205d4d1a3ff3d0b57ce5f4d7bccf6bac03336dc101cb7ba83604051612d529190613d90565b60405180910390a2505050565b60055481565b60066020528060005260406000206000915054906101000a900473ffffffffffffffffffffffffffffffffffffffff1681565b816004548110612ddd576040517f08c379a0000000000000000000000000000000000000000000000000000000008152600401612dd490613c50565b60405180910390fd5b82612de6613256565b73ffffffffffffffffffffffffffffffffffffffff166006600083815260200190815260200160002060009054906101000a900473ffffffffffffffffffffffffffffffffffffffff1673ffffffffffffffffffffffffffffffffffffffff1614612e86576040517f08c379a0000000000000000000000000000000000000000000000000000000008152600401612e7d90613d50565b60405180910390fd5b6040518060a00160405280600115158152602001858152602001612ea8613256565b73ffffffffffffffffffffffffffffffffffffffff168152602001848152602001600073ffffffffffffffffffffffffffffffffffffffff168152506008600086815260200190815260200160002060008201518160000160006101000a81548160ff0219169083151502179055506020820151816001015560408201518160020160006101000a81548173ffffffffffffffffffffffffffffffffffffffff021916908373ffffffffffffffffffffffffffffffffffffffff1602179055506060820151816003015560808201518160040160006101000a81548173ffffffffffffffffffffffffffffffffffffffff021916908373ffffffffffffffffffffffffffffffffffffffff160217905550905050600073ffffffffffffffffffffffffffffffffffffffff16847fc7745c5ed59fb6521d8052f28bbbedc81ff4bdbe6860459067975d37eb4f9d4d856040516130049190613d90565b60405180910390a350505050565b61301a613256565b73ffffffffffffffffffffffffffffffffffffffff16613038611db5565b73ffffffffffffffffffffffffffffffffffffffff161461308e576040517f08c379a000000000000000000000000000000000000000000000000000000000815260040161308590613c90565b60405180910390fd5b600073ffffffffffffffffffffffffffffffffffffffff168173ffffffffffffffffffffffffffffffffffffffff1614156130fe576040517f08c379a00000000000000000000000000000000000000000000000000000000081526004016130f590613bd0565b60405180910390fd5b8073ffffffffffffffffffffffffffffffffffffffff1660008054906101000a900473ffffffffffffffffffffffffffffffffffffffff1673ffffffffffffffffffffffffffffffffffffffff167f8be0079c531659141344cd1fd0a4f28419497f9722a3daafe3b4186f6b6457e060405160405180910390a3806000806101000a81548173ffffffffffffffffffffffffffffffffffffffff021916908373ffffffffffffffffffffffffffffffffffffffff16021790555050565b600a6020528060005260406000206000915090505481565b60086020528060005260406000206000915090508060000160009054906101000a900460ff16908060010154908060020160009054906101000a900473ffffffffffffffffffffffffffffffffffffffff16908060030154908060040160009054906101000a900473ffffffffffffffffffffffffffffffffffffffff16905085565b600033905090565b8060045481106132a3576040517f08c379a000000000000000000000000000000000000000000000000000000000815260040161329a90613c50565b60405180910390fd5b816132ac613256565b73ffffffffffffffffffffffffffffffffffffffff166006600083815260200190815260200160002060009054906101000a900473ffffffffffffffffffffffffffffffffffffffff1673ffffffffffffffffffffffffffffffffffffffff161461334c576040517f08c379a000000000000000000000000000000000000000000000000000000000815260040161334390613d50565b60405180910390fd5b6040518060a0016040528060001515815260200184815260200161336e613256565b73ffffffffffffffffffffffffffffffffffffffff16815260200160008152602001600073ffffffffffffffffffffffffffffffffffffffff168152506008600085815260200190815260200160002060008201518160000160006101000a81548160ff0219169083151502179055506020820151816001015560408201518160020160006101000a81548173ffffffffffffffffffffffffffffffffffffffff021916908373ffffffffffffffffffffffffffffffffffffffff1602179055506060820151816003015560808201518160040160006101000a81548173ffffffffffffffffffffffffffffffffffffffff021916908373ffffffffffffffffffffffffffffffffffffffff160217905550905050827fffac6398132e5a7ffa281256055095adef949befe9b41a15f260a723ac3bcc4560405160405180910390a2505050565b60006134c86134c384613deb565b613dc6565b905080838252602082019050828560208602820111156134e757600080fd5b60005b8581101561351757816134fd888261358d565b8452602084019350602083019250506001810190506134ea565b5050509392505050565b600061353461352f84613e17565b613dc6565b9050808382526020820190508285602086028201111561355357600080fd5b60005b85811015613583578161356988826135f6565b845260208401935060208301925050600181019050613556565b5050509392505050565b60008135905061359c81614451565b92915050565b600082601f8301126135b357600080fd5b81356135c38482602086016134b5565b91505092915050565b600082601f8301126135dd57600080fd5b81356135ed848260208601613521565b91505092915050565b60008135905061360581614468565b92915050565b60006020828403121561361d57600080fd5b600061362b8482850161358d565b91505092915050565b6000806040838503121561364757600080fd5b60006136558582860161358d565b9250506020613666858286016135f6565b9150509250929050565b6000806040838503121561368357600080fd5b600083013567ffffffffffffffff81111561369d57600080fd5b6136a9858286016135a2565b925050602083013567ffffffffffffffff8111156136c657600080fd5b6136d2858286016135cc565b9150509250929050565b6000602082840312156136ee57600080fd5b60006136fc848285016135f6565b91505092915050565b6000806040838503121561371857600080fd5b6000613726858286016135f6565b9250506020613737858286016135f6565b9150509250929050565b60008060006060848603121561375657600080fd5b6000613764868287016135f6565b9350506020613775868287016135f6565b92505060406137868682870161358d565b9150509250925092565b61379981613eb5565b82525050565b6137a881613ec7565b82525050565b60006137b982613e43565b6137c38185613e4e565b93506137d3818560208601613f0a565b6137dc816140a0565b840191505092915050565b60006137f4602383613e4e565b91506137ff826140b1565b604082019050919050565b6000613817601683613e4e565b915061382282614100565b602082019050919050565b600061383a602a83613e4e565b915061384582614129565b604082019050919050565b600061385d601983613e4e565b915061386882614178565b602082019050919050565b6000613880602683613e4e565b915061388b826141a1565b604082019050919050565b60006138a3601183613e4e565b91506138ae826141f0565b602082019050919050565b60006138c6600d83613e4e565b91506138d182614219565b602082019050919050565b60006138e9601783613e4e565b91506138f482614242565b602082019050919050565b600061390c601383613e4e565b91506139178261426b565b602082019050919050565b600061392f601f83613e4e565b915061393a82614294565b602082019050919050565b6000613952602083613e4e565b915061395d826142bd565b602082019050919050565b6000613975602c83613e4e565b9150613980826142e6565b604082019050919050565b6000613998601283613e4e565b91506139a382614335565b602082019050919050565b60006139bb601583613e4e565b91506139c68261435e565b602082019050919050565b60006139de602083613e4e565b91506139e982614387565b602082019050919050565b6000613a01602183613e4e565b9150613a0c826143b0565b604082019050919050565b6000613a24601183613e4e565b9150613a2f826143ff565b602082019050919050565b6000613a47601583613e4e565b9150613a5282614428565b602082019050919050565b613a6681613ef3565b82525050565b613a7581613efd565b82525050565b6000602082019050613a906000830184613790565b92915050565b6000608082019050613aab600083018761379f565b613ab86020830186613a5d565b613ac56040830185613790565b613ad26060830184613a5d565b95945050505050565b600060a082019050613af0600083018861379f565b613afd6020830187613a5d565b613b0a6040830186613790565b613b176060830185613a5d565b613b246080830184613790565b9695505050505050565b60006020820190508181036000830152613b4881846137ae565b905092915050565b60006020820190508181036000830152613b69816137e7565b9050919050565b60006020820190508181036000830152613b898161380a565b9050919050565b60006020820190508181036000830152613ba98161382d565b9050919050565b60006020820190508181036000830152613bc981613850565b9050919050565b60006020820190508181036000830152613be981613873565b9050919050565b60006020820190508181036000830152613c0981613896565b9050919050565b60006020820190508181036000830152613c29816138b9565b9050919050565b60006020820190508181036000830152613c49816138dc565b9050919050565b60006020820190508181036000830152613c69816138ff565b9050919050565b60006020820190508181036000830152613c8981613922565b9050919050565b60006020820190508181036000830152613ca981613945565b9050919050565b60006020820190508181036000830152613cc981613968565b9050919050565b60006020820190508181036000830152613ce98161398b565b9050919050565b60006020820190508181036000830152613d09816139ae565b9050919050565b60006020820190508181036000830152613d29816139d1565b9050919050565b60006020820190508181036000830152613d49816139f4565b9050919050565b60006020820190508181036000830152613d6981613a17565b9050919050565b60006020820190508181036000830152613d8981613a3a565b9050919050565b6000602082019050613da56000830184613a5d565b92915050565b6000602082019050613dc06000830184613a6c565b92915050565b6000613dd0613de1565b9050613ddc8282613f99565b919050565b6000604051905090565b600067ffffffffffffffff821115613e0657613e05614071565b5b602082029050602081019050919050565b600067ffffffffffffffff821115613e3257613e31614071565b5b602082029050602081019050919050565b600081519050919050565b600082825260208201905092915050565b6000613e6a82613ef3565b9150613e7583613ef3565b9250827fffffffffffffffffffffffffffffffffffffffffffffffffffffffffffffffff03821115613eaa57613ea9614013565b5b828201905092915050565b6000613ec082613ed3565b9050919050565b60008115159050919050565b600073ffffffffffffffffffffffffffffffffffffffff82169050919050565b6000819050919050565b600060ff82169050919050565b60005b83811015613f28578082015181840152602081019050613f0d565b83811115613f37576000848401525b50505050565b6000613f4882613ef3565b91506000821415613f5c57613f5b614013565b5b600182039050919050565b60006002820490506001821680613f7f57607f821691505b60208210811415613f9357613f92614042565b5b50919050565b613fa2826140a0565b810181811067ffffffffffffffff82111715613fc157613fc0614071565b5b80604052505050565b6000613fd582613ef3565b91507fffffffffffffffffffffffffffffffffffffffffffffffffffffffffffffffff82141561400857614007614013565b5b600182019050919050565b7f4e487b7100000000000000000000000000000000000000000000000000000000600052601160045260246000fd5b7f4e487b7100000000000000000000000000000000000000000000000000000000600052602260045260246000fd5b7f4e487b7100000000000000000000000000000000000000000000000000000000600052604160045260246000fd5b6000601f19601f8301169050919050565b7f5370616365206d757374206265206c6f6e6720746f20656d707479206164647260008201527f6573730000000000000000000000000000000000000000000000000000000000602082015250565b7f596f7520617265206e6f74207468652062696464657200000000000000000000600082015250565b7f56616c7565206d7573742062652067726561746572207468616e20746865206860008201527f6967686573742062696400000000000000000000000000000000000000000000602082015250565b7f4d75737420626520646966666572656e74206164647265737300000000000000600082015250565b7f4f776e61626c653a206e6577206f776e657220697320746865207a65726f206160008201527f6464726573730000000000000000000000000000000000000000000000000000602082015250565b7f4f776e65722063616e206e6f7420626964000000000000000000000000000000600082015250565b7f4e6f207370616365206c65667400000000000000000000000000000000000000600082015250565b7f4269642076616c7565206d757374206e6f742062652030000000000000000000600082015250565b7f496e76616c696420737061636520696e64657800000000000000000000000000600082015250565b7f53656c6c6572206e6f206c6f6e676572206f776e6572206f6620737061636500600082015250565b7f4f776e61626c653a2063616c6c6572206973206e6f7420746865206f776e6572600082015250565b7f4269642076616c7565206d7573742062652067726561746572206f722065717560008201527f616c206d696e2070726963650000000000000000000000000000000000000000602082015250565b7f56616c75652063616e206e6f7420626520300000000000000000000000000000600082015250565b7f5370616365206d7573742068617665206f776e65720000000000000000000000600082015250565b7f596f75206d75737420627579206d6f7265207468616e206d696e2076616c7565600082015250565b7f546869732073706163652063616e206e6f7420626520736f6c6420746f20796f60008201527f7500000000000000000000000000000000000000000000000000000000000000602082015250565b7f596f7520617265206e6f74206f776e6572000000000000000000000000000000600082015250565b7f5370616365206973206e6f7420666f722073616c650000000000000000000000600082015250565b61445a81613eb5565b811461446557600080fd5b50565b61447181613ef3565b811461447c57600080fd5b5056fea2646970667358221220cf9000a318594b14bdff6f849036531de61715356e8b2c6d9d82a5562fbd7b0664736f6c63430008040033",
  "linkReferences": {},
  "deployedLinkReferences": {}
}