{
  "_format": "hh-sol-artifact-1",
  "contractName": "NapaCryptoSpaceMarket",
  "sourceName": "contracts/NapaCryptoSpaceMarket.sol",
  "abi": [
    {
      "inputs": [],
      "stateMutability": "nonpayable",
      "type": "constructor"
    },
    {
      "anonymous": false,
      "inputs": [
        {
          "indexed": true,
          "internalType": "address",
          "name": "to",
          "type": "address"
        },
        {
          "indexed": false,
          "internalType": "uint256",
          "name": "spaceIndex",
          "type": "uint256"
        }
      ],
      "name": "Assign",
      "type": "event"
    },
    {
      "anonymous": false,
      "inputs": [
        {
          "indexed": true,
          "internalType": "address",
          "name": "from",
          "type": "address"
        },
        {
          "indexed": true,
          "internalType": "address",
          "name": "to",
          "type": "address"
        },
        {
          "indexed": false,
          "internalType": "uint256",
          "name": "value",
          "type": "uint256"
        }
      ],
      "name": "ETHTransfer",
      "type": "event"
    },
    {
      "anonymous": false,
      "inputs": [
        {
          "indexed": true,
          "internalType": "address",
          "name": "previousOwner",
          "type": "address"
        },
        {
          "indexed": true,
          "internalType": "address",
          "name": "newOwner",
          "type": "address"
        }
      ],
      "name": "OwnershipTransferred",
      "type": "event"
    },
    {
      "anonymous": false,
      "inputs": [
        {
          "indexed": true,
          "internalType": "uint256",
          "name": "spaceIndex",
          "type": "uint256"
        },
        {
          "indexed": false,
          "internalType": "uint256",
          "name": "value",
          "type": "uint256"
        }
      ],
      "name": "SpaceBidEntered",
      "type": "event"
    },
    {
      "anonymous": false,
      "inputs": [
        {
          "indexed": true,
          "internalType": "uint256",
          "name": "spaceIndex",
          "type": "uint256"
        },
        {
          "indexed": false,
          "internalType": "uint256",
          "name": "value",
          "type": "uint256"
        }
      ],
      "name": "SpaceBidWithdrawn",
      "type": "event"
    },
    {
      "anonymous": false,
      "inputs": [
        {
          "indexed": true,
          "internalType": "uint256",
          "name": "spaceIndex",
          "type": "uint256"
        },
        {
          "indexed": false,
          "internalType": "uint256",
          "name": "value",
          "type": "uint256"
        },
        {
          "indexed": true,
          "internalType": "address",
          "name": "fromAddress",
          "type": "address"
        },
        {
          "indexed": true,
          "internalType": "address",
          "name": "toAddress",
          "type": "address"
        }
      ],
      "name": "SpaceBought",
      "type": "event"
    },
    {
      "anonymous": false,
      "inputs": [
        {
          "indexed": true,
          "internalType": "uint256",
          "name": "spaceIndex",
          "type": "uint256"
        }
      ],
      "name": "SpaceNoLongerForSale",
      "type": "event"
    },
    {
      "anonymous": false,
      "inputs": [
        {
          "indexed": true,
          "internalType": "uint256",
          "name": "spaceIndex",
          "type": "uint256"
        },
        {
          "indexed": false,
          "internalType": "uint256",
          "name": "minValue",
          "type": "uint256"
        },
        {
          "indexed": true,
          "internalType": "address",
          "name": "toAddress",
          "type": "address"
        }
      ],
      "name": "SpaceOffered",
      "type": "event"
    },
    {
      "anonymous": false,
      "inputs": [
        {
          "indexed": true,
          "internalType": "address",
          "name": "from",
          "type": "address"
        },
        {
          "indexed": true,
          "internalType": "address",
          "name": "to",
          "type": "address"
        },
        {
          "indexed": false,
          "internalType": "uint256",
          "name": "spaceIndex",
          "type": "uint256"
        }
      ],
      "name": "SpaceTransfer",
      "type": "event"
    },
    {
      "inputs": [
        {
          "internalType": "uint256",
          "name": "spaceIndex",
          "type": "uint256"
        },
        {
          "internalType": "uint256",
          "name": "minPrice",
          "type": "uint256"
        }
      ],
      "name": "acceptBidForSpace",
      "outputs": [],
      "stateMutability": "nonpayable",
      "type": "function"
    },
    {
      "inputs": [
        {
          "internalType": "address",
          "name": "",
          "type": "address"
        }
      ],
      "name": "balanceOf",
      "outputs": [
        {
          "internalType": "uint256",
          "name": "",
          "type": "uint256"
        }
      ],
      "stateMutability": "view",
      "type": "function"
    },
    {
      "inputs": [
        {
          "internalType": "uint256",
          "name": "spaceIndex",
          "type": "uint256"
        }
      ],
      "name": "buySpace",
      "outputs": [],
      "stateMutability": "payable",
      "type": "function"
    },
    {
      "inputs": [
        {
          "internalType": "uint256",
          "name": "spaceIndex",
          "type": "uint256"
        }
      ],
      "name": "enterBidForSpace",
      "outputs": [],
      "stateMutability": "payable",
      "type": "function"
    },
    {
      "inputs": [
        {
          "internalType": "uint256",
          "name": "spaceIndex",
          "type": "uint256"
        }
      ],
      "name": "getSpace",
      "outputs": [],
      "stateMutability": "nonpayable",
      "type": "function"
    },
    {
      "inputs": [],
      "name": "name",
      "outputs": [
        {
          "internalType": "string",
          "name": "",
          "type": "string"
        }
      ],
      "stateMutability": "view",
      "type": "function"
    },
    {
      "inputs": [
        {
          "internalType": "uint256",
          "name": "spaceIndex",
          "type": "uint256"
        },
        {
          "internalType": "uint256",
          "name": "minSalePriceInWei",
          "type": "uint256"
        }
      ],
      "name": "offerSpaceForSale",
      "outputs": [],
      "stateMutability": "nonpayable",
      "type": "function"
    },
    {
      "inputs": [
        {
          "internalType": "uint256",
          "name": "spaceIndex",
          "type": "uint256"
        },
        {
          "internalType": "uint256",
          "name": "minSalePriceInWei",
          "type": "uint256"
        },
        {
          "internalType": "address",
          "name": "toAddress",
          "type": "address"
        }
      ],
      "name": "offerSpaceForSaleToAddress",
      "outputs": [],
      "stateMutability": "nonpayable",
      "type": "function"
    },
    {
      "inputs": [],
      "name": "owner",
      "outputs": [
        {
          "internalType": "address",
          "name": "",
          "type": "address"
        }
      ],
      "stateMutability": "view",
      "type": "function"
    },
    {
      "inputs": [
        {
          "internalType": "address",
          "name": "",
          "type": "address"
        }
      ],
      "name": "pendingWithdrawals",
      "outputs": [
        {
          "internalType": "uint256",
          "name": "",
          "type": "uint256"
        }
      ],
      "stateMutability": "view",
      "type": "function"
    },
    {
      "inputs": [],
      "name": "renounceOwnership",
      "outputs": [],
      "stateMutability": "nonpayable",
      "type": "function"
    },
    {
      "inputs": [],
      "name": "returnSpacesBidsArray",
      "outputs": [
        {
          "components": [
            {
              "internalType": "bool",
              "name": "hasBid",
              "type": "bool"
            },
            {
              "internalType": "uint256",
              "name": "spaceIndex",
              "type": "uint256"
            },
            {
              "internalType": "address",
              "name": "bidder",
              "type": "address"
            },
            {
              "internalType": "uint256",
              "name": "value",
              "type": "uint256"
            }
          ],
          "internalType": "struct NapaCryptoSpaceMarket.Bid[12]",
          "name": "",
          "type": "tuple[12]"
        }
      ],
      "stateMutability": "view",
      "type": "function"
    },
    {
      "inputs": [],
      "name": "returnSpacesOfferedForSaleArray",
      "outputs": [
        {
          "components": [
            {
              "internalType": "bool",
              "name": "isForSale",
              "type": "bool"
            },
            {
              "internalType": "uint256",
              "name": "spaceIndex",
              "type": "uint256"
            },
            {
              "internalType": "address",
              "name": "seller",
              "type": "address"
            },
            {
              "internalType": "uint256",
              "name": "minValue",
              "type": "uint256"
            },
            {
              "internalType": "address",
              "name": "onlySellTo",
              "type": "address"
            }
          ],
          "internalType": "struct NapaCryptoSpaceMarket.Offer[12]",
          "name": "",
          "type": "tuple[12]"
        }
      ],
      "stateMutability": "view",
      "type": "function"
    },
    {
      "inputs": [
        {
          "internalType": "address",
          "name": "to",
          "type": "address"
        },
        {
          "internalType": "uint256",
          "name": "spaceIndex",
          "type": "uint256"
        }
      ],
      "name": "setInitialOwner",
      "outputs": [],
      "stateMutability": "nonpayable",
      "type": "function"
    },
    {
      "inputs": [
        {
          "internalType": "address[]",
          "name": "addresses",
          "type": "address[]"
        },
        {
          "internalType": "uint256[]",
          "name": "indices",
          "type": "uint256[]"
        }
      ],
      "name": "setInitialOwners",
      "outputs": [],
      "stateMutability": "nonpayable",
      "type": "function"
    },
    {
      "inputs": [
        {
          "internalType": "uint256",
          "name": "",
          "type": "uint256"
        }
      ],
      "name": "spaceBids",
      "outputs": [
        {
          "internalType": "bool",
          "name": "hasBid",
          "type": "bool"
        },
        {
          "internalType": "uint256",
          "name": "spaceIndex",
          "type": "uint256"
        },
        {
          "internalType": "address",
          "name": "bidder",
          "type": "address"
        },
        {
          "internalType": "uint256",
          "name": "value",
          "type": "uint256"
        }
      ],
      "stateMutability": "view",
      "type": "function"
    },
    {
      "inputs": [
        {
          "internalType": "uint256",
          "name": "",
          "type": "uint256"
        }
      ],
      "name": "spaceBidsArray",
      "outputs": [
        {
          "internalType": "bool",
          "name": "hasBid",
          "type": "bool"
        },
        {
          "internalType": "uint256",
          "name": "spaceIndex",
          "type": "uint256"
        },
        {
          "internalType": "address",
          "name": "bidder",
          "type": "address"
        },
        {
          "internalType": "uint256",
          "name": "value",
          "type": "uint256"
        }
      ],
      "stateMutability": "view",
      "type": "function"
    },
    {
      "inputs": [
        {
          "internalType": "uint256",
          "name": "",
          "type": "uint256"
        }
      ],
      "name": "spaceIndexToAddress",
      "outputs": [
        {
          "internalType": "address",
          "name": "",
          "type": "address"
        }
      ],
      "stateMutability": "view",
      "type": "function"
    },
    {
      "inputs": [
        {
          "internalType": "uint256",
          "name": "",
          "type": "uint256"
        }
      ],
      "name": "spacesOfferedForSale",
      "outputs": [
        {
          "internalType": "bool",
          "name": "isForSale",
          "type": "bool"
        },
        {
          "internalType": "uint256",
          "name": "spaceIndex",
          "type": "uint256"
        },
        {
          "internalType": "address",
          "name": "seller",
          "type": "address"
        },
        {
          "internalType": "uint256",
          "name": "minValue",
          "type": "uint256"
        },
        {
          "internalType": "address",
          "name": "onlySellTo",
          "type": "address"
        }
      ],
      "stateMutability": "view",
      "type": "function"
    },
    {
      "inputs": [
        {
          "internalType": "uint256",
          "name": "",
          "type": "uint256"
        }
      ],
      "name": "spacesOfferedForSaleArray",
      "outputs": [
        {
          "internalType": "bool",
          "name": "isForSale",
          "type": "bool"
        },
        {
          "internalType": "uint256",
          "name": "spaceIndex",
          "type": "uint256"
        },
        {
          "internalType": "address",
          "name": "seller",
          "type": "address"
        },
        {
          "internalType": "uint256",
          "name": "minValue",
          "type": "uint256"
        },
        {
          "internalType": "address",
          "name": "onlySellTo",
          "type": "address"
        }
      ],
      "stateMutability": "view",
      "type": "function"
    },
    {
      "inputs": [],
      "name": "spacesRemainingToAssign",
      "outputs": [
        {
          "internalType": "uint256",
          "name": "",
          "type": "uint256"
        }
      ],
      "stateMutability": "view",
      "type": "function"
    },
    {
      "inputs": [],
      "name": "symbol",
      "outputs": [
        {
          "internalType": "string",
          "name": "",
          "type": "string"
        }
      ],
      "stateMutability": "view",
      "type": "function"
    },
    {
      "inputs": [
        {
          "internalType": "address",
          "name": "newOwner",
          "type": "address"
        }
      ],
      "name": "transferOwnership",
      "outputs": [],
      "stateMutability": "nonpayable",
      "type": "function"
    },
    {
      "inputs": [
        {
          "internalType": "address",
          "name": "to",
          "type": "address"
        },
        {
          "internalType": "uint256",
          "name": "spaceIndex",
          "type": "uint256"
        }
      ],
      "name": "transferSpace",
      "outputs": [],
      "stateMutability": "nonpayable",
      "type": "function"
    },
    {
      "inputs": [],
      "name": "withdraw",
      "outputs": [],
      "stateMutability": "nonpayable",
      "type": "function"
    },
    {
      "inputs": [
        {
          "internalType": "uint256",
          "name": "spaceIndex",
          "type": "uint256"
        }
      ],
      "name": "withdrawBidForSpace",
      "outputs": [],
      "stateMutability": "nonpayable",
      "type": "function"
    }
  ],
  "bytecode": "0x60806040526127106003553480156200001757600080fd5b5060006200002a6200017360201b60201c565b9050806000806101000a81548173ffffffffffffffffffffffffffffffffffffffff021916908373ffffffffffffffffffffffffffffffffffffffff1602179055508073ffffffffffffffffffffffffffffffffffffffff16600073ffffffffffffffffffffffffffffffffffffffff167f8be0079c531659141344cd1fd0a4f28419497f9722a3daafe3b4186f6b6457e060405160405180910390a3506003546004819055506040518060400160405280600b81526020017f43525950544f5350414345000000000000000000000000000000000000000000815250600190805190602001906200011e9291906200017b565b506040518060400160405280600381526020017f4e43530000000000000000000000000000000000000000000000000000000000815250600290805190602001906200016c9291906200017b565b5062000290565b600033905090565b82805462000189906200022b565b90600052602060002090601f016020900481019282620001ad5760008555620001f9565b82601f10620001c857805160ff1916838001178555620001f9565b82800160010185558215620001f9579182015b82811115620001f8578251825591602001919060010190620001db565b5b5090506200020891906200020c565b5090565b5b80821115620002275760008160009055506001016200020d565b5090565b600060028204905060018216806200024457607f821691505b602082108114156200025b576200025a62000261565b5b50919050565b7f4e487b7100000000000000000000000000000000000000000000000000000000600052602260045260246000fd5b6155fa80620002a06000396000f3fe6080604052600436106101815760003560e01c80638da5cb5b116100d1578063d5d83af51161008a578063de80318d11610064578063de80318d14610548578063f2fde38b14610571578063f3f437031461059a578063ff7bdc0a146105d757610181565b8063d5d83af51461049f578063da99c420146104e0578063dccd88271461051d57610181565b80638da5cb5b146103b057806395d89b41146103db578063994f42eb146104065780639bd1332e1461042f578063a75a90491461044b578063a797de941461047457610181565b80635b795c7c1161013e57806370e104311161011857806370e104311461031c578063715018a61461034557806378b958881461035c5780637fa4f1d91461038757610181565b80635b795c7c1461029a5780636178e8d1146102b657806370a08231146102df57610181565b806306fdde03146101865780632a89a35f146101b157806339c5dde6146101f15780633ccfd60b1461021a57806351d28bdb1461023157806354e39e8814610271575b600080fd5b34801561019257600080fd5b5061019b610618565b6040516101a89190614c41565b60405180910390f35b3480156101bd57600080fd5b506101d860048036038101906101d391906145fe565b6106a6565b6040516101e89493929190614ba9565b60405180910390f35b3480156101fd57600080fd5b5061021860048036038101906102139190614592565b610709565b005b34801561022657600080fd5b5061022f610839565b005b34801561023d57600080fd5b50610258600480360381019061025391906145fe565b61098d565b6040516102689493929190614ba9565b60405180910390f35b34801561027d57600080fd5b5061029860048036038101906102939190614627565b6109ea565b005b6102b460048036038101906102af91906145fe565b61124c565b005b3480156102c257600080fd5b506102dd60048036038101906102d89190614556565b611788565b005b3480156102eb57600080fd5b506103066004803603810190610301919061452d565b611d1e565b6040516103139190614ea3565b60405180910390f35b34801561032857600080fd5b50610343600480360381019061033e91906145fe565b611d36565b005b34801561035157600080fd5b5061035a611f8b565b005b34801561036857600080fd5b506103716120c5565b60405161037e9190614b71565b60405180910390f35b34801561039357600080fd5b506103ae60048036038101906103a99190614663565b61219c565b005b3480156103bc57600080fd5b506103c5612575565b6040516103d29190614b56565b60405180910390f35b3480156103e757600080fd5b506103f061259e565b6040516103fd9190614c41565b60405180910390f35b34801561041257600080fd5b5061042d600480360381019061042891906145fe565b61262c565b005b610449600480360381019061044491906145fe565b612ba9565b005b34801561045757600080fd5b50610472600480360381019061046d9190614556565b6133c2565b005b34801561048057600080fd5b5061048961370f565b6040516104969190614ea3565b60405180910390f35b3480156104ab57600080fd5b506104c660048036038101906104c191906145fe565b613715565b6040516104d7959493929190614bee565b60405180910390f35b3480156104ec57600080fd5b50610507600480360381019061050291906145fe565b61379e565b6040516105149190614b56565b60405180910390f35b34801561052957600080fd5b506105326137d1565b60405161053f9190614b8d565b60405180910390f35b34801561055457600080fd5b5061056f600480360381019061056a9190614627565b6138fe565b005b34801561057d57600080fd5b506105986004803603810190610593919061452d565b613cd9565b005b3480156105a657600080fd5b506105c160048036038101906105bc919061452d565b613e82565b6040516105ce9190614ea3565b60405180910390f35b3480156105e357600080fd5b506105fe60048036038101906105f991906145fe565b613e9a565b60405161060f959493929190614bee565b60405180910390f35b60018054610625906150ac565b80601f0160208091040260200160405190810160405280929190818152602001828054610651906150ac565b801561069e5780601f106106735761010080835404028352916020019161069e565b820191906000526020600020905b81548152906001019060200180831161068157829003601f168201915b505050505081565b604581600c81106106b657600080fd5b600402016000915090508060000160009054906101000a900460ff16908060010154908060020160009054906101000a900473ffffffffffffffffffffffffffffffffffffffff16908060030154905084565b610711613f1d565b73ffffffffffffffffffffffffffffffffffffffff1661072f612575565b73ffffffffffffffffffffffffffffffffffffffff1614610785576040517f08c379a000000000000000000000000000000000000000000000000000000000815260040161077c90614da3565b60405180910390fd5b60008251905060005b81811015610833576108208482815181106107d2577f4e487b7100000000000000000000000000000000000000000000000000000000600052603260045260246000fd5b6020026020010151848381518110610813577f4e487b7100000000000000000000000000000000000000000000000000000000600052603260045260246000fd5b60200260200101516133c2565b808061082b9061510f565b91505061078e565b50505050565b600060756000610847613f1d565b73ffffffffffffffffffffffffffffffffffffffff1673ffffffffffffffffffffffffffffffffffffffff168152602001908152602001600020549050600060756000610892613f1d565b73ffffffffffffffffffffffffffffffffffffffff1673ffffffffffffffffffffffffffffffffffffffff168152602001908152602001600020819055506108d8613f1d565b73ffffffffffffffffffffffffffffffffffffffff166108fc829081150290604051600060405180830381858888f1935050505015801561091d573d6000803e3d6000fd5b50610926613f1d565b73ffffffffffffffffffffffffffffffffffffffff163073ffffffffffffffffffffffffffffffffffffffff167fa96f45c7f021e61b3f486703c7db5ff1987ae3e6c1612b7085a0ded0270e9679836040516109829190614ea3565b60405180910390a350565b60446020528060005260406000206000915090508060000160009054906101000a900460ff16908060010154908060020160009054906101000a900473ffffffffffffffffffffffffffffffffffffffff16908060030154905084565b816003548110610a2f576040517f08c379a0000000000000000000000000000000000000000000000000000000008152600401610a2690614d63565b60405180910390fd5b82610a38613f1d565b73ffffffffffffffffffffffffffffffffffffffff166005600083815260200190815260200160002060009054906101000a900473ffffffffffffffffffffffffffffffffffffffff1673ffffffffffffffffffffffffffffffffffffffff1614610ad8576040517f08c379a0000000000000000000000000000000000000000000000000000000008152600401610acf90614e63565b60405180910390fd5b6000610ae2613f1d565b90506000604460008781526020019081526020016000206040518060800160405290816000820160009054906101000a900460ff16151515158152602001600182015481526020016002820160009054906101000a900473ffffffffffffffffffffffffffffffffffffffff1673ffffffffffffffffffffffffffffffffffffffff1673ffffffffffffffffffffffffffffffffffffffff1681526020016003820154815250509050600081606001511415610bd3576040517f08c379a0000000000000000000000000000000000000000000000000000000008152600401610bca90614d43565b60405180910390fd5b8481606001511015610c1a576040517f08c379a0000000000000000000000000000000000000000000000000000000008152600401610c1190614dc3565b60405180910390fd5b80604001516005600088815260200190815260200160002060006101000a81548173ffffffffffffffffffffffffffffffffffffffff021916908373ffffffffffffffffffffffffffffffffffffffff160217905550600660008373ffffffffffffffffffffffffffffffffffffffff1673ffffffffffffffffffffffffffffffffffffffff1681526020019081526020016000206000815480929190610cc090615082565b919050555060066000826040015173ffffffffffffffffffffffffffffffffffffffff1673ffffffffffffffffffffffffffffffffffffffff1681526020019081526020016000206000815480929190610d199061510f565b91905055506040518060a00160405280600015158152602001878152602001826040015173ffffffffffffffffffffffffffffffffffffffff16815260200160008152602001600073ffffffffffffffffffffffffffffffffffffffff168152506007600088815260200190815260200160002060008201518160000160006101000a81548160ff0219169083151502179055506020820151816001015560408201518160020160006101000a81548173ffffffffffffffffffffffffffffffffffffffff021916908373ffffffffffffffffffffffffffffffffffffffff1602179055506060820151816003015560808201518160040160006101000a81548173ffffffffffffffffffffffffffffffffffffffff021916908373ffffffffffffffffffffffffffffffffffffffff1602179055509050506040518060a00160405280600015158152602001878152602001826040015173ffffffffffffffffffffffffffffffffffffffff16815260200160008152602001600073ffffffffffffffffffffffffffffffffffffffff16815250600887600c8110610ee8577f4e487b7100000000000000000000000000000000000000000000000000000000600052603260045260246000fd5b6005020160008201518160000160006101000a81548160ff0219169083151502179055506020820151816001015560408201518160020160006101000a81548173ffffffffffffffffffffffffffffffffffffffff021916908373ffffffffffffffffffffffffffffffffffffffff1602179055506060820151816003015560808201518160040160006101000a81548173ffffffffffffffffffffffffffffffffffffffff021916908373ffffffffffffffffffffffffffffffffffffffff1602179055509050506000816060015190506040518060800160405280600015158152602001888152602001600073ffffffffffffffffffffffffffffffffffffffff16815260200160008152506044600089815260200190815260200160002060008201518160000160006101000a81548160ff0219169083151502179055506020820151816001015560408201518160020160006101000a81548173ffffffffffffffffffffffffffffffffffffffff021916908373ffffffffffffffffffffffffffffffffffffffff160217905550606082015181600301559050506040518060800160405280600015158152602001888152602001600073ffffffffffffffffffffffffffffffffffffffff1681526020016000815250604588600c81106110fd577f4e487b7100000000000000000000000000000000000000000000000000000000600052603260045260246000fd5b6004020160008201518160000160006101000a81548160ff0219169083151502179055506020820151816001015560408201518160020160006101000a81548173ffffffffffffffffffffffffffffffffffffffff021916908373ffffffffffffffffffffffffffffffffffffffff1602179055506060820151816003015590505080607560008573ffffffffffffffffffffffffffffffffffffffff1673ffffffffffffffffffffffffffffffffffffffff16815260200190815260200160002060008282546111ce9190614fb1565b92505081905550816040015173ffffffffffffffffffffffffffffffffffffffff168373ffffffffffffffffffffffffffffffffffffffff16887f23bd6a7d776cc01b293e9573ef30f3328402c0477c502ed84c8f0ba1dcc094f6856060015160405161123b9190614ea3565b60405180910390a450505050505050565b806003548110611291576040517f08c379a000000000000000000000000000000000000000000000000000000000815260040161128890614d63565b60405180910390fd5b81600073ffffffffffffffffffffffffffffffffffffffff166005600083815260200190815260200160002060009054906101000a900473ffffffffffffffffffffffffffffffffffffffff1673ffffffffffffffffffffffffffffffffffffffff161415611335576040517f08c379a000000000000000000000000000000000000000000000000000000000815260040161132c90614e03565b60405180910390fd5b61133d613f1d565b73ffffffffffffffffffffffffffffffffffffffff166005600083815260200190815260200160002060009054906101000a900473ffffffffffffffffffffffffffffffffffffffff1673ffffffffffffffffffffffffffffffffffffffff1614156113de576040517f08c379a00000000000000000000000000000000000000000000000000000000081526004016113d590614d03565b60405180910390fd5b6000341415611422576040517f08c379a000000000000000000000000000000000000000000000000000000000815260040161141990614de3565b60405180910390fd5b6000604460008581526020019081526020016000206040518060800160405290816000820160009054906101000a900460ff16151515158152602001600182015481526020016002820160009054906101000a900473ffffffffffffffffffffffffffffffffffffffff1673ffffffffffffffffffffffffffffffffffffffff1673ffffffffffffffffffffffffffffffffffffffff16815260200160038201548152505090508060600151341161150f576040517f08c379a000000000000000000000000000000000000000000000000000000000815260040161150690614ca3565b60405180910390fd5b60008160600151111561157b57806060015160756000836040015173ffffffffffffffffffffffffffffffffffffffff1673ffffffffffffffffffffffffffffffffffffffff16815260200190815260200160002060008282546115739190614fb1565b925050819055505b604051806080016040528060011515815260200185815260200161159d613f1d565b73ffffffffffffffffffffffffffffffffffffffff168152602001348152506044600086815260200190815260200160002060008201518160000160006101000a81548160ff0219169083151502179055506020820151816001015560408201518160020160006101000a81548173ffffffffffffffffffffffffffffffffffffffff021916908373ffffffffffffffffffffffffffffffffffffffff16021790555060608201518160030155905050604051806080016040528060011515815260200185815260200161166f613f1d565b73ffffffffffffffffffffffffffffffffffffffff16815260200134815250604585600c81106116c8577f4e487b7100000000000000000000000000000000000000000000000000000000600052603260045260246000fd5b6004020160008201518160000160006101000a81548160ff0219169083151502179055506020820151816001015560408201518160020160006101000a81548173ffffffffffffffffffffffffffffffffffffffff021916908373ffffffffffffffffffffffffffffffffffffffff16021790555060608201518160030155905050837f6c7774aa65846ab41024d9d3bf54d81c4949b1e05db79af29ac41c752817ab163460405161177a9190614ea3565b60405180910390a250505050565b8060035481106117cd576040517f08c379a00000000000000000000000000000000000000000000000000000000081526004016117c490614d63565b60405180910390fd5b816117d6613f1d565b73ffffffffffffffffffffffffffffffffffffffff166005600083815260200190815260200160002060009054906101000a900473ffffffffffffffffffffffffffffffffffffffff1673ffffffffffffffffffffffffffffffffffffffff1614611876576040517f08c379a000000000000000000000000000000000000000000000000000000000815260040161186d90614e63565b60405180910390fd5b6007600084815260200190815260200160002060000160009054906101000a900460ff16156118a9576118a883613f25565b5b836005600085815260200190815260200160002060006101000a81548173ffffffffffffffffffffffffffffffffffffffff021916908373ffffffffffffffffffffffffffffffffffffffff16021790555060066000611907613f1d565b73ffffffffffffffffffffffffffffffffffffffff1673ffffffffffffffffffffffffffffffffffffffff168152602001908152602001600020600081548092919061195290615082565b9190505550600660008573ffffffffffffffffffffffffffffffffffffffff1673ffffffffffffffffffffffffffffffffffffffff16815260200190815260200160002060008154809291906119a79061510f565b91905055508373ffffffffffffffffffffffffffffffffffffffff166119cb613f1d565b73ffffffffffffffffffffffffffffffffffffffff167f93637f65711d87b65eab15bd147a75be2ff4d04b41aaf70e10b062851190a39985604051611a109190614ea3565b60405180910390a36000604460008581526020019081526020016000206040518060800160405290816000820160009054906101000a900460ff16151515158152602001600182015481526020016002820160009054906101000a900473ffffffffffffffffffffffffffffffffffffffff1673ffffffffffffffffffffffffffffffffffffffff1673ffffffffffffffffffffffffffffffffffffffff16815260200160038201548152505090508473ffffffffffffffffffffffffffffffffffffffff16816040015173ffffffffffffffffffffffffffffffffffffffff161415611d17578060600151607560008773ffffffffffffffffffffffffffffffffffffffff1673ffffffffffffffffffffffffffffffffffffffff1681526020019081526020016000206000828254611b4a9190614fb1565b925050819055506040518060800160405280600015158152602001858152602001600073ffffffffffffffffffffffffffffffffffffffff16815260200160008152506044600086815260200190815260200160002060008201518160000160006101000a81548160ff0219169083151502179055506020820151816001015560408201518160020160006101000a81548173ffffffffffffffffffffffffffffffffffffffff021916908373ffffffffffffffffffffffffffffffffffffffff160217905550606082015181600301559050506040518060800160405280600015158152602001858152602001600073ffffffffffffffffffffffffffffffffffffffff1681526020016000815250604585600c8110611c94577f4e487b7100000000000000000000000000000000000000000000000000000000600052603260045260246000fd5b6004020160008201518160000160006101000a81548160ff0219169083151502179055506020820151816001015560408201518160020160006101000a81548173ffffffffffffffffffffffffffffffffffffffff021916908373ffffffffffffffffffffffffffffffffffffffff160217905550606082015181600301559050505b5050505050565b60066020528060005260406000206000915090505481565b806003548110611d7b576040517f08c379a0000000000000000000000000000000000000000000000000000000008152600401611d7290614d63565b60405180910390fd5b8160006004541415611dc2576040517f08c379a0000000000000000000000000000000000000000000000000000000008152600401611db990614d23565b60405180910390fd5b600073ffffffffffffffffffffffffffffffffffffffff166005600083815260200190815260200160002060009054906101000a900473ffffffffffffffffffffffffffffffffffffffff1673ffffffffffffffffffffffffffffffffffffffff1614611e64576040517f08c379a0000000000000000000000000000000000000000000000000000000008152600401611e5b90614c63565b60405180910390fd5b611e6c613f1d565b6005600085815260200190815260200160002060006101000a81548173ffffffffffffffffffffffffffffffffffffffff021916908373ffffffffffffffffffffffffffffffffffffffff16021790555060066000611ec9613f1d565b73ffffffffffffffffffffffffffffffffffffffff1673ffffffffffffffffffffffffffffffffffffffff1681526020019081526020016000206000815480929190611f149061510f565b919050555060046000815480929190611f2c90615082565b9190505550611f39613f1d565b73ffffffffffffffffffffffffffffffffffffffff167f8a0e37b73a0d9c82e205d4d1a3ff3d0b57ce5f4d7bccf6bac03336dc101cb7ba84604051611f7e9190614ea3565b60405180910390a2505050565b611f93613f1d565b73ffffffffffffffffffffffffffffffffffffffff16611fb1612575565b73ffffffffffffffffffffffffffffffffffffffff1614612007576040517f08c379a0000000000000000000000000000000000000000000000000000000008152600401611ffe90614da3565b60405180910390fd5b600073ffffffffffffffffffffffffffffffffffffffff1660008054906101000a900473ffffffffffffffffffffffffffffffffffffffff1673ffffffffffffffffffffffffffffffffffffffff167f8be0079c531659141344cd1fd0a4f28419497f9722a3daafe3b4186f6b6457e060405160405180910390a360008060006101000a81548173ffffffffffffffffffffffffffffffffffffffff021916908373ffffffffffffffffffffffffffffffffffffffff160217905550565b6120cd6142de565b6045600c80602002604051908101604052809291906000905b82821015612193578382600402016040518060800160405290816000820160009054906101000a900460ff16151515158152602001600182015481526020016002820160009054906101000a900473ffffffffffffffffffffffffffffffffffffffff1673ffffffffffffffffffffffffffffffffffffffff1673ffffffffffffffffffffffffffffffffffffffff168152602001600382015481525050815260200190600101906120e6565b50505050905090565b8260035481106121e1576040517f08c379a00000000000000000000000000000000000000000000000000000000081526004016121d890614d63565b60405180910390fd5b836121ea613f1d565b73ffffffffffffffffffffffffffffffffffffffff166005600083815260200190815260200160002060009054906101000a900473ffffffffffffffffffffffffffffffffffffffff1673ffffffffffffffffffffffffffffffffffffffff161461228a576040517f08c379a000000000000000000000000000000000000000000000000000000000815260040161228190614e63565b60405180910390fd5b6040518060a001604052806001151581526020018681526020016122ac613f1d565b73ffffffffffffffffffffffffffffffffffffffff1681526020018581526020018473ffffffffffffffffffffffffffffffffffffffff168152506007600087815260200190815260200160002060008201518160000160006101000a81548160ff0219169083151502179055506020820151816001015560408201518160020160006101000a81548173ffffffffffffffffffffffffffffffffffffffff021916908373ffffffffffffffffffffffffffffffffffffffff1602179055506060820151816003015560808201518160040160006101000a81548173ffffffffffffffffffffffffffffffffffffffff021916908373ffffffffffffffffffffffffffffffffffffffff1602179055509050506040518060a001604052806001151581526020018681526020016123e1613f1d565b73ffffffffffffffffffffffffffffffffffffffff1681526020018581526020018473ffffffffffffffffffffffffffffffffffffffff16815250600886600c8110612456577f4e487b7100000000000000000000000000000000000000000000000000000000600052603260045260246000fd5b6005020160008201518160000160006101000a81548160ff0219169083151502179055506020820151816001015560408201518160020160006101000a81548173ffffffffffffffffffffffffffffffffffffffff021916908373ffffffffffffffffffffffffffffffffffffffff1602179055506060820151816003015560808201518160040160006101000a81548173ffffffffffffffffffffffffffffffffffffffff021916908373ffffffffffffffffffffffffffffffffffffffff1602179055509050508273ffffffffffffffffffffffffffffffffffffffff16857fc7745c5ed59fb6521d8052f28bbbedc81ff4bdbe6860459067975d37eb4f9d4d866040516125669190614ea3565b60405180910390a35050505050565b60008060009054906101000a900473ffffffffffffffffffffffffffffffffffffffff16905090565b600280546125ab906150ac565b80601f01602080910402602001604051908101604052809291908181526020018280546125d7906150ac565b80156126245780601f106125f957610100808354040283529160200191612624565b820191906000526020600020905b81548152906001019060200180831161260757829003601f168201915b505050505081565b806003548110612671576040517f08c379a000000000000000000000000000000000000000000000000000000000815260040161266890614d63565b60405180910390fd5b81600073ffffffffffffffffffffffffffffffffffffffff166005600083815260200190815260200160002060009054906101000a900473ffffffffffffffffffffffffffffffffffffffff1673ffffffffffffffffffffffffffffffffffffffff161415612715576040517f08c379a000000000000000000000000000000000000000000000000000000000815260040161270c90614e03565b60405180910390fd5b61271d613f1d565b73ffffffffffffffffffffffffffffffffffffffff166005600083815260200190815260200160002060009054906101000a900473ffffffffffffffffffffffffffffffffffffffff1673ffffffffffffffffffffffffffffffffffffffff1614156127be576040517f08c379a00000000000000000000000000000000000000000000000000000000081526004016127b590614d03565b60405180910390fd5b6000604460008581526020019081526020016000206040518060800160405290816000820160009054906101000a900460ff16151515158152602001600182015481526020016002820160009054906101000a900473ffffffffffffffffffffffffffffffffffffffff1673ffffffffffffffffffffffffffffffffffffffff1673ffffffffffffffffffffffffffffffffffffffff168152602001600382015481525050905061286d613f1d565b73ffffffffffffffffffffffffffffffffffffffff16816040015173ffffffffffffffffffffffffffffffffffffffff16146128de576040517f08c379a00000000000000000000000000000000000000000000000000000000081526004016128d590614c83565b60405180910390fd5b837fb03733b7bfa62b05d6586f75b62255477eb894cb5cae3d6ba2c887050f284ca482606001516040516129129190614ea3565b60405180910390a26000816060015190506040518060800160405280600015158152602001868152602001600073ffffffffffffffffffffffffffffffffffffffff16815260200160008152506044600087815260200190815260200160002060008201518160000160006101000a81548160ff0219169083151502179055506020820151816001015560408201518160020160006101000a81548173ffffffffffffffffffffffffffffffffffffffff021916908373ffffffffffffffffffffffffffffffffffffffff160217905550606082015181600301559050506040518060800160405280600015158152602001868152602001600073ffffffffffffffffffffffffffffffffffffffff1681526020016000815250604586600c8110612a66577f4e487b7100000000000000000000000000000000000000000000000000000000600052603260045260246000fd5b6004020160008201518160000160006101000a81548160ff0219169083151502179055506020820151816001015560408201518160020160006101000a81548173ffffffffffffffffffffffffffffffffffffffff021916908373ffffffffffffffffffffffffffffffffffffffff16021790555060608201518160030155905050612af0613f1d565b73ffffffffffffffffffffffffffffffffffffffff166108fc829081150290604051600060405180830381858888f19350505050158015612b35573d6000803e3d6000fd5b50612b3e613f1d565b73ffffffffffffffffffffffffffffffffffffffff163073ffffffffffffffffffffffffffffffffffffffff167fa96f45c7f021e61b3f486703c7db5ff1987ae3e6c1612b7085a0ded0270e967983604051612b9a9190614ea3565b60405180910390a35050505050565b806003548110612bee576040517f08c379a0000000000000000000000000000000000000000000000000000000008152600401612be590614d63565b60405180910390fd5b6000600760008481526020019081526020016000206040518060a00160405290816000820160009054906101000a900460ff16151515158152602001600182015481526020016002820160009054906101000a900473ffffffffffffffffffffffffffffffffffffffff1673ffffffffffffffffffffffffffffffffffffffff1673ffffffffffffffffffffffffffffffffffffffff168152602001600382015481526020016004820160009054906101000a900473ffffffffffffffffffffffffffffffffffffffff1673ffffffffffffffffffffffffffffffffffffffff1673ffffffffffffffffffffffffffffffffffffffff168152505090508060000151612d2f576040517f08c379a0000000000000000000000000000000000000000000000000000000008152600401612d2690614e83565b60405180910390fd5b600073ffffffffffffffffffffffffffffffffffffffff16816080015173ffffffffffffffffffffffffffffffffffffffff161480612da45750612d71613f1d565b73ffffffffffffffffffffffffffffffffffffffff16816080015173ffffffffffffffffffffffffffffffffffffffff16145b612de3576040517f08c379a0000000000000000000000000000000000000000000000000000000008152600401612dda90614e43565b60405180910390fd5b8060600151341015612e2a576040517f08c379a0000000000000000000000000000000000000000000000000000000008152600401612e2190614e23565b60405180910390fd5b6005600084815260200190815260200160002060009054906101000a900473ffffffffffffffffffffffffffffffffffffffff1673ffffffffffffffffffffffffffffffffffffffff16816040015173ffffffffffffffffffffffffffffffffffffffff1614612ecf576040517f08c379a0000000000000000000000000000000000000000000000000000000008152600401612ec690614d83565b60405180910390fd5b600081604001519050612ee0613f1d565b6005600086815260200190815260200160002060006101000a81548173ffffffffffffffffffffffffffffffffffffffff021916908373ffffffffffffffffffffffffffffffffffffffff160217905550600660008273ffffffffffffffffffffffffffffffffffffffff1673ffffffffffffffffffffffffffffffffffffffff1681526020019081526020016000206000815480929190612f8190615082565b919050555060066000612f92613f1d565b73ffffffffffffffffffffffffffffffffffffffff1673ffffffffffffffffffffffffffffffffffffffff1681526020019081526020016000206000815480929190612fdd9061510f565b9190505550612feb84613f25565b34607560008373ffffffffffffffffffffffffffffffffffffffff1673ffffffffffffffffffffffffffffffffffffffff168152602001908152602001600020600082825461303a9190614fb1565b92505081905550613049613f1d565b73ffffffffffffffffffffffffffffffffffffffff168173ffffffffffffffffffffffffffffffffffffffff16857f23bd6a7d776cc01b293e9573ef30f3328402c0477c502ed84c8f0ba1dcc094f6346040516130a69190614ea3565b60405180910390a46000604460008681526020019081526020016000206040518060800160405290816000820160009054906101000a900460ff16151515158152602001600182015481526020016002820160009054906101000a900473ffffffffffffffffffffffffffffffffffffffff1673ffffffffffffffffffffffffffffffffffffffff1673ffffffffffffffffffffffffffffffffffffffff168152602001600382015481525050905061315d613f1d565b73ffffffffffffffffffffffffffffffffffffffff16816040015173ffffffffffffffffffffffffffffffffffffffff1614156133bb578060600151607560006131a5613f1d565b73ffffffffffffffffffffffffffffffffffffffff1673ffffffffffffffffffffffffffffffffffffffff16815260200190815260200160002060008282546131ee9190614fb1565b925050819055506040518060800160405280600015158152602001868152602001600073ffffffffffffffffffffffffffffffffffffffff16815260200160008152506044600087815260200190815260200160002060008201518160000160006101000a81548160ff0219169083151502179055506020820151816001015560408201518160020160006101000a81548173ffffffffffffffffffffffffffffffffffffffff021916908373ffffffffffffffffffffffffffffffffffffffff160217905550606082015181600301559050506040518060800160405280600015158152602001868152602001600073ffffffffffffffffffffffffffffffffffffffff1681526020016000815250604586600c8110613338577f4e487b7100000000000000000000000000000000000000000000000000000000600052603260045260246000fd5b6004020160008201518160000160006101000a81548160ff0219169083151502179055506020820151816001015560408201518160020160006101000a81548173ffffffffffffffffffffffffffffffffffffffff021916908373ffffffffffffffffffffffffffffffffffffffff160217905550606082015181600301559050505b5050505050565b6133ca613f1d565b73ffffffffffffffffffffffffffffffffffffffff166133e8612575565b73ffffffffffffffffffffffffffffffffffffffff161461343e576040517f08c379a000000000000000000000000000000000000000000000000000000000815260040161343590614da3565b60405180910390fd5b806003548110613483576040517f08c379a000000000000000000000000000000000000000000000000000000000815260040161347a90614d63565b60405180910390fd5b8273ffffffffffffffffffffffffffffffffffffffff166005600084815260200190815260200160002060009054906101000a900473ffffffffffffffffffffffffffffffffffffffff1673ffffffffffffffffffffffffffffffffffffffff161415613525576040517f08c379a000000000000000000000000000000000000000000000000000000000815260040161351c90614cc3565b60405180910390fd5b600073ffffffffffffffffffffffffffffffffffffffff166005600084815260200190815260200160002060009054906101000a900473ffffffffffffffffffffffffffffffffffffffff1673ffffffffffffffffffffffffffffffffffffffff161461361557600660006005600085815260200190815260200160002060009054906101000a900473ffffffffffffffffffffffffffffffffffffffff1673ffffffffffffffffffffffffffffffffffffffff1673ffffffffffffffffffffffffffffffffffffffff168152602001908152602001600020600081548092919061360f90615082565b91905055505b826005600084815260200190815260200160002060006101000a81548173ffffffffffffffffffffffffffffffffffffffff021916908373ffffffffffffffffffffffffffffffffffffffff160217905550600660008473ffffffffffffffffffffffffffffffffffffffff1673ffffffffffffffffffffffffffffffffffffffff16815260200190815260200160002060008154809291906136b79061510f565b91905055508273ffffffffffffffffffffffffffffffffffffffff167f8a0e37b73a0d9c82e205d4d1a3ff3d0b57ce5f4d7bccf6bac03336dc101cb7ba836040516137029190614ea3565b60405180910390a2505050565b60045481565b600881600c811061372557600080fd5b600502016000915090508060000160009054906101000a900460ff16908060010154908060020160009054906101000a900473ffffffffffffffffffffffffffffffffffffffff16908060030154908060040160009054906101000a900473ffffffffffffffffffffffffffffffffffffffff16905085565b60056020528060005260406000206000915054906101000a900473ffffffffffffffffffffffffffffffffffffffff1681565b6137d961430c565b6008600c80602002604051908101604052809291906000905b828210156138f5578382600502016040518060a00160405290816000820160009054906101000a900460ff16151515158152602001600182015481526020016002820160009054906101000a900473ffffffffffffffffffffffffffffffffffffffff1673ffffffffffffffffffffffffffffffffffffffff1673ffffffffffffffffffffffffffffffffffffffff168152602001600382015481526020016004820160009054906101000a900473ffffffffffffffffffffffffffffffffffffffff1673ffffffffffffffffffffffffffffffffffffffff1673ffffffffffffffffffffffffffffffffffffffff1681525050815260200190600101906137f2565b50505050905090565b816003548110613943576040517f08c379a000000000000000000000000000000000000000000000000000000000815260040161393a90614d63565b60405180910390fd5b8261394c613f1d565b73ffffffffffffffffffffffffffffffffffffffff166005600083815260200190815260200160002060009054906101000a900473ffffffffffffffffffffffffffffffffffffffff1673ffffffffffffffffffffffffffffffffffffffff16146139ec576040517f08c379a00000000000000000000000000000000000000000000000000000000081526004016139e390614e63565b60405180910390fd5b6040518060a00160405280600115158152602001858152602001613a0e613f1d565b73ffffffffffffffffffffffffffffffffffffffff168152602001848152602001600073ffffffffffffffffffffffffffffffffffffffff168152506007600086815260200190815260200160002060008201518160000160006101000a81548160ff0219169083151502179055506020820151816001015560408201518160020160006101000a81548173ffffffffffffffffffffffffffffffffffffffff021916908373ffffffffffffffffffffffffffffffffffffffff1602179055506060820151816003015560808201518160040160006101000a81548173ffffffffffffffffffffffffffffffffffffffff021916908373ffffffffffffffffffffffffffffffffffffffff1602179055509050506040518060a00160405280600115158152602001858152602001613b44613f1d565b73ffffffffffffffffffffffffffffffffffffffff168152602001848152602001600073ffffffffffffffffffffffffffffffffffffffff16815250600885600c8110613bba577f4e487b7100000000000000000000000000000000000000000000000000000000600052603260045260246000fd5b6005020160008201518160000160006101000a81548160ff0219169083151502179055506020820151816001015560408201518160020160006101000a81548173ffffffffffffffffffffffffffffffffffffffff021916908373ffffffffffffffffffffffffffffffffffffffff1602179055506060820151816003015560808201518160040160006101000a81548173ffffffffffffffffffffffffffffffffffffffff021916908373ffffffffffffffffffffffffffffffffffffffff160217905550905050600073ffffffffffffffffffffffffffffffffffffffff16847fc7745c5ed59fb6521d8052f28bbbedc81ff4bdbe6860459067975d37eb4f9d4d85604051613ccb9190614ea3565b60405180910390a350505050565b613ce1613f1d565b73ffffffffffffffffffffffffffffffffffffffff16613cff612575565b73ffffffffffffffffffffffffffffffffffffffff1614613d55576040517f08c379a0000000000000000000000000000000000000000000000000000000008152600401613d4c90614da3565b60405180910390fd5b600073ffffffffffffffffffffffffffffffffffffffff168173ffffffffffffffffffffffffffffffffffffffff161415613dc5576040517f08c379a0000000000000000000000000000000000000000000000000000000008152600401613dbc90614ce3565b60405180910390fd5b8073ffffffffffffffffffffffffffffffffffffffff1660008054906101000a900473ffffffffffffffffffffffffffffffffffffffff1673ffffffffffffffffffffffffffffffffffffffff167f8be0079c531659141344cd1fd0a4f28419497f9722a3daafe3b4186f6b6457e060405160405180910390a3806000806101000a81548173ffffffffffffffffffffffffffffffffffffffff021916908373ffffffffffffffffffffffffffffffffffffffff16021790555050565b60756020528060005260406000206000915090505481565b60076020528060005260406000206000915090508060000160009054906101000a900460ff16908060010154908060020160009054906101000a900473ffffffffffffffffffffffffffffffffffffffff16908060030154908060040160009054906101000a900473ffffffffffffffffffffffffffffffffffffffff16905085565b600033905090565b806003548110613f6a576040517f08c379a0000000000000000000000000000000000000000000000000000000008152600401613f6190614d63565b60405180910390fd5b81613f73613f1d565b73ffffffffffffffffffffffffffffffffffffffff166005600083815260200190815260200160002060009054906101000a900473ffffffffffffffffffffffffffffffffffffffff1673ffffffffffffffffffffffffffffffffffffffff1614614013576040517f08c379a000000000000000000000000000000000000000000000000000000000815260040161400a90614e63565b60405180910390fd5b6040518060a00160405280600015158152602001848152602001614035613f1d565b73ffffffffffffffffffffffffffffffffffffffff16815260200160008152602001600073ffffffffffffffffffffffffffffffffffffffff168152506007600085815260200190815260200160002060008201518160000160006101000a81548160ff0219169083151502179055506020820151816001015560408201518160020160006101000a81548173ffffffffffffffffffffffffffffffffffffffff021916908373ffffffffffffffffffffffffffffffffffffffff1602179055506060820151816003015560808201518160040160006101000a81548173ffffffffffffffffffffffffffffffffffffffff021916908373ffffffffffffffffffffffffffffffffffffffff1602179055509050506040518060a0016040528060001515815260200184815260200161416c613f1d565b73ffffffffffffffffffffffffffffffffffffffff16815260200160008152602001600073ffffffffffffffffffffffffffffffffffffffff16815250600884600c81106141e3577f4e487b7100000000000000000000000000000000000000000000000000000000600052603260045260246000fd5b6005020160008201518160000160006101000a81548160ff0219169083151502179055506020820151816001015560408201518160020160006101000a81548173ffffffffffffffffffffffffffffffffffffffff021916908373ffffffffffffffffffffffffffffffffffffffff1602179055506060820151816003015560808201518160040160006101000a81548173ffffffffffffffffffffffffffffffffffffffff021916908373ffffffffffffffffffffffffffffffffffffffff160217905550905050827fffac6398132e5a7ffa281256055095adef949befe9b41a15f260a723ac3bcc4560405160405180910390a2505050565b604051806101800160405280600c905b6142f661433a565b8152602001906001900390816142ee5790505090565b604051806101800160405280600c905b61432461437a565b81526020019060019003908161431c5790505090565b604051806080016040528060001515815260200160008152602001600073ffffffffffffffffffffffffffffffffffffffff168152602001600081525090565b6040518060a0016040528060001515815260200160008152602001600073ffffffffffffffffffffffffffffffffffffffff16815260200160008152602001600073ffffffffffffffffffffffffffffffffffffffff1681525090565b60006143ea6143e584614ee3565b614ebe565b9050808382526020820190508285602086028201111561440957600080fd5b60005b85811015614439578161441f88826144af565b84526020840193506020830192505060018101905061440c565b5050509392505050565b600061445661445184614f0f565b614ebe565b9050808382526020820190508285602086028201111561447557600080fd5b60005b858110156144a5578161448b8882614518565b845260208401935060208301925050600181019050614478565b5050509392505050565b6000813590506144be81615596565b92915050565b600082601f8301126144d557600080fd5b81356144e58482602086016143d7565b91505092915050565b600082601f8301126144ff57600080fd5b813561450f848260208601614443565b91505092915050565b600081359050614527816155ad565b92915050565b60006020828403121561453f57600080fd5b600061454d848285016144af565b91505092915050565b6000806040838503121561456957600080fd5b6000614577858286016144af565b925050602061458885828601614518565b9150509250929050565b600080604083850312156145a557600080fd5b600083013567ffffffffffffffff8111156145bf57600080fd5b6145cb858286016144c4565b925050602083013567ffffffffffffffff8111156145e857600080fd5b6145f4858286016144ee565b9150509250929050565b60006020828403121561461057600080fd5b600061461e84828501614518565b91505092915050565b6000806040838503121561463a57600080fd5b600061464885828601614518565b925050602061465985828601614518565b9150509250929050565b60008060006060848603121561467857600080fd5b600061468686828701614518565b935050602061469786828701614518565b92505060406146a8868287016144af565b9150509250925092565b60006146be8383614a7b565b60808301905092915050565b60006146d68383614ad0565b60a08301905092915050565b6146eb81615007565b82525050565b6146fa81615007565b82525050565b61470981614f4f565b6147138184614f8a565b925061471e82614f3b565b8060005b8381101561474f57815161473687826146b2565b965061474183614f70565b925050600181019050614722565b505050505050565b61476081614f5a565b61476a8184614f95565b925061477582614f45565b8060005b838110156147a657815161478d87826146ca565b965061479883614f7d565b925050600181019050614779565b505050505050565b6147b781615019565b82525050565b6147c681615019565b82525050565b60006147d782614f65565b6147e18185614fa0565b93506147f181856020860161504f565b6147fa816151e5565b840191505092915050565b6000614812602383614fa0565b915061481d826151f6565b604082019050919050565b6000614835601683614fa0565b915061484082615245565b602082019050919050565b6000614858602a83614fa0565b91506148638261526e565b604082019050919050565b600061487b601983614fa0565b9150614886826152bd565b602082019050919050565b600061489e602683614fa0565b91506148a9826152e6565b604082019050919050565b60006148c1601183614fa0565b91506148cc82615335565b602082019050919050565b60006148e4600d83614fa0565b91506148ef8261535e565b602082019050919050565b6000614907601783614fa0565b915061491282615387565b602082019050919050565b600061492a601383614fa0565b9150614935826153b0565b602082019050919050565b600061494d601f83614fa0565b9150614958826153d9565b602082019050919050565b6000614970602083614fa0565b915061497b82615402565b602082019050919050565b6000614993602c83614fa0565b915061499e8261542b565b604082019050919050565b60006149b6601283614fa0565b91506149c18261547a565b602082019050919050565b60006149d9601583614fa0565b91506149e4826154a3565b602082019050919050565b60006149fc602083614fa0565b9150614a07826154cc565b602082019050919050565b6000614a1f602183614fa0565b9150614a2a826154f5565b604082019050919050565b6000614a42601183614fa0565b9150614a4d82615544565b602082019050919050565b6000614a65601583614fa0565b9150614a708261556d565b602082019050919050565b608082016000820151614a9160008501826147ae565b506020820151614aa46020850182614b38565b506040820151614ab760408501826146e2565b506060820151614aca6060850182614b38565b50505050565b60a082016000820151614ae660008501826147ae565b506020820151614af96020850182614b38565b506040820151614b0c60408501826146e2565b506060820151614b1f6060850182614b38565b506080820151614b3260808501826146e2565b50505050565b614b4181615045565b82525050565b614b5081615045565b82525050565b6000602082019050614b6b60008301846146f1565b92915050565b600061060082019050614b876000830184614700565b92915050565b600061078082019050614ba36000830184614757565b92915050565b6000608082019050614bbe60008301876147bd565b614bcb6020830186614b47565b614bd860408301856146f1565b614be56060830184614b47565b95945050505050565b600060a082019050614c0360008301886147bd565b614c106020830187614b47565b614c1d60408301866146f1565b614c2a6060830185614b47565b614c3760808301846146f1565b9695505050505050565b60006020820190508181036000830152614c5b81846147cc565b905092915050565b60006020820190508181036000830152614c7c81614805565b9050919050565b60006020820190508181036000830152614c9c81614828565b9050919050565b60006020820190508181036000830152614cbc8161484b565b9050919050565b60006020820190508181036000830152614cdc8161486e565b9050919050565b60006020820190508181036000830152614cfc81614891565b9050919050565b60006020820190508181036000830152614d1c816148b4565b9050919050565b60006020820190508181036000830152614d3c816148d7565b9050919050565b60006020820190508181036000830152614d5c816148fa565b9050919050565b60006020820190508181036000830152614d7c8161491d565b9050919050565b60006020820190508181036000830152614d9c81614940565b9050919050565b60006020820190508181036000830152614dbc81614963565b9050919050565b60006020820190508181036000830152614ddc81614986565b9050919050565b60006020820190508181036000830152614dfc816149a9565b9050919050565b60006020820190508181036000830152614e1c816149cc565b9050919050565b60006020820190508181036000830152614e3c816149ef565b9050919050565b60006020820190508181036000830152614e5c81614a12565b9050919050565b60006020820190508181036000830152614e7c81614a35565b9050919050565b60006020820190508181036000830152614e9c81614a58565b9050919050565b6000602082019050614eb86000830184614b47565b92915050565b6000614ec8614ed9565b9050614ed482826150de565b919050565b6000604051905090565b600067ffffffffffffffff821115614efe57614efd6151b6565b5b602082029050602081019050919050565b600067ffffffffffffffff821115614f2a57614f296151b6565b5b602082029050602081019050919050565b6000819050919050565b6000819050919050565b6000600c9050919050565b6000600c9050919050565b600081519050919050565b6000602082019050919050565b6000602082019050919050565b600081905092915050565b600081905092915050565b600082825260208201905092915050565b6000614fbc82615045565b9150614fc783615045565b9250827fffffffffffffffffffffffffffffffffffffffffffffffffffffffffffffffff03821115614ffc57614ffb615158565b5b828201905092915050565b600061501282615025565b9050919050565b60008115159050919050565b600073ffffffffffffffffffffffffffffffffffffffff82169050919050565b6000819050919050565b60005b8381101561506d578082015181840152602081019050615052565b8381111561507c576000848401525b50505050565b600061508d82615045565b915060008214156150a1576150a0615158565b5b600182039050919050565b600060028204905060018216806150c457607f821691505b602082108114156150d8576150d7615187565b5b50919050565b6150e7826151e5565b810181811067ffffffffffffffff82111715615106576151056151b6565b5b80604052505050565b600061511a82615045565b91507fffffffffffffffffffffffffffffffffffffffffffffffffffffffffffffffff82141561514d5761514c615158565b5b600182019050919050565b7f4e487b7100000000000000000000000000000000000000000000000000000000600052601160045260246000fd5b7f4e487b7100000000000000000000000000000000000000000000000000000000600052602260045260246000fd5b7f4e487b7100000000000000000000000000000000000000000000000000000000600052604160045260246000fd5b6000601f19601f8301169050919050565b7f5370616365206d757374206265206c6f6e6720746f20656d707479206164647260008201527f6573730000000000000000000000000000000000000000000000000000000000602082015250565b7f596f7520617265206e6f74207468652062696464657200000000000000000000600082015250565b7f56616c7565206d7573742062652067726561746572207468616e20746865206860008201527f6967686573742062696400000000000000000000000000000000000000000000602082015250565b7f4d75737420626520646966666572656e74206164647265737300000000000000600082015250565b7f4f776e61626c653a206e6577206f776e657220697320746865207a65726f206160008201527f6464726573730000000000000000000000000000000000000000000000000000602082015250565b7f4f776e65722063616e206e6f7420626964000000000000000000000000000000600082015250565b7f4e6f207370616365206c65667400000000000000000000000000000000000000600082015250565b7f4269642076616c7565206d757374206e6f742062652030000000000000000000600082015250565b7f496e76616c696420737061636520696e64657800000000000000000000000000600082015250565b7f53656c6c6572206e6f206c6f6e676572206f776e6572206f6620737061636500600082015250565b7f4f776e61626c653a2063616c6c6572206973206e6f7420746865206f776e6572600082015250565b7f4269642076616c7565206d7573742062652067726561746572206f722065717560008201527f616c206d696e2070726963650000000000000000000000000000000000000000602082015250565b7f56616c75652063616e206e6f7420626520300000000000000000000000000000600082015250565b7f5370616365206d7573742068617665206f776e65720000000000000000000000600082015250565b7f596f75206d75737420627579206d6f7265207468616e206d696e2076616c7565600082015250565b7f546869732073706163652063616e206e6f7420626520736f6c6420746f20796f60008201527f7500000000000000000000000000000000000000000000000000000000000000602082015250565b7f596f7520617265206e6f74206f776e6572000000000000000000000000000000600082015250565b7f5370616365206973206e6f7420666f722073616c650000000000000000000000600082015250565b61559f81615007565b81146155aa57600080fd5b50565b6155b681615045565b81146155c157600080fd5b5056fea264697066735822122086bcb8d53c13e8753372d0fc9fe22d5e4e9e320a95d352a257d8661223bc98a164736f6c63430008040033",
  "linkReferences": {},
  "deployedLinkReferences": {}
}