{
  "_format": "hh-sol-artifact-1",
  "contractName": "NapaCryptoSpaceMarket",
  "sourceName": "contracts/NapaCryptoSpaceMarket.sol",
  "abi": [
    {
      "inputs": [],
      "stateMutability": "nonpayable",
      "type": "constructor"
    },
    {
      "anonymous": false,
      "inputs": [
        {
          "indexed": true,
          "internalType": "address",
          "name": "to",
          "type": "address"
        },
        {
          "indexed": false,
          "internalType": "uint256",
          "name": "spaceIndex",
          "type": "uint256"
        }
      ],
      "name": "Assign",
      "type": "event"
    },
    {
      "anonymous": false,
      "inputs": [
        {
          "indexed": true,
          "internalType": "address",
          "name": "from",
          "type": "address"
        },
        {
          "indexed": true,
          "internalType": "address",
          "name": "to",
          "type": "address"
        },
        {
          "indexed": false,
          "internalType": "uint256",
          "name": "value",
          "type": "uint256"
        }
      ],
      "name": "ETHTransfer",
      "type": "event"
    },
    {
      "anonymous": false,
      "inputs": [
        {
          "indexed": true,
          "internalType": "address",
          "name": "previousOwner",
          "type": "address"
        },
        {
          "indexed": true,
          "internalType": "address",
          "name": "newOwner",
          "type": "address"
        }
      ],
      "name": "OwnershipTransferred",
      "type": "event"
    },
    {
      "anonymous": false,
      "inputs": [
        {
          "indexed": true,
          "internalType": "uint256",
          "name": "spaceIndex",
          "type": "uint256"
        },
        {
          "indexed": false,
          "internalType": "uint256",
          "name": "value",
          "type": "uint256"
        }
      ],
      "name": "SpaceBidEntered",
      "type": "event"
    },
    {
      "anonymous": false,
      "inputs": [
        {
          "indexed": true,
          "internalType": "uint256",
          "name": "spaceIndex",
          "type": "uint256"
        },
        {
          "indexed": false,
          "internalType": "uint256",
          "name": "value",
          "type": "uint256"
        }
      ],
      "name": "SpaceBidWithdrawn",
      "type": "event"
    },
    {
      "anonymous": false,
      "inputs": [
        {
          "indexed": true,
          "internalType": "uint256",
          "name": "spaceIndex",
          "type": "uint256"
        },
        {
          "indexed": false,
          "internalType": "uint256",
          "name": "value",
          "type": "uint256"
        },
        {
          "indexed": true,
          "internalType": "address",
          "name": "fromAddress",
          "type": "address"
        },
        {
          "indexed": true,
          "internalType": "address",
          "name": "toAddress",
          "type": "address"
        }
      ],
      "name": "SpaceBought",
      "type": "event"
    },
    {
      "anonymous": false,
      "inputs": [
        {
          "indexed": true,
          "internalType": "uint256",
          "name": "spaceIndex",
          "type": "uint256"
        }
      ],
      "name": "SpaceNoLongerForSale",
      "type": "event"
    },
    {
      "anonymous": false,
      "inputs": [
        {
          "indexed": true,
          "internalType": "uint256",
          "name": "spaceIndex",
          "type": "uint256"
        },
        {
          "indexed": false,
          "internalType": "uint256",
          "name": "minValue",
          "type": "uint256"
        },
        {
          "indexed": true,
          "internalType": "address",
          "name": "toAddress",
          "type": "address"
        }
      ],
      "name": "SpaceOffered",
      "type": "event"
    },
    {
      "anonymous": false,
      "inputs": [
        {
          "indexed": true,
          "internalType": "address",
          "name": "from",
          "type": "address"
        },
        {
          "indexed": true,
          "internalType": "address",
          "name": "to",
          "type": "address"
        },
        {
          "indexed": false,
          "internalType": "uint256",
          "name": "spaceIndex",
          "type": "uint256"
        }
      ],
      "name": "SpaceTransfer",
      "type": "event"
    },
    {
      "inputs": [
        {
          "internalType": "uint256",
          "name": "spaceIndex",
          "type": "uint256"
        },
        {
          "internalType": "uint256",
          "name": "minPrice",
          "type": "uint256"
        }
      ],
      "name": "acceptBidForSpace",
      "outputs": [],
      "stateMutability": "nonpayable",
      "type": "function"
    },
    {
      "inputs": [
        {
          "internalType": "address",
          "name": "",
          "type": "address"
        }
      ],
      "name": "balanceOf",
      "outputs": [
        {
          "internalType": "uint256",
          "name": "",
          "type": "uint256"
        }
      ],
      "stateMutability": "view",
      "type": "function"
    },
    {
      "inputs": [
        {
          "internalType": "uint256",
          "name": "spaceIndex",
          "type": "uint256"
        }
      ],
      "name": "buySpace",
      "outputs": [],
      "stateMutability": "payable",
      "type": "function"
    },
    {
      "inputs": [
        {
          "internalType": "uint256",
          "name": "spaceIndex",
          "type": "uint256"
        }
      ],
      "name": "enterBidForSpace",
      "outputs": [],
      "stateMutability": "payable",
      "type": "function"
    },
    {
      "inputs": [
        {
          "internalType": "uint256",
          "name": "spaceIndex",
          "type": "uint256"
        }
      ],
      "name": "getSpace",
      "outputs": [],
      "stateMutability": "nonpayable",
      "type": "function"
    },
    {
      "inputs": [],
      "name": "name",
      "outputs": [
        {
          "internalType": "string",
          "name": "",
          "type": "string"
        }
      ],
      "stateMutability": "view",
      "type": "function"
    },
    {
      "inputs": [
        {
          "internalType": "uint256",
          "name": "spaceIndex",
          "type": "uint256"
        },
        {
          "internalType": "uint256",
          "name": "minSalePriceInWei",
          "type": "uint256"
        }
      ],
      "name": "offerSpaceForSale",
      "outputs": [],
      "stateMutability": "nonpayable",
      "type": "function"
    },
    {
      "inputs": [
        {
          "internalType": "uint256",
          "name": "spaceIndex",
          "type": "uint256"
        },
        {
          "internalType": "uint256",
          "name": "minSalePriceInWei",
          "type": "uint256"
        },
        {
          "internalType": "address",
          "name": "toAddress",
          "type": "address"
        }
      ],
      "name": "offerSpaceForSaleToAddress",
      "outputs": [],
      "stateMutability": "nonpayable",
      "type": "function"
    },
    {
      "inputs": [],
      "name": "owner",
      "outputs": [
        {
          "internalType": "address",
          "name": "",
          "type": "address"
        }
      ],
      "stateMutability": "view",
      "type": "function"
    },
    {
      "inputs": [
        {
          "internalType": "address",
          "name": "",
          "type": "address"
        }
      ],
      "name": "pendingWithdrawals",
      "outputs": [
        {
          "internalType": "uint256",
          "name": "",
          "type": "uint256"
        }
      ],
      "stateMutability": "view",
      "type": "function"
    },
    {
      "inputs": [],
      "name": "renounceOwnership",
      "outputs": [],
      "stateMutability": "nonpayable",
      "type": "function"
    },
    {
      "inputs": [],
      "name": "returnSpaceIndexToAddressArray",
      "outputs": [
        {
          "internalType": "address[12]",
          "name": "",
          "type": "address[12]"
        }
      ],
      "stateMutability": "view",
      "type": "function"
    },
    {
      "inputs": [],
      "name": "returnSpacesBidsArray",
      "outputs": [
        {
          "components": [
            {
              "internalType": "bool",
              "name": "hasBid",
              "type": "bool"
            },
            {
              "internalType": "uint256",
              "name": "spaceIndex",
              "type": "uint256"
            },
            {
              "internalType": "address",
              "name": "bidder",
              "type": "address"
            },
            {
              "internalType": "uint256",
              "name": "value",
              "type": "uint256"
            }
          ],
          "internalType": "struct NapaCryptoSpaceMarket.Bid[12]",
          "name": "",
          "type": "tuple[12]"
        }
      ],
      "stateMutability": "view",
      "type": "function"
    },
    {
      "inputs": [],
      "name": "returnSpacesOfferedForSaleArray",
      "outputs": [
        {
          "components": [
            {
              "internalType": "bool",
              "name": "isForSale",
              "type": "bool"
            },
            {
              "internalType": "uint256",
              "name": "spaceIndex",
              "type": "uint256"
            },
            {
              "internalType": "address",
              "name": "seller",
              "type": "address"
            },
            {
              "internalType": "uint256",
              "name": "minValue",
              "type": "uint256"
            },
            {
              "internalType": "address",
              "name": "onlySellTo",
              "type": "address"
            }
          ],
          "internalType": "struct NapaCryptoSpaceMarket.Offer[12]",
          "name": "",
          "type": "tuple[12]"
        }
      ],
      "stateMutability": "view",
      "type": "function"
    },
    {
      "inputs": [
        {
          "internalType": "address",
          "name": "to",
          "type": "address"
        },
        {
          "internalType": "uint256",
          "name": "spaceIndex",
          "type": "uint256"
        }
      ],
      "name": "setInitialOwner",
      "outputs": [],
      "stateMutability": "nonpayable",
      "type": "function"
    },
    {
      "inputs": [
        {
          "internalType": "address[]",
          "name": "addresses",
          "type": "address[]"
        },
        {
          "internalType": "uint256[]",
          "name": "indices",
          "type": "uint256[]"
        }
      ],
      "name": "setInitialOwners",
      "outputs": [],
      "stateMutability": "nonpayable",
      "type": "function"
    },
    {
      "inputs": [
        {
          "internalType": "uint256",
          "name": "",
          "type": "uint256"
        }
      ],
      "name": "spaceBids",
      "outputs": [
        {
          "internalType": "bool",
          "name": "hasBid",
          "type": "bool"
        },
        {
          "internalType": "uint256",
          "name": "spaceIndex",
          "type": "uint256"
        },
        {
          "internalType": "address",
          "name": "bidder",
          "type": "address"
        },
        {
          "internalType": "uint256",
          "name": "value",
          "type": "uint256"
        }
      ],
      "stateMutability": "view",
      "type": "function"
    },
    {
      "inputs": [
        {
          "internalType": "uint256",
          "name": "",
          "type": "uint256"
        }
      ],
      "name": "spaceBidsArray",
      "outputs": [
        {
          "internalType": "bool",
          "name": "hasBid",
          "type": "bool"
        },
        {
          "internalType": "uint256",
          "name": "spaceIndex",
          "type": "uint256"
        },
        {
          "internalType": "address",
          "name": "bidder",
          "type": "address"
        },
        {
          "internalType": "uint256",
          "name": "value",
          "type": "uint256"
        }
      ],
      "stateMutability": "view",
      "type": "function"
    },
    {
      "inputs": [
        {
          "internalType": "uint256",
          "name": "",
          "type": "uint256"
        }
      ],
      "name": "spaceIndexToAddress",
      "outputs": [
        {
          "internalType": "address",
          "name": "",
          "type": "address"
        }
      ],
      "stateMutability": "view",
      "type": "function"
    },
    {
      "inputs": [
        {
          "internalType": "uint256",
          "name": "",
          "type": "uint256"
        }
      ],
      "name": "spaceIndexToAddressArray",
      "outputs": [
        {
          "internalType": "address",
          "name": "",
          "type": "address"
        }
      ],
      "stateMutability": "view",
      "type": "function"
    },
    {
      "inputs": [
        {
          "internalType": "uint256",
          "name": "",
          "type": "uint256"
        }
      ],
      "name": "spacesOfferedForSale",
      "outputs": [
        {
          "internalType": "bool",
          "name": "isForSale",
          "type": "bool"
        },
        {
          "internalType": "uint256",
          "name": "spaceIndex",
          "type": "uint256"
        },
        {
          "internalType": "address",
          "name": "seller",
          "type": "address"
        },
        {
          "internalType": "uint256",
          "name": "minValue",
          "type": "uint256"
        },
        {
          "internalType": "address",
          "name": "onlySellTo",
          "type": "address"
        }
      ],
      "stateMutability": "view",
      "type": "function"
    },
    {
      "inputs": [
        {
          "internalType": "uint256",
          "name": "",
          "type": "uint256"
        }
      ],
      "name": "spacesOfferedForSaleArray",
      "outputs": [
        {
          "internalType": "bool",
          "name": "isForSale",
          "type": "bool"
        },
        {
          "internalType": "uint256",
          "name": "spaceIndex",
          "type": "uint256"
        },
        {
          "internalType": "address",
          "name": "seller",
          "type": "address"
        },
        {
          "internalType": "uint256",
          "name": "minValue",
          "type": "uint256"
        },
        {
          "internalType": "address",
          "name": "onlySellTo",
          "type": "address"
        }
      ],
      "stateMutability": "view",
      "type": "function"
    },
    {
      "inputs": [],
      "name": "spacesRemainingToAssign",
      "outputs": [
        {
          "internalType": "uint256",
          "name": "",
          "type": "uint256"
        }
      ],
      "stateMutability": "view",
      "type": "function"
    },
    {
      "inputs": [],
      "name": "symbol",
      "outputs": [
        {
          "internalType": "string",
          "name": "",
          "type": "string"
        }
      ],
      "stateMutability": "view",
      "type": "function"
    },
    {
      "inputs": [
        {
          "internalType": "address",
          "name": "newOwner",
          "type": "address"
        }
      ],
      "name": "transferOwnership",
      "outputs": [],
      "stateMutability": "nonpayable",
      "type": "function"
    },
    {
      "inputs": [
        {
          "internalType": "address",
          "name": "to",
          "type": "address"
        },
        {
          "internalType": "uint256",
          "name": "spaceIndex",
          "type": "uint256"
        }
      ],
      "name": "transferSpace",
      "outputs": [],
      "stateMutability": "nonpayable",
      "type": "function"
    },
    {
      "inputs": [],
      "name": "withdraw",
      "outputs": [],
      "stateMutability": "nonpayable",
      "type": "function"
    },
    {
      "inputs": [
        {
          "internalType": "uint256",
          "name": "spaceIndex",
          "type": "uint256"
        }
      ],
      "name": "withdrawBidForSpace",
      "outputs": [],
      "stateMutability": "nonpayable",
      "type": "function"
    }
  ],
  "bytecode": "0x60806040526127106003553480156200001757600080fd5b5060006200002a6200017360201b60201c565b9050806000806101000a81548173ffffffffffffffffffffffffffffffffffffffff021916908373ffffffffffffffffffffffffffffffffffffffff1602179055508073ffffffffffffffffffffffffffffffffffffffff16600073ffffffffffffffffffffffffffffffffffffffff167f8be0079c531659141344cd1fd0a4f28419497f9722a3daafe3b4186f6b6457e060405160405180910390a3506003546004819055506040518060400160405280600b81526020017f43525950544f5350414345000000000000000000000000000000000000000000815250600190805190602001906200011e9291906200017b565b506040518060400160405280600381526020017f4e43530000000000000000000000000000000000000000000000000000000000815250600290805190602001906200016c9291906200017b565b5062000290565b600033905090565b82805462000189906200022b565b90600052602060002090601f016020900481019282620001ad5760008555620001f9565b82601f10620001c857805160ff1916838001178555620001f9565b82800160010185558215620001f9579182015b82811115620001f8578251825591602001919060010190620001db565b5b5090506200020891906200020c565b5090565b5b80821115620002275760008160009055506001016200020d565b5090565b600060028204905060018216806200024457607f821691505b602082108114156200025b576200025a62000261565b5b50919050565b7f4e487b7100000000000000000000000000000000000000000000000000000000600052602260045260246000fd5b615a2480620002a06000396000f3fe6080604052600436106101b75760003560e01c80638de656bd116100ec578063d5d83af51161008a578063de80318d11610064578063de80318d146105e6578063f2fde38b1461060f578063f3f4370314610638578063ff7bdc0a14610675576101b7565b8063d5d83af51461053d578063da99c4201461057e578063dccd8827146105bb576101b7565b80639bd1332e116100c65780639bd1332e14610490578063a75a9049146104ac578063a797de94146104d5578063a7e761b314610500576101b7565b80638de656bd1461041157806395d89b411461043c578063994f42eb14610467576101b7565b80636178e8d111610159578063715018a611610133578063715018a61461037b57806378b95888146103925780637fa4f1d9146103bd5780638da5cb5b146103e6576101b7565b80636178e8d1146102ec57806370a082311461031557806370e1043114610352576101b7565b80633ccfd60b116101955780633ccfd60b1461025057806351d28bdb1461026757806354e39e88146102a75780635b795c7c146102d0576101b7565b806306fdde03146101bc5780632a89a35f146101e757806339c5dde614610227575b600080fd5b3480156101c857600080fd5b506101d16106b6565b6040516101de919061503e565b60405180910390f35b3480156101f357600080fd5b5061020e60048036038101906102099190614970565b610744565b60405161021e9493929190614fa6565b60405180910390f35b34801561023357600080fd5b5061024e60048036038101906102499190614904565b6107a7565b005b34801561025c57600080fd5b506102656108d7565b005b34801561027357600080fd5b5061028e60048036038101906102899190614970565b610a2b565b60405161029e9493929190614fa6565b60405180910390f35b3480156102b357600080fd5b506102ce60048036038101906102c99190614999565b610a88565b005b6102ea60048036038101906102e59190614970565b611368565b005b3480156102f857600080fd5b50610313600480360381019061030e91906148c8565b6118a4565b005b34801561032157600080fd5b5061033c6004803603810190610337919061489f565b611eb4565b60405161034991906152a0565b60405180910390f35b34801561035e57600080fd5b5061037960048036038101906103749190614970565b611ecc565b005b34801561038757600080fd5b506103906121a2565b005b34801561039e57600080fd5b506103a76122dc565b6040516103b49190614f6e565b60405180910390f35b3480156103c957600080fd5b506103e460048036038101906103df91906149d5565b6123b3565b005b3480156103f257600080fd5b506103fb61278c565b6040516104089190614f37565b60405180910390f35b34801561041d57600080fd5b506104266127b5565b6040516104339190614f52565b60405180910390f35b34801561044857600080fd5b50610451612836565b60405161045e919061503e565b60405180910390f35b34801561047357600080fd5b5061048e60048036038101906104899190614970565b6128c4565b005b6104aa60048036038101906104a59190614970565b612e41565b005b3480156104b857600080fd5b506104d360048036038101906104ce91906148c8565b6136db565b005b3480156104e157600080fd5b506104ea613a28565b6040516104f791906152a0565b60405180910390f35b34801561050c57600080fd5b5061052760048036038101906105229190614970565b613a2e565b6040516105349190614f37565b60405180910390f35b34801561054957600080fd5b50610564600480360381019061055f9190614970565b613a64565b604051610575959493929190614feb565b60405180910390f35b34801561058a57600080fd5b506105a560048036038101906105a09190614970565b613aed565b6040516105b29190614f37565b60405180910390f35b3480156105c757600080fd5b506105d0613b20565b6040516105dd9190614f8a565b60405180910390f35b3480156105f257600080fd5b5061060d60048036038101906106089190614999565b613c4d565b005b34801561061b57600080fd5b506106366004803603810190610631919061489f565b614028565b005b34801561064457600080fd5b5061065f600480360381019061065a919061489f565b6141d1565b60405161066c91906152a0565b60405180910390f35b34801561068157600080fd5b5061069c60048036038101906106979190614970565b6141e9565b6040516106ad959493929190614feb565b60405180910390f35b600180546106c3906154d6565b80601f01602080910402602001604051908101604052809291908181526020018280546106ef906154d6565b801561073c5780601f106107115761010080835404028352916020019161073c565b820191906000526020600020905b81548152906001019060200180831161071f57829003601f168201915b505050505081565b605181600c811061075457600080fd5b600402016000915090508060000160009054906101000a900460ff16908060010154908060020160009054906101000a900473ffffffffffffffffffffffffffffffffffffffff16908060030154905084565b6107af61426c565b73ffffffffffffffffffffffffffffffffffffffff166107cd61278c565b73ffffffffffffffffffffffffffffffffffffffff1614610823576040517f08c379a000000000000000000000000000000000000000000000000000000000815260040161081a906151a0565b60405180910390fd5b60008251905060005b818110156108d1576108be848281518110610870577f4e487b7100000000000000000000000000000000000000000000000000000000600052603260045260246000fd5b60200260200101518483815181106108b1577f4e487b7100000000000000000000000000000000000000000000000000000000600052603260045260246000fd5b60200260200101516136db565b80806108c990615539565b91505061082c565b50505050565b6000608160006108e561426c565b73ffffffffffffffffffffffffffffffffffffffff1673ffffffffffffffffffffffffffffffffffffffff16815260200190815260200160002054905060006081600061093061426c565b73ffffffffffffffffffffffffffffffffffffffff1673ffffffffffffffffffffffffffffffffffffffff1681526020019081526020016000208190555061097661426c565b73ffffffffffffffffffffffffffffffffffffffff166108fc829081150290604051600060405180830381858888f193505050501580156109bb573d6000803e3d6000fd5b506109c461426c565b73ffffffffffffffffffffffffffffffffffffffff163073ffffffffffffffffffffffffffffffffffffffff167fa96f45c7f021e61b3f486703c7db5ff1987ae3e6c1612b7085a0ded0270e967983604051610a2091906152a0565b60405180910390a350565b60506020528060005260406000206000915090508060000160009054906101000a900460ff16908060010154908060020160009054906101000a900473ffffffffffffffffffffffffffffffffffffffff16908060030154905084565b816003548110610acd576040517f08c379a0000000000000000000000000000000000000000000000000000000008152600401610ac490615160565b60405180910390fd5b82610ad661426c565b73ffffffffffffffffffffffffffffffffffffffff166005600083815260200190815260200160002060009054906101000a900473ffffffffffffffffffffffffffffffffffffffff1673ffffffffffffffffffffffffffffffffffffffff1614610b76576040517f08c379a0000000000000000000000000000000000000000000000000000000008152600401610b6d90615260565b60405180910390fd5b6000610b8061426c565b90506000605060008781526020019081526020016000206040518060800160405290816000820160009054906101000a900460ff16151515158152602001600182015481526020016002820160009054906101000a900473ffffffffffffffffffffffffffffffffffffffff1673ffffffffffffffffffffffffffffffffffffffff1673ffffffffffffffffffffffffffffffffffffffff1681526020016003820154815250509050600081606001511415610c71576040517f08c379a0000000000000000000000000000000000000000000000000000000008152600401610c6890615140565b60405180910390fd5b8481606001511015610cb8576040517f08c379a0000000000000000000000000000000000000000000000000000000008152600401610caf906151c0565b60405180910390fd5b80604001516005600088815260200190815260200160002060006101000a81548173ffffffffffffffffffffffffffffffffffffffff021916908373ffffffffffffffffffffffffffffffffffffffff1602179055508060400151600687600c8110610d4d577f4e487b7100000000000000000000000000000000000000000000000000000000600052603260045260246000fd5b0160006101000a81548173ffffffffffffffffffffffffffffffffffffffff021916908373ffffffffffffffffffffffffffffffffffffffff160217905550601260008373ffffffffffffffffffffffffffffffffffffffff1673ffffffffffffffffffffffffffffffffffffffff1681526020019081526020016000206000815480929190610ddc906154ac565b919050555060126000826040015173ffffffffffffffffffffffffffffffffffffffff1673ffffffffffffffffffffffffffffffffffffffff1681526020019081526020016000206000815480929190610e3590615539565b91905055506040518060a00160405280600015158152602001878152602001826040015173ffffffffffffffffffffffffffffffffffffffff16815260200160008152602001600073ffffffffffffffffffffffffffffffffffffffff168152506013600088815260200190815260200160002060008201518160000160006101000a81548160ff0219169083151502179055506020820151816001015560408201518160020160006101000a81548173ffffffffffffffffffffffffffffffffffffffff021916908373ffffffffffffffffffffffffffffffffffffffff1602179055506060820151816003015560808201518160040160006101000a81548173ffffffffffffffffffffffffffffffffffffffff021916908373ffffffffffffffffffffffffffffffffffffffff1602179055509050506040518060a00160405280600015158152602001878152602001826040015173ffffffffffffffffffffffffffffffffffffffff16815260200160008152602001600073ffffffffffffffffffffffffffffffffffffffff16815250601487600c8110611004577f4e487b7100000000000000000000000000000000000000000000000000000000600052603260045260246000fd5b6005020160008201518160000160006101000a81548160ff0219169083151502179055506020820151816001015560408201518160020160006101000a81548173ffffffffffffffffffffffffffffffffffffffff021916908373ffffffffffffffffffffffffffffffffffffffff1602179055506060820151816003015560808201518160040160006101000a81548173ffffffffffffffffffffffffffffffffffffffff021916908373ffffffffffffffffffffffffffffffffffffffff1602179055509050506000816060015190506040518060800160405280600015158152602001888152602001600073ffffffffffffffffffffffffffffffffffffffff16815260200160008152506050600089815260200190815260200160002060008201518160000160006101000a81548160ff0219169083151502179055506020820151816001015560408201518160020160006101000a81548173ffffffffffffffffffffffffffffffffffffffff021916908373ffffffffffffffffffffffffffffffffffffffff160217905550606082015181600301559050506040518060800160405280600015158152602001888152602001600073ffffffffffffffffffffffffffffffffffffffff1681526020016000815250605188600c8110611219577f4e487b7100000000000000000000000000000000000000000000000000000000600052603260045260246000fd5b6004020160008201518160000160006101000a81548160ff0219169083151502179055506020820151816001015560408201518160020160006101000a81548173ffffffffffffffffffffffffffffffffffffffff021916908373ffffffffffffffffffffffffffffffffffffffff1602179055506060820151816003015590505080608160008573ffffffffffffffffffffffffffffffffffffffff1673ffffffffffffffffffffffffffffffffffffffff16815260200190815260200160002060008282546112ea91906153db565b92505081905550816040015173ffffffffffffffffffffffffffffffffffffffff168373ffffffffffffffffffffffffffffffffffffffff16887f23bd6a7d776cc01b293e9573ef30f3328402c0477c502ed84c8f0ba1dcc094f6856060015160405161135791906152a0565b60405180910390a450505050505050565b8060035481106113ad576040517f08c379a00000000000000000000000000000000000000000000000000000000081526004016113a490615160565b60405180910390fd5b81600073ffffffffffffffffffffffffffffffffffffffff166005600083815260200190815260200160002060009054906101000a900473ffffffffffffffffffffffffffffffffffffffff1673ffffffffffffffffffffffffffffffffffffffff161415611451576040517f08c379a000000000000000000000000000000000000000000000000000000000815260040161144890615200565b60405180910390fd5b61145961426c565b73ffffffffffffffffffffffffffffffffffffffff166005600083815260200190815260200160002060009054906101000a900473ffffffffffffffffffffffffffffffffffffffff1673ffffffffffffffffffffffffffffffffffffffff1614156114fa576040517f08c379a00000000000000000000000000000000000000000000000000000000081526004016114f190615100565b60405180910390fd5b600034141561153e576040517f08c379a0000000000000000000000000000000000000000000000000000000008152600401611535906151e0565b60405180910390fd5b6000605060008581526020019081526020016000206040518060800160405290816000820160009054906101000a900460ff16151515158152602001600182015481526020016002820160009054906101000a900473ffffffffffffffffffffffffffffffffffffffff1673ffffffffffffffffffffffffffffffffffffffff1673ffffffffffffffffffffffffffffffffffffffff16815260200160038201548152505090508060600151341161162b576040517f08c379a0000000000000000000000000000000000000000000000000000000008152600401611622906150a0565b60405180910390fd5b60008160600151111561169757806060015160816000836040015173ffffffffffffffffffffffffffffffffffffffff1673ffffffffffffffffffffffffffffffffffffffff168152602001908152602001600020600082825461168f91906153db565b925050819055505b60405180608001604052806001151581526020018581526020016116b961426c565b73ffffffffffffffffffffffffffffffffffffffff168152602001348152506050600086815260200190815260200160002060008201518160000160006101000a81548160ff0219169083151502179055506020820151816001015560408201518160020160006101000a81548173ffffffffffffffffffffffffffffffffffffffff021916908373ffffffffffffffffffffffffffffffffffffffff16021790555060608201518160030155905050604051806080016040528060011515815260200185815260200161178b61426c565b73ffffffffffffffffffffffffffffffffffffffff16815260200134815250605185600c81106117e4577f4e487b7100000000000000000000000000000000000000000000000000000000600052603260045260246000fd5b6004020160008201518160000160006101000a81548160ff0219169083151502179055506020820151816001015560408201518160020160006101000a81548173ffffffffffffffffffffffffffffffffffffffff021916908373ffffffffffffffffffffffffffffffffffffffff16021790555060608201518160030155905050837f6c7774aa65846ab41024d9d3bf54d81c4949b1e05db79af29ac41c752817ab163460405161189691906152a0565b60405180910390a250505050565b8060035481106118e9576040517f08c379a00000000000000000000000000000000000000000000000000000000081526004016118e090615160565b60405180910390fd5b816118f261426c565b73ffffffffffffffffffffffffffffffffffffffff166005600083815260200190815260200160002060009054906101000a900473ffffffffffffffffffffffffffffffffffffffff1673ffffffffffffffffffffffffffffffffffffffff1614611992576040517f08c379a000000000000000000000000000000000000000000000000000000000815260040161198990615260565b60405180910390fd5b6013600084815260200190815260200160002060000160009054906101000a900460ff16156119c5576119c483614274565b5b836005600085815260200190815260200160002060006101000a81548173ffffffffffffffffffffffffffffffffffffffff021916908373ffffffffffffffffffffffffffffffffffffffff16021790555083600684600c8110611a52577f4e487b7100000000000000000000000000000000000000000000000000000000600052603260045260246000fd5b0160006101000a81548173ffffffffffffffffffffffffffffffffffffffff021916908373ffffffffffffffffffffffffffffffffffffffff16021790555060126000611a9d61426c565b73ffffffffffffffffffffffffffffffffffffffff1673ffffffffffffffffffffffffffffffffffffffff1681526020019081526020016000206000815480929190611ae8906154ac565b9190505550601260008573ffffffffffffffffffffffffffffffffffffffff1673ffffffffffffffffffffffffffffffffffffffff1681526020019081526020016000206000815480929190611b3d90615539565b91905055508373ffffffffffffffffffffffffffffffffffffffff16611b6161426c565b73ffffffffffffffffffffffffffffffffffffffff167f93637f65711d87b65eab15bd147a75be2ff4d04b41aaf70e10b062851190a39985604051611ba691906152a0565b60405180910390a36000605060008581526020019081526020016000206040518060800160405290816000820160009054906101000a900460ff16151515158152602001600182015481526020016002820160009054906101000a900473ffffffffffffffffffffffffffffffffffffffff1673ffffffffffffffffffffffffffffffffffffffff1673ffffffffffffffffffffffffffffffffffffffff16815260200160038201548152505090508473ffffffffffffffffffffffffffffffffffffffff16816040015173ffffffffffffffffffffffffffffffffffffffff161415611ead578060600151608160008773ffffffffffffffffffffffffffffffffffffffff1673ffffffffffffffffffffffffffffffffffffffff1681526020019081526020016000206000828254611ce091906153db565b925050819055506040518060800160405280600015158152602001858152602001600073ffffffffffffffffffffffffffffffffffffffff16815260200160008152506050600086815260200190815260200160002060008201518160000160006101000a81548160ff0219169083151502179055506020820151816001015560408201518160020160006101000a81548173ffffffffffffffffffffffffffffffffffffffff021916908373ffffffffffffffffffffffffffffffffffffffff160217905550606082015181600301559050506040518060800160405280600015158152602001858152602001600073ffffffffffffffffffffffffffffffffffffffff1681526020016000815250605185600c8110611e2a577f4e487b7100000000000000000000000000000000000000000000000000000000600052603260045260246000fd5b6004020160008201518160000160006101000a81548160ff0219169083151502179055506020820151816001015560408201518160020160006101000a81548173ffffffffffffffffffffffffffffffffffffffff021916908373ffffffffffffffffffffffffffffffffffffffff160217905550606082015181600301559050505b5050505050565b60126020528060005260406000206000915090505481565b806003548110611f11576040517f08c379a0000000000000000000000000000000000000000000000000000000008152600401611f0890615160565b60405180910390fd5b8160006004541415611f58576040517f08c379a0000000000000000000000000000000000000000000000000000000008152600401611f4f90615120565b60405180910390fd5b600073ffffffffffffffffffffffffffffffffffffffff166005600083815260200190815260200160002060009054906101000a900473ffffffffffffffffffffffffffffffffffffffff1673ffffffffffffffffffffffffffffffffffffffff1614611ffa576040517f08c379a0000000000000000000000000000000000000000000000000000000008152600401611ff190615060565b60405180910390fd5b61200261426c565b6005600085815260200190815260200160002060006101000a81548173ffffffffffffffffffffffffffffffffffffffff021916908373ffffffffffffffffffffffffffffffffffffffff16021790555061205b61426c565b600684600c8110612095577f4e487b7100000000000000000000000000000000000000000000000000000000600052603260045260246000fd5b0160006101000a81548173ffffffffffffffffffffffffffffffffffffffff021916908373ffffffffffffffffffffffffffffffffffffffff160217905550601260006120e061426c565b73ffffffffffffffffffffffffffffffffffffffff1673ffffffffffffffffffffffffffffffffffffffff168152602001908152602001600020600081548092919061212b90615539565b919050555060046000815480929190612143906154ac565b919050555061215061426c565b73ffffffffffffffffffffffffffffffffffffffff167f8a0e37b73a0d9c82e205d4d1a3ff3d0b57ce5f4d7bccf6bac03336dc101cb7ba8460405161219591906152a0565b60405180910390a2505050565b6121aa61426c565b73ffffffffffffffffffffffffffffffffffffffff166121c861278c565b73ffffffffffffffffffffffffffffffffffffffff161461221e576040517f08c379a0000000000000000000000000000000000000000000000000000000008152600401612215906151a0565b60405180910390fd5b600073ffffffffffffffffffffffffffffffffffffffff1660008054906101000a900473ffffffffffffffffffffffffffffffffffffffff1673ffffffffffffffffffffffffffffffffffffffff167f8be0079c531659141344cd1fd0a4f28419497f9722a3daafe3b4186f6b6457e060405160405180910390a360008060006101000a81548173ffffffffffffffffffffffffffffffffffffffff021916908373ffffffffffffffffffffffffffffffffffffffff160217905550565b6122e461462d565b6051600c80602002604051908101604052809291906000905b828210156123aa578382600402016040518060800160405290816000820160009054906101000a900460ff16151515158152602001600182015481526020016002820160009054906101000a900473ffffffffffffffffffffffffffffffffffffffff1673ffffffffffffffffffffffffffffffffffffffff1673ffffffffffffffffffffffffffffffffffffffff168152602001600382015481525050815260200190600101906122fd565b50505050905090565b8260035481106123f8576040517f08c379a00000000000000000000000000000000000000000000000000000000081526004016123ef90615160565b60405180910390fd5b8361240161426c565b73ffffffffffffffffffffffffffffffffffffffff166005600083815260200190815260200160002060009054906101000a900473ffffffffffffffffffffffffffffffffffffffff1673ffffffffffffffffffffffffffffffffffffffff16146124a1576040517f08c379a000000000000000000000000000000000000000000000000000000000815260040161249890615260565b60405180910390fd5b6040518060a001604052806001151581526020018681526020016124c361426c565b73ffffffffffffffffffffffffffffffffffffffff1681526020018581526020018473ffffffffffffffffffffffffffffffffffffffff168152506013600087815260200190815260200160002060008201518160000160006101000a81548160ff0219169083151502179055506020820151816001015560408201518160020160006101000a81548173ffffffffffffffffffffffffffffffffffffffff021916908373ffffffffffffffffffffffffffffffffffffffff1602179055506060820151816003015560808201518160040160006101000a81548173ffffffffffffffffffffffffffffffffffffffff021916908373ffffffffffffffffffffffffffffffffffffffff1602179055509050506040518060a001604052806001151581526020018681526020016125f861426c565b73ffffffffffffffffffffffffffffffffffffffff1681526020018581526020018473ffffffffffffffffffffffffffffffffffffffff16815250601486600c811061266d577f4e487b7100000000000000000000000000000000000000000000000000000000600052603260045260246000fd5b6005020160008201518160000160006101000a81548160ff0219169083151502179055506020820151816001015560408201518160020160006101000a81548173ffffffffffffffffffffffffffffffffffffffff021916908373ffffffffffffffffffffffffffffffffffffffff1602179055506060820151816003015560808201518160040160006101000a81548173ffffffffffffffffffffffffffffffffffffffff021916908373ffffffffffffffffffffffffffffffffffffffff1602179055509050508273ffffffffffffffffffffffffffffffffffffffff16857fc7745c5ed59fb6521d8052f28bbbedc81ff4bdbe6860459067975d37eb4f9d4d8660405161277d91906152a0565b60405180910390a35050505050565b60008060009054906101000a900473ffffffffffffffffffffffffffffffffffffffff16905090565b6127bd61465b565b6006600c806020026040519081016040528092919082600c801561282c576020028201915b8160009054906101000a900473ffffffffffffffffffffffffffffffffffffffff1673ffffffffffffffffffffffffffffffffffffffff16815260200190600101908083116127e2575b5050505050905090565b60028054612843906154d6565b80601f016020809104026020016040519081016040528092919081815260200182805461286f906154d6565b80156128bc5780601f10612891576101008083540402835291602001916128bc565b820191906000526020600020905b81548152906001019060200180831161289f57829003601f168201915b505050505081565b806003548110612909576040517f08c379a000000000000000000000000000000000000000000000000000000000815260040161290090615160565b60405180910390fd5b81600073ffffffffffffffffffffffffffffffffffffffff166005600083815260200190815260200160002060009054906101000a900473ffffffffffffffffffffffffffffffffffffffff1673ffffffffffffffffffffffffffffffffffffffff1614156129ad576040517f08c379a00000000000000000000000000000000000000000000000000000000081526004016129a490615200565b60405180910390fd5b6129b561426c565b73ffffffffffffffffffffffffffffffffffffffff166005600083815260200190815260200160002060009054906101000a900473ffffffffffffffffffffffffffffffffffffffff1673ffffffffffffffffffffffffffffffffffffffff161415612a56576040517f08c379a0000000000000000000000000000000000000000000000000000000008152600401612a4d90615100565b60405180910390fd5b6000605060008581526020019081526020016000206040518060800160405290816000820160009054906101000a900460ff16151515158152602001600182015481526020016002820160009054906101000a900473ffffffffffffffffffffffffffffffffffffffff1673ffffffffffffffffffffffffffffffffffffffff1673ffffffffffffffffffffffffffffffffffffffff1681526020016003820154815250509050612b0561426c565b73ffffffffffffffffffffffffffffffffffffffff16816040015173ffffffffffffffffffffffffffffffffffffffff1614612b76576040517f08c379a0000000000000000000000000000000000000000000000000000000008152600401612b6d90615080565b60405180910390fd5b837fb03733b7bfa62b05d6586f75b62255477eb894cb5cae3d6ba2c887050f284ca48260600151604051612baa91906152a0565b60405180910390a26000816060015190506040518060800160405280600015158152602001868152602001600073ffffffffffffffffffffffffffffffffffffffff16815260200160008152506050600087815260200190815260200160002060008201518160000160006101000a81548160ff0219169083151502179055506020820151816001015560408201518160020160006101000a81548173ffffffffffffffffffffffffffffffffffffffff021916908373ffffffffffffffffffffffffffffffffffffffff160217905550606082015181600301559050506040518060800160405280600015158152602001868152602001600073ffffffffffffffffffffffffffffffffffffffff1681526020016000815250605186600c8110612cfe577f4e487b7100000000000000000000000000000000000000000000000000000000600052603260045260246000fd5b6004020160008201518160000160006101000a81548160ff0219169083151502179055506020820151816001015560408201518160020160006101000a81548173ffffffffffffffffffffffffffffffffffffffff021916908373ffffffffffffffffffffffffffffffffffffffff16021790555060608201518160030155905050612d8861426c565b73ffffffffffffffffffffffffffffffffffffffff166108fc829081150290604051600060405180830381858888f19350505050158015612dcd573d6000803e3d6000fd5b50612dd661426c565b73ffffffffffffffffffffffffffffffffffffffff163073ffffffffffffffffffffffffffffffffffffffff167fa96f45c7f021e61b3f486703c7db5ff1987ae3e6c1612b7085a0ded0270e967983604051612e3291906152a0565b60405180910390a35050505050565b806003548110612e86576040517f08c379a0000000000000000000000000000000000000000000000000000000008152600401612e7d90615160565b60405180910390fd5b6000601360008481526020019081526020016000206040518060a00160405290816000820160009054906101000a900460ff16151515158152602001600182015481526020016002820160009054906101000a900473ffffffffffffffffffffffffffffffffffffffff1673ffffffffffffffffffffffffffffffffffffffff1673ffffffffffffffffffffffffffffffffffffffff168152602001600382015481526020016004820160009054906101000a900473ffffffffffffffffffffffffffffffffffffffff1673ffffffffffffffffffffffffffffffffffffffff1673ffffffffffffffffffffffffffffffffffffffff168152505090508060000151612fc7576040517f08c379a0000000000000000000000000000000000000000000000000000000008152600401612fbe90615280565b60405180910390fd5b600073ffffffffffffffffffffffffffffffffffffffff16816080015173ffffffffffffffffffffffffffffffffffffffff16148061303c575061300961426c565b73ffffffffffffffffffffffffffffffffffffffff16816080015173ffffffffffffffffffffffffffffffffffffffff16145b61307b576040517f08c379a000000000000000000000000000000000000000000000000000000000815260040161307290615240565b60405180910390fd5b80606001513410156130c2576040517f08c379a00000000000000000000000000000000000000000000000000000000081526004016130b990615220565b60405180910390fd5b6005600084815260200190815260200160002060009054906101000a900473ffffffffffffffffffffffffffffffffffffffff1673ffffffffffffffffffffffffffffffffffffffff16816040015173ffffffffffffffffffffffffffffffffffffffff1614613167576040517f08c379a000000000000000000000000000000000000000000000000000000000815260040161315e90615180565b60405180910390fd5b60008160400151905061317861426c565b6005600086815260200190815260200160002060006101000a81548173ffffffffffffffffffffffffffffffffffffffff021916908373ffffffffffffffffffffffffffffffffffffffff1602179055506131d161426c565b600685600c811061320b577f4e487b7100000000000000000000000000000000000000000000000000000000600052603260045260246000fd5b0160006101000a81548173ffffffffffffffffffffffffffffffffffffffff021916908373ffffffffffffffffffffffffffffffffffffffff160217905550601260008273ffffffffffffffffffffffffffffffffffffffff1673ffffffffffffffffffffffffffffffffffffffff168152602001908152602001600020600081548092919061329a906154ac565b9190505550601260006132ab61426c565b73ffffffffffffffffffffffffffffffffffffffff1673ffffffffffffffffffffffffffffffffffffffff16815260200190815260200160002060008154809291906132f690615539565b919050555061330484614274565b34608160008373ffffffffffffffffffffffffffffffffffffffff1673ffffffffffffffffffffffffffffffffffffffff168152602001908152602001600020600082825461335391906153db565b9250508190555061336261426c565b73ffffffffffffffffffffffffffffffffffffffff168173ffffffffffffffffffffffffffffffffffffffff16857f23bd6a7d776cc01b293e9573ef30f3328402c0477c502ed84c8f0ba1dcc094f6346040516133bf91906152a0565b60405180910390a46000605060008681526020019081526020016000206040518060800160405290816000820160009054906101000a900460ff16151515158152602001600182015481526020016002820160009054906101000a900473ffffffffffffffffffffffffffffffffffffffff1673ffffffffffffffffffffffffffffffffffffffff1673ffffffffffffffffffffffffffffffffffffffff168152602001600382015481525050905061347661426c565b73ffffffffffffffffffffffffffffffffffffffff16816040015173ffffffffffffffffffffffffffffffffffffffff1614156136d4578060600151608160006134be61426c565b73ffffffffffffffffffffffffffffffffffffffff1673ffffffffffffffffffffffffffffffffffffffff168152602001908152602001600020600082825461350791906153db565b925050819055506040518060800160405280600015158152602001868152602001600073ffffffffffffffffffffffffffffffffffffffff16815260200160008152506050600087815260200190815260200160002060008201518160000160006101000a81548160ff0219169083151502179055506020820151816001015560408201518160020160006101000a81548173ffffffffffffffffffffffffffffffffffffffff021916908373ffffffffffffffffffffffffffffffffffffffff160217905550606082015181600301559050506040518060800160405280600015158152602001868152602001600073ffffffffffffffffffffffffffffffffffffffff1681526020016000815250605186600c8110613651577f4e487b7100000000000000000000000000000000000000000000000000000000600052603260045260246000fd5b6004020160008201518160000160006101000a81548160ff0219169083151502179055506020820151816001015560408201518160020160006101000a81548173ffffffffffffffffffffffffffffffffffffffff021916908373ffffffffffffffffffffffffffffffffffffffff160217905550606082015181600301559050505b5050505050565b6136e361426c565b73ffffffffffffffffffffffffffffffffffffffff1661370161278c565b73ffffffffffffffffffffffffffffffffffffffff1614613757576040517f08c379a000000000000000000000000000000000000000000000000000000000815260040161374e906151a0565b60405180910390fd5b80600354811061379c576040517f08c379a000000000000000000000000000000000000000000000000000000000815260040161379390615160565b60405180910390fd5b8273ffffffffffffffffffffffffffffffffffffffff166005600084815260200190815260200160002060009054906101000a900473ffffffffffffffffffffffffffffffffffffffff1673ffffffffffffffffffffffffffffffffffffffff16141561383e576040517f08c379a0000000000000000000000000000000000000000000000000000000008152600401613835906150c0565b60405180910390fd5b600073ffffffffffffffffffffffffffffffffffffffff166005600084815260200190815260200160002060009054906101000a900473ffffffffffffffffffffffffffffffffffffffff1673ffffffffffffffffffffffffffffffffffffffff161461392e57601260006005600085815260200190815260200160002060009054906101000a900473ffffffffffffffffffffffffffffffffffffffff1673ffffffffffffffffffffffffffffffffffffffff1673ffffffffffffffffffffffffffffffffffffffff1681526020019081526020016000206000815480929190613928906154ac565b91905055505b826005600084815260200190815260200160002060006101000a81548173ffffffffffffffffffffffffffffffffffffffff021916908373ffffffffffffffffffffffffffffffffffffffff160217905550601260008473ffffffffffffffffffffffffffffffffffffffff1673ffffffffffffffffffffffffffffffffffffffff16815260200190815260200160002060008154809291906139d090615539565b91905055508273ffffffffffffffffffffffffffffffffffffffff167f8a0e37b73a0d9c82e205d4d1a3ff3d0b57ce5f4d7bccf6bac03336dc101cb7ba83604051613a1b91906152a0565b60405180910390a2505050565b60045481565b600681600c8110613a3e57600080fd5b016000915054906101000a900473ffffffffffffffffffffffffffffffffffffffff1681565b601481600c8110613a7457600080fd5b600502016000915090508060000160009054906101000a900460ff16908060010154908060020160009054906101000a900473ffffffffffffffffffffffffffffffffffffffff16908060030154908060040160009054906101000a900473ffffffffffffffffffffffffffffffffffffffff16905085565b60056020528060005260406000206000915054906101000a900473ffffffffffffffffffffffffffffffffffffffff1681565b613b2861467e565b6014600c80602002604051908101604052809291906000905b82821015613c44578382600502016040518060a00160405290816000820160009054906101000a900460ff16151515158152602001600182015481526020016002820160009054906101000a900473ffffffffffffffffffffffffffffffffffffffff1673ffffffffffffffffffffffffffffffffffffffff1673ffffffffffffffffffffffffffffffffffffffff168152602001600382015481526020016004820160009054906101000a900473ffffffffffffffffffffffffffffffffffffffff1673ffffffffffffffffffffffffffffffffffffffff1673ffffffffffffffffffffffffffffffffffffffff168152505081526020019060010190613b41565b50505050905090565b816003548110613c92576040517f08c379a0000000000000000000000000000000000000000000000000000000008152600401613c8990615160565b60405180910390fd5b82613c9b61426c565b73ffffffffffffffffffffffffffffffffffffffff166005600083815260200190815260200160002060009054906101000a900473ffffffffffffffffffffffffffffffffffffffff1673ffffffffffffffffffffffffffffffffffffffff1614613d3b576040517f08c379a0000000000000000000000000000000000000000000000000000000008152600401613d3290615260565b60405180910390fd5b6040518060a00160405280600115158152602001858152602001613d5d61426c565b73ffffffffffffffffffffffffffffffffffffffff168152602001848152602001600073ffffffffffffffffffffffffffffffffffffffff168152506013600086815260200190815260200160002060008201518160000160006101000a81548160ff0219169083151502179055506020820151816001015560408201518160020160006101000a81548173ffffffffffffffffffffffffffffffffffffffff021916908373ffffffffffffffffffffffffffffffffffffffff1602179055506060820151816003015560808201518160040160006101000a81548173ffffffffffffffffffffffffffffffffffffffff021916908373ffffffffffffffffffffffffffffffffffffffff1602179055509050506040518060a00160405280600115158152602001858152602001613e9361426c565b73ffffffffffffffffffffffffffffffffffffffff168152602001848152602001600073ffffffffffffffffffffffffffffffffffffffff16815250601485600c8110613f09577f4e487b7100000000000000000000000000000000000000000000000000000000600052603260045260246000fd5b6005020160008201518160000160006101000a81548160ff0219169083151502179055506020820151816001015560408201518160020160006101000a81548173ffffffffffffffffffffffffffffffffffffffff021916908373ffffffffffffffffffffffffffffffffffffffff1602179055506060820151816003015560808201518160040160006101000a81548173ffffffffffffffffffffffffffffffffffffffff021916908373ffffffffffffffffffffffffffffffffffffffff160217905550905050600073ffffffffffffffffffffffffffffffffffffffff16847fc7745c5ed59fb6521d8052f28bbbedc81ff4bdbe6860459067975d37eb4f9d4d8560405161401a91906152a0565b60405180910390a350505050565b61403061426c565b73ffffffffffffffffffffffffffffffffffffffff1661404e61278c565b73ffffffffffffffffffffffffffffffffffffffff16146140a4576040517f08c379a000000000000000000000000000000000000000000000000000000000815260040161409b906151a0565b60405180910390fd5b600073ffffffffffffffffffffffffffffffffffffffff168173ffffffffffffffffffffffffffffffffffffffff161415614114576040517f08c379a000000000000000000000000000000000000000000000000000000000815260040161410b906150e0565b60405180910390fd5b8073ffffffffffffffffffffffffffffffffffffffff1660008054906101000a900473ffffffffffffffffffffffffffffffffffffffff1673ffffffffffffffffffffffffffffffffffffffff167f8be0079c531659141344cd1fd0a4f28419497f9722a3daafe3b4186f6b6457e060405160405180910390a3806000806101000a81548173ffffffffffffffffffffffffffffffffffffffff021916908373ffffffffffffffffffffffffffffffffffffffff16021790555050565b60816020528060005260406000206000915090505481565b60136020528060005260406000206000915090508060000160009054906101000a900460ff16908060010154908060020160009054906101000a900473ffffffffffffffffffffffffffffffffffffffff16908060030154908060040160009054906101000a900473ffffffffffffffffffffffffffffffffffffffff16905085565b600033905090565b8060035481106142b9576040517f08c379a00000000000000000000000000000000000000000000000000000000081526004016142b090615160565b60405180910390fd5b816142c261426c565b73ffffffffffffffffffffffffffffffffffffffff166005600083815260200190815260200160002060009054906101000a900473ffffffffffffffffffffffffffffffffffffffff1673ffffffffffffffffffffffffffffffffffffffff1614614362576040517f08c379a000000000000000000000000000000000000000000000000000000000815260040161435990615260565b60405180910390fd5b6040518060a0016040528060001515815260200184815260200161438461426c565b73ffffffffffffffffffffffffffffffffffffffff16815260200160008152602001600073ffffffffffffffffffffffffffffffffffffffff168152506013600085815260200190815260200160002060008201518160000160006101000a81548160ff0219169083151502179055506020820151816001015560408201518160020160006101000a81548173ffffffffffffffffffffffffffffffffffffffff021916908373ffffffffffffffffffffffffffffffffffffffff1602179055506060820151816003015560808201518160040160006101000a81548173ffffffffffffffffffffffffffffffffffffffff021916908373ffffffffffffffffffffffffffffffffffffffff1602179055509050506040518060a001604052806000151581526020018481526020016144bb61426c565b73ffffffffffffffffffffffffffffffffffffffff16815260200160008152602001600073ffffffffffffffffffffffffffffffffffffffff16815250601484600c8110614532577f4e487b7100000000000000000000000000000000000000000000000000000000600052603260045260246000fd5b6005020160008201518160000160006101000a81548160ff0219169083151502179055506020820151816001015560408201518160020160006101000a81548173ffffffffffffffffffffffffffffffffffffffff021916908373ffffffffffffffffffffffffffffffffffffffff1602179055506060820151816003015560808201518160040160006101000a81548173ffffffffffffffffffffffffffffffffffffffff021916908373ffffffffffffffffffffffffffffffffffffffff160217905550905050827fffac6398132e5a7ffa281256055095adef949befe9b41a15f260a723ac3bcc4560405160405180910390a2505050565b604051806101800160405280600c905b6146456146ac565b81526020019060019003908161463d5790505090565b604051806101800160405280600c90602082028036833780820191505090505090565b604051806101800160405280600c905b6146966146ec565b81526020019060019003908161468e5790505090565b604051806080016040528060001515815260200160008152602001600073ffffffffffffffffffffffffffffffffffffffff168152602001600081525090565b6040518060a0016040528060001515815260200160008152602001600073ffffffffffffffffffffffffffffffffffffffff16815260200160008152602001600073ffffffffffffffffffffffffffffffffffffffff1681525090565b600061475c614757846152e0565b6152bb565b9050808382526020820190508285602086028201111561477b57600080fd5b60005b858110156147ab57816147918882614821565b84526020840193506020830192505060018101905061477e565b5050509392505050565b60006147c86147c38461530c565b6152bb565b905080838252602082019050828560208602820111156147e757600080fd5b60005b8581101561481757816147fd888261488a565b8452602084019350602083019250506001810190506147ea565b5050509392505050565b600081359050614830816159c0565b92915050565b600082601f83011261484757600080fd5b8135614857848260208601614749565b91505092915050565b600082601f83011261487157600080fd5b81356148818482602086016147b5565b91505092915050565b600081359050614899816159d7565b92915050565b6000602082840312156148b157600080fd5b60006148bf84828501614821565b91505092915050565b600080604083850312156148db57600080fd5b60006148e985828601614821565b92505060206148fa8582860161488a565b9150509250929050565b6000806040838503121561491757600080fd5b600083013567ffffffffffffffff81111561493157600080fd5b61493d85828601614836565b925050602083013567ffffffffffffffff81111561495a57600080fd5b61496685828601614860565b9150509250929050565b60006020828403121561498257600080fd5b60006149908482850161488a565b91505092915050565b600080604083850312156149ac57600080fd5b60006149ba8582860161488a565b92505060206149cb8582860161488a565b9150509250929050565b6000806000606084860312156149ea57600080fd5b60006149f88682870161488a565b9350506020614a098682870161488a565b9250506040614a1a86828701614821565b9150509250925092565b6000614a308383614a6c565b60208301905092915050565b6000614a488383614e5c565b60808301905092915050565b6000614a608383614eb1565b60a08301905092915050565b614a7581615431565b82525050565b614a8481615431565b82525050565b614a9381615356565b614a9d81846153a9565b9250614aa882615338565b8060005b83811015614ad9578151614ac08782614a24565b9650614acb83615382565b925050600181019050614aac565b505050505050565b614aea81615361565b614af481846153b4565b9250614aff82615342565b8060005b83811015614b30578151614b178782614a3c565b9650614b228361538f565b925050600181019050614b03565b505050505050565b614b418161536c565b614b4b81846153bf565b9250614b568261534c565b8060005b83811015614b87578151614b6e8782614a54565b9650614b798361539c565b925050600181019050614b5a565b505050505050565b614b9881615443565b82525050565b614ba781615443565b82525050565b6000614bb882615377565b614bc281856153ca565b9350614bd2818560208601615479565b614bdb8161560f565b840191505092915050565b6000614bf36023836153ca565b9150614bfe82615620565b604082019050919050565b6000614c166016836153ca565b9150614c218261566f565b602082019050919050565b6000614c39602a836153ca565b9150614c4482615698565b604082019050919050565b6000614c5c6019836153ca565b9150614c67826156e7565b602082019050919050565b6000614c7f6026836153ca565b9150614c8a82615710565b604082019050919050565b6000614ca26011836153ca565b9150614cad8261575f565b602082019050919050565b6000614cc5600d836153ca565b9150614cd082615788565b602082019050919050565b6000614ce86017836153ca565b9150614cf3826157b1565b602082019050919050565b6000614d0b6013836153ca565b9150614d16826157da565b602082019050919050565b6000614d2e601f836153ca565b9150614d3982615803565b602082019050919050565b6000614d516020836153ca565b9150614d5c8261582c565b602082019050919050565b6000614d74602c836153ca565b9150614d7f82615855565b604082019050919050565b6000614d976012836153ca565b9150614da2826158a4565b602082019050919050565b6000614dba6015836153ca565b9150614dc5826158cd565b602082019050919050565b6000614ddd6020836153ca565b9150614de8826158f6565b602082019050919050565b6000614e006021836153ca565b9150614e0b8261591f565b604082019050919050565b6000614e236011836153ca565b9150614e2e8261596e565b602082019050919050565b6000614e466015836153ca565b9150614e5182615997565b602082019050919050565b608082016000820151614e726000850182614b8f565b506020820151614e856020850182614f19565b506040820151614e986040850182614a6c565b506060820151614eab6060850182614f19565b50505050565b60a082016000820151614ec76000850182614b8f565b506020820151614eda6020850182614f19565b506040820151614eed6040850182614a6c565b506060820151614f006060850182614f19565b506080820151614f136080850182614a6c565b50505050565b614f228161546f565b82525050565b614f318161546f565b82525050565b6000602082019050614f4c6000830184614a7b565b92915050565b600061018082019050614f686000830184614a8a565b92915050565b600061060082019050614f846000830184614ae1565b92915050565b600061078082019050614fa06000830184614b38565b92915050565b6000608082019050614fbb6000830187614b9e565b614fc86020830186614f28565b614fd56040830185614a7b565b614fe26060830184614f28565b95945050505050565b600060a0820190506150006000830188614b9e565b61500d6020830187614f28565b61501a6040830186614a7b565b6150276060830185614f28565b6150346080830184614a7b565b9695505050505050565b600060208201905081810360008301526150588184614bad565b905092915050565b6000602082019050818103600083015261507981614be6565b9050919050565b6000602082019050818103600083015261509981614c09565b9050919050565b600060208201905081810360008301526150b981614c2c565b9050919050565b600060208201905081810360008301526150d981614c4f565b9050919050565b600060208201905081810360008301526150f981614c72565b9050919050565b6000602082019050818103600083015261511981614c95565b9050919050565b6000602082019050818103600083015261513981614cb8565b9050919050565b6000602082019050818103600083015261515981614cdb565b9050919050565b6000602082019050818103600083015261517981614cfe565b9050919050565b6000602082019050818103600083015261519981614d21565b9050919050565b600060208201905081810360008301526151b981614d44565b9050919050565b600060208201905081810360008301526151d981614d67565b9050919050565b600060208201905081810360008301526151f981614d8a565b9050919050565b6000602082019050818103600083015261521981614dad565b9050919050565b6000602082019050818103600083015261523981614dd0565b9050919050565b6000602082019050818103600083015261525981614df3565b9050919050565b6000602082019050818103600083015261527981614e16565b9050919050565b6000602082019050818103600083015261529981614e39565b9050919050565b60006020820190506152b56000830184614f28565b92915050565b60006152c56152d6565b90506152d18282615508565b919050565b6000604051905090565b600067ffffffffffffffff8211156152fb576152fa6155e0565b5b602082029050602081019050919050565b600067ffffffffffffffff821115615327576153266155e0565b5b602082029050602081019050919050565b6000819050919050565b6000819050919050565b6000819050919050565b6000600c9050919050565b6000600c9050919050565b6000600c9050919050565b600081519050919050565b6000602082019050919050565b6000602082019050919050565b6000602082019050919050565b600081905092915050565b600081905092915050565b600081905092915050565b600082825260208201905092915050565b60006153e68261546f565b91506153f18361546f565b9250827fffffffffffffffffffffffffffffffffffffffffffffffffffffffffffffffff0382111561542657615425615582565b5b828201905092915050565b600061543c8261544f565b9050919050565b60008115159050919050565b600073ffffffffffffffffffffffffffffffffffffffff82169050919050565b6000819050919050565b60005b8381101561549757808201518184015260208101905061547c565b838111156154a6576000848401525b50505050565b60006154b78261546f565b915060008214156154cb576154ca615582565b5b600182039050919050565b600060028204905060018216806154ee57607f821691505b60208210811415615502576155016155b1565b5b50919050565b6155118261560f565b810181811067ffffffffffffffff821117156155305761552f6155e0565b5b80604052505050565b60006155448261546f565b91507fffffffffffffffffffffffffffffffffffffffffffffffffffffffffffffffff82141561557757615576615582565b5b600182019050919050565b7f4e487b7100000000000000000000000000000000000000000000000000000000600052601160045260246000fd5b7f4e487b7100000000000000000000000000000000000000000000000000000000600052602260045260246000fd5b7f4e487b7100000000000000000000000000000000000000000000000000000000600052604160045260246000fd5b6000601f19601f8301169050919050565b7f5370616365206d757374206265206c6f6e6720746f20656d707479206164647260008201527f6573730000000000000000000000000000000000000000000000000000000000602082015250565b7f596f7520617265206e6f74207468652062696464657200000000000000000000600082015250565b7f56616c7565206d7573742062652067726561746572207468616e20746865206860008201527f6967686573742062696400000000000000000000000000000000000000000000602082015250565b7f4d75737420626520646966666572656e74206164647265737300000000000000600082015250565b7f4f776e61626c653a206e6577206f776e657220697320746865207a65726f206160008201527f6464726573730000000000000000000000000000000000000000000000000000602082015250565b7f4f776e65722063616e206e6f7420626964000000000000000000000000000000600082015250565b7f4e6f207370616365206c65667400000000000000000000000000000000000000600082015250565b7f4269642076616c7565206d757374206e6f742062652030000000000000000000600082015250565b7f496e76616c696420737061636520696e64657800000000000000000000000000600082015250565b7f53656c6c6572206e6f206c6f6e676572206f776e6572206f6620737061636500600082015250565b7f4f776e61626c653a2063616c6c6572206973206e6f7420746865206f776e6572600082015250565b7f4269642076616c7565206d7573742062652067726561746572206f722065717560008201527f616c206d696e2070726963650000000000000000000000000000000000000000602082015250565b7f56616c75652063616e206e6f7420626520300000000000000000000000000000600082015250565b7f5370616365206d7573742068617665206f776e65720000000000000000000000600082015250565b7f596f75206d75737420627579206d6f7265207468616e206d696e2076616c7565600082015250565b7f546869732073706163652063616e206e6f7420626520736f6c6420746f20796f60008201527f7500000000000000000000000000000000000000000000000000000000000000602082015250565b7f596f7520617265206e6f74206f776e6572000000000000000000000000000000600082015250565b7f5370616365206973206e6f7420666f722073616c650000000000000000000000600082015250565b6159c981615431565b81146159d457600080fd5b50565b6159e08161546f565b81146159eb57600080fd5b5056fea2646970667358221220cfb4fbd0f3f6085124fd32d2c3d78a46db60f2273605f0d6605d319d39b722ad64736f6c63430008040033",
  "linkReferences": {},
  "deployedLinkReferences": {}
}