{
  "_format": "hh-sol-artifact-1",
  "contractName": "NapaCryptoSpaceMarket",
  "sourceName": "contracts/NapaCryptoSpaceMarket.sol",
  "abi": [
    {
      "inputs": [
        {
          "internalType": "address",
          "name": "_stAddress",
          "type": "address"
        }
      ],
      "stateMutability": "nonpayable",
      "type": "constructor"
    },
    {
      "anonymous": false,
      "inputs": [
        {
          "indexed": true,
          "internalType": "address",
          "name": "to",
          "type": "address"
        },
        {
          "indexed": false,
          "internalType": "uint256",
          "name": "spaceId",
          "type": "uint256"
        }
      ],
      "name": "Assign",
      "type": "event"
    },
    {
      "anonymous": false,
      "inputs": [
        {
          "indexed": true,
          "internalType": "address",
          "name": "from",
          "type": "address"
        },
        {
          "indexed": true,
          "internalType": "address",
          "name": "to",
          "type": "address"
        },
        {
          "indexed": false,
          "internalType": "uint256",
          "name": "value",
          "type": "uint256"
        }
      ],
      "name": "ETHTransfer",
      "type": "event"
    },
    {
      "anonymous": false,
      "inputs": [
        {
          "indexed": true,
          "internalType": "address",
          "name": "previousOwner",
          "type": "address"
        },
        {
          "indexed": true,
          "internalType": "address",
          "name": "newOwner",
          "type": "address"
        }
      ],
      "name": "OwnershipTransferred",
      "type": "event"
    },
    {
      "anonymous": false,
      "inputs": [
        {
          "indexed": true,
          "internalType": "uint256",
          "name": "spaceId",
          "type": "uint256"
        },
        {
          "indexed": false,
          "internalType": "uint256",
          "name": "value",
          "type": "uint256"
        }
      ],
      "name": "SpaceBidEntered",
      "type": "event"
    },
    {
      "anonymous": false,
      "inputs": [
        {
          "indexed": true,
          "internalType": "uint256",
          "name": "spaceId",
          "type": "uint256"
        },
        {
          "indexed": false,
          "internalType": "uint256",
          "name": "value",
          "type": "uint256"
        }
      ],
      "name": "SpaceBidWithdrawn",
      "type": "event"
    },
    {
      "anonymous": false,
      "inputs": [
        {
          "indexed": true,
          "internalType": "uint256",
          "name": "spaceId",
          "type": "uint256"
        },
        {
          "indexed": false,
          "internalType": "uint256",
          "name": "value",
          "type": "uint256"
        },
        {
          "indexed": true,
          "internalType": "address",
          "name": "fromAddress",
          "type": "address"
        },
        {
          "indexed": true,
          "internalType": "address",
          "name": "toAddress",
          "type": "address"
        }
      ],
      "name": "SpaceBought",
      "type": "event"
    },
    {
      "anonymous": false,
      "inputs": [
        {
          "indexed": true,
          "internalType": "uint256",
          "name": "spaceId",
          "type": "uint256"
        }
      ],
      "name": "SpaceNoLongerForSale",
      "type": "event"
    },
    {
      "anonymous": false,
      "inputs": [
        {
          "indexed": true,
          "internalType": "uint256",
          "name": "spaceId",
          "type": "uint256"
        },
        {
          "indexed": false,
          "internalType": "uint256",
          "name": "minValue",
          "type": "uint256"
        },
        {
          "indexed": true,
          "internalType": "address",
          "name": "toAddress",
          "type": "address"
        }
      ],
      "name": "SpaceOffered",
      "type": "event"
    },
    {
      "anonymous": false,
      "inputs": [
        {
          "indexed": true,
          "internalType": "address",
          "name": "from",
          "type": "address"
        },
        {
          "indexed": true,
          "internalType": "address",
          "name": "to",
          "type": "address"
        },
        {
          "indexed": false,
          "internalType": "uint256",
          "name": "spaceId",
          "type": "uint256"
        }
      ],
      "name": "SpaceTransfer",
      "type": "event"
    },
    {
      "inputs": [
        {
          "internalType": "uint256",
          "name": "spaceId",
          "type": "uint256"
        },
        {
          "internalType": "uint256",
          "name": "minPrice",
          "type": "uint256"
        }
      ],
      "name": "acceptBidForSpace",
      "outputs": [],
      "stateMutability": "nonpayable",
      "type": "function"
    },
    {
      "inputs": [
        {
          "internalType": "address",
          "name": "",
          "type": "address"
        }
      ],
      "name": "balanceOf",
      "outputs": [
        {
          "internalType": "uint256",
          "name": "",
          "type": "uint256"
        }
      ],
      "stateMutability": "view",
      "type": "function"
    },
    {
      "inputs": [
        {
          "internalType": "uint256",
          "name": "spaceId",
          "type": "uint256"
        }
      ],
      "name": "buySpace",
      "outputs": [],
      "stateMutability": "payable",
      "type": "function"
    },
    {
      "inputs": [
        {
          "internalType": "uint256",
          "name": "spaceId",
          "type": "uint256"
        }
      ],
      "name": "enterBidForSpace",
      "outputs": [],
      "stateMutability": "payable",
      "type": "function"
    },
    {
      "inputs": [
        {
          "internalType": "uint256",
          "name": "spaceId",
          "type": "uint256"
        }
      ],
      "name": "getSpace",
      "outputs": [],
      "stateMutability": "nonpayable",
      "type": "function"
    },
    {
      "inputs": [],
      "name": "name",
      "outputs": [
        {
          "internalType": "string",
          "name": "",
          "type": "string"
        }
      ],
      "stateMutability": "view",
      "type": "function"
    },
    {
      "inputs": [
        {
          "internalType": "uint256",
          "name": "spaceId",
          "type": "uint256"
        },
        {
          "internalType": "uint256",
          "name": "minSalePriceInWei",
          "type": "uint256"
        }
      ],
      "name": "offerSpaceForSale",
      "outputs": [],
      "stateMutability": "nonpayable",
      "type": "function"
    },
    {
      "inputs": [
        {
          "internalType": "uint256",
          "name": "spaceId",
          "type": "uint256"
        },
        {
          "internalType": "uint256",
          "name": "minSalePriceInWei",
          "type": "uint256"
        },
        {
          "internalType": "address",
          "name": "toAddress",
          "type": "address"
        }
      ],
      "name": "offerSpaceForSaleToAddress",
      "outputs": [],
      "stateMutability": "nonpayable",
      "type": "function"
    },
    {
      "inputs": [],
      "name": "owner",
      "outputs": [
        {
          "internalType": "address",
          "name": "",
          "type": "address"
        }
      ],
      "stateMutability": "view",
      "type": "function"
    },
    {
      "inputs": [
        {
          "internalType": "address",
          "name": "",
          "type": "address"
        }
      ],
      "name": "pendingWithdrawals",
      "outputs": [
        {
          "internalType": "uint256",
          "name": "",
          "type": "uint256"
        }
      ],
      "stateMutability": "view",
      "type": "function"
    },
    {
      "inputs": [
        {
          "internalType": "uint256",
          "name": "_n",
          "type": "uint256"
        }
      ],
      "name": "returnSpaceIndexToAddressArray",
      "outputs": [
        {
          "internalType": "address[]",
          "name": "",
          "type": "address[]"
        }
      ],
      "stateMutability": "view",
      "type": "function"
    },
    {
      "inputs": [
        {
          "internalType": "uint256",
          "name": "_n",
          "type": "uint256"
        }
      ],
      "name": "returnSpacesBidsArray",
      "outputs": [
        {
          "components": [
            {
              "internalType": "bool",
              "name": "hasBid",
              "type": "bool"
            },
            {
              "internalType": "uint256",
              "name": "spaceIndex",
              "type": "uint256"
            },
            {
              "internalType": "address",
              "name": "bidder",
              "type": "address"
            },
            {
              "internalType": "uint256",
              "name": "value",
              "type": "uint256"
            }
          ],
          "internalType": "struct NapaCryptoSpaceMarket.Bid[]",
          "name": "",
          "type": "tuple[]"
        }
      ],
      "stateMutability": "view",
      "type": "function"
    },
    {
      "inputs": [
        {
          "internalType": "uint256",
          "name": "_n",
          "type": "uint256"
        }
      ],
      "name": "returnSpacesOfferedForSaleArray",
      "outputs": [
        {
          "components": [
            {
              "internalType": "bool",
              "name": "isForSale",
              "type": "bool"
            },
            {
              "internalType": "uint256",
              "name": "spaceIndex",
              "type": "uint256"
            },
            {
              "internalType": "address",
              "name": "seller",
              "type": "address"
            },
            {
              "internalType": "uint256",
              "name": "minValue",
              "type": "uint256"
            },
            {
              "internalType": "address",
              "name": "onlySellTo",
              "type": "address"
            }
          ],
          "internalType": "struct NapaCryptoSpaceMarket.Offer[]",
          "name": "",
          "type": "tuple[]"
        }
      ],
      "stateMutability": "view",
      "type": "function"
    },
    {
      "inputs": [
        {
          "internalType": "uint256",
          "name": "",
          "type": "uint256"
        }
      ],
      "name": "spaceBids",
      "outputs": [
        {
          "internalType": "bool",
          "name": "hasBid",
          "type": "bool"
        },
        {
          "internalType": "uint256",
          "name": "spaceIndex",
          "type": "uint256"
        },
        {
          "internalType": "address",
          "name": "bidder",
          "type": "address"
        },
        {
          "internalType": "uint256",
          "name": "value",
          "type": "uint256"
        }
      ],
      "stateMutability": "view",
      "type": "function"
    },
    {
      "inputs": [],
      "name": "spaceTokenContract",
      "outputs": [
        {
          "internalType": "address",
          "name": "",
          "type": "address"
        }
      ],
      "stateMutability": "view",
      "type": "function"
    },
    {
      "inputs": [
        {
          "internalType": "uint256",
          "name": "",
          "type": "uint256"
        }
      ],
      "name": "spacesOfferedForSale",
      "outputs": [
        {
          "internalType": "bool",
          "name": "isForSale",
          "type": "bool"
        },
        {
          "internalType": "uint256",
          "name": "spaceIndex",
          "type": "uint256"
        },
        {
          "internalType": "address",
          "name": "seller",
          "type": "address"
        },
        {
          "internalType": "uint256",
          "name": "minValue",
          "type": "uint256"
        },
        {
          "internalType": "address",
          "name": "onlySellTo",
          "type": "address"
        }
      ],
      "stateMutability": "view",
      "type": "function"
    },
    {
      "inputs": [],
      "name": "symbol",
      "outputs": [
        {
          "internalType": "string",
          "name": "",
          "type": "string"
        }
      ],
      "stateMutability": "view",
      "type": "function"
    },
    {
      "inputs": [
        {
          "internalType": "address",
          "name": "newOwner",
          "type": "address"
        }
      ],
      "name": "transferOwnership",
      "outputs": [],
      "stateMutability": "nonpayable",
      "type": "function"
    },
    {
      "inputs": [
        {
          "internalType": "address",
          "name": "to",
          "type": "address"
        },
        {
          "internalType": "uint256",
          "name": "spaceId",
          "type": "uint256"
        }
      ],
      "name": "transferSpace",
      "outputs": [],
      "stateMutability": "nonpayable",
      "type": "function"
    },
    {
      "inputs": [],
      "name": "withdraw",
      "outputs": [],
      "stateMutability": "nonpayable",
      "type": "function"
    },
    {
      "inputs": [
        {
          "internalType": "uint256",
          "name": "spaceId",
          "type": "uint256"
        }
      ],
      "name": "withdrawBidForSpace",
      "outputs": [],
      "stateMutability": "nonpayable",
      "type": "function"
    }
  ],
  "bytecode": "0x608060405234801561001057600080fd5b506040516200239a3803806200239a83398101604081905261003191610097565b600080546001600160a01b031916339081178255604051909182917f8be0079c531659141344cd1fd0a4f28419497f9722a3daafe3b4186f6b6457e0908290a350600380546001600160a01b0319166001600160a01b03929092169190911790556100c5565b6000602082840312156100a8578081fd5b81516001600160a01b03811681146100be578182fd5b9392505050565b6122c580620000d56000396000f3fe60806040526004361061012a5760003560e01c80638da5cb5b116100ab578063a1b29cc71161006f578063a1b29cc714610396578063de80318d146103c3578063e8807e89146103e3578063f2fde38b14610403578063f3f4370314610423578063ff7bdc0a1461045057600080fd5b80638da5cb5b146102ef57806395d89b4114610321578063977750d614610336578063994f42eb146103635780639bd1332e1461038357600080fd5b80636178e8d1116100f25780636178e8d11461022757806370a082311461024757806370e10431146102825780637fa4f1d9146102a25780638cac9ddf146102c257600080fd5b806306fdde031461012f5780633ccfd60b1461015a57806351d28bdb1461017157806354e39e88146101f45780635b795c7c14610214575b600080fd5b34801561013b57600080fd5b506101446104df565b60405161015191906121ad565b60405180910390f35b34801561016657600080fd5b5061016f61056d565b005b34801561017d57600080fd5b506101c361018c366004611fc6565b600660205260009081526040902080546001820154600283015460039093015460ff9092169290916001600160a01b039091169084565b6040516101519493929190931515845260208401929092526001600160a01b03166040830152606082015260800190565b34801561020057600080fd5b5061016f61020f366004611fde565b6105e9565b61016f610222366004611fc6565b6109a3565b34801561023357600080fd5b5061016f610242366004611f9b565b610c53565b34801561025357600080fd5b50610274610262366004611f5c565b60046020526000908152604090205481565b604051908152602001610151565b34801561028e57600080fd5b5061016f61029d366004611fc6565b610e89565b3480156102ae57600080fd5b5061016f6102bd366004611fff565b61106d565b3480156102ce57600080fd5b506102e26102dd366004611fc6565b6111ad565b60405161015191906120cf565b3480156102fb57600080fd5b506000546001600160a01b03165b6040516001600160a01b039091168152602001610151565b34801561032d57600080fd5b506101446112ce565b34801561034257600080fd5b50610356610351366004611fc6565b6112db565b604051610151919061213e565b34801561036f57600080fd5b5061016f61037e366004611fc6565b611409565b61016f610391366004611fc6565b611684565b3480156103a257600080fd5b506103b66103b1366004611fc6565b611acf565b6040516101519190612082565b3480156103cf57600080fd5b5061016f6103de366004611fde565b611bf7565b3480156103ef57600080fd5b50600354610309906001600160a01b031681565b34801561040f57600080fd5b5061016f61041e366004611f5c565b611d29565b34801561042f57600080fd5b5061027461043e366004611f5c565b60076020526000908152604090205481565b34801561045c57600080fd5b506104a961046b366004611fc6565b6005602052600090815260409020805460018201546002830154600384015460049094015460ff9093169391926001600160a01b0391821692911685565b60408051951515865260208601949094526001600160a01b0392831693850193909352606084015216608082015260a001610151565b600180546104ec9061220b565b80601f01602080910402602001604051908101604052809291908181526020018280546105189061220b565b80156105655780601f1061053a57610100808354040283529160200191610565565b820191906000526020600020905b81548152906001019060200180831161054857829003601f168201915b505050505081565b33600081815260076020526040808220805490839055905190929183156108fc02918491818181858888f193505050501580156105ae573d6000803e3d6000fd5b50604051818152339030907fa96f45c7f021e61b3f486703c7db5ff1987ae3e6c1612b7085a0ded0270e96799060200160405180910390a350565b6000828152600660209081526040918290208251608081018452815460ff161515815260018201549281019290925260028101546001600160a01b0316928201929092526003909101546060820181905261068b5760405162461bcd60e51b815260206004820152601760248201527f4269642076616c7565206d757374206e6f74206265203000000000000000000060448201526064015b60405180910390fd5b81816060015110156106f45760405162461bcd60e51b815260206004820152602c60248201527f4269642076616c7565206d7573742062652067726561746572206f722065717560448201526b616c206d696e20707269636560a01b6064820152608401610682565b6003546001600160a01b03166342842e0e3360408085015190516001600160e01b031960e085901b1681526001600160a01b0392831660048201529116602482015260448101869052606401600060405180830381600087803b15801561075a57600080fd5b505af115801561076e573d6000803e3d6000fd5b505050506040518060a0016040528060001515815260200184815260200182604001516001600160a01b031681526020016000815260200160006001600160a01b03168152506005600085815260200190815260200160002060008201518160000160006101000a81548160ff0219169083151502179055506020820151816001015560408201518160020160006101000a8154816001600160a01b0302191690836001600160a01b031602179055506060820151816003015560808201518160040160006101000a8154816001600160a01b0302191690836001600160a01b03160217905550905050600081606001519050604051806080016040528060001515815260200185815260200160006001600160a01b0316815260200160008152506006600086815260200190815260200160002060008201518160000160006101000a81548160ff0219169083151502179055506020820151816001015560408201518160020160006101000a8154816001600160a01b0302191690836001600160a01b031602179055506060820151816003015590505080600760006109133390565b6001600160a01b03166001600160a01b03168152602001908152602001600020600082825461094291906121f3565b909155505060408201516001600160a01b0316336001600160a01b0316857f23bd6a7d776cc01b293e9573ef30f3328402c0477c502ed84c8f0ba1dcc094f6856060015160405161099591815260200190565b60405180910390a450505050565b600034116109e85760405162461bcd60e51b8152602060048201526012602482015271056616c75652063616e206e6f7420626520360741b6044820152606401610682565b6003546040516331a9108f60e11b8152600481018390526000916001600160a01b031690636352211e9060240160206040518083038186803b158015610a2d57600080fd5b505afa158015610a41573d6000803e3d6000fd5b505050506040513d601f19601f82011682018060405250810190610a659190611f7f565b9050336001600160a01b0382161415610ab45760405162461bcd60e51b815260206004820152601160248201527013dddb995c8818d85b881b9bdd08189a59607a1b6044820152606401610682565b6000828152600660209081526040918290208251608081018452815460ff161515815260018201549281019290925260028101546001600160a01b031692820192909252600390910154606082018190523411610b665760405162461bcd60e51b815260206004820152602a60248201527f56616c7565206d7573742062652067726561746572207468616e2074686520686044820152691a59da195cdd08189a5960b21b6064820152608401610682565b606081015115610ba75760608101516040808301516001600160a01b0316600090815260076020529081208054909190610ba19084906121f3565b90915550505b604080516080810182526001808252602080830187815233848601908152346060860181815260008b8152600686528890209651875460ff1916901515178755925194860194909455516002850180546001600160a01b0319166001600160a01b03909216919091179055516003909301929092558251908152915185927f6c7774aa65846ab41024d9d3bf54d81c4949b1e05db79af29ac41c752817ab1692908290030190a2505050565b60008181526005602052604090205460ff1615610c7357610c7381611e43565b610cb96040518060400160405280601881526020017f7472616e736665725370616365203a20257320746f2025730000000000000000815250610cb33390565b84611ef9565b6003546001600160a01b03166342842e0e336040516001600160e01b031960e084901b1681526001600160a01b039182166004820152908516602482015260448101849052606401600060405180830381600087803b158015610d1b57600080fd5b505af1158015610d2f573d6000803e3d6000fd5b50505050816001600160a01b0316610d443390565b6001600160a01b03167f93637f65711d87b65eab15bd147a75be2ff4d04b41aaf70e10b062851190a39983604051610d7e91815260200190565b60405180910390a36000818152600660209081526040918290208251608081018452815460ff161515815260018201549281019290925260028101546001600160a01b03908116938301849052600390910154606083015290919084161415610e845760608101516001600160a01b03841660009081526007602052604081208054909190610e0e9084906121f3565b90915550506040805160808101825260008082526020808301868152838501838152606085018481528885526006909352949092209251835460ff19169015151783559051600183015591516002820180546001600160a01b0319166001600160a01b0390921691909117905590516003909101555b505050565b6003546040516331a9108f60e11b8152600481018390526000916001600160a01b031690636352211e9060240160206040518083038186803b158015610ece57600080fd5b505afa158015610ee2573d6000803e3d6000fd5b505050506040513d601f19601f82011682018060405250810190610f069190611f7f565b9050610f1a6000546001600160a01b031690565b6001600160a01b0316816001600160a01b031614610f6b5760405162461bcd60e51b815260206004820152600e60248201526d4e6f74206672656520737061636560901b6044820152606401610682565b610fa66040518060400160405280601281526020017167657453706163653a20257320746f20257360701b81525082610fa13390565b611ef9565b6003546001600160a01b03166342842e0e82336040516001600160e01b031960e085901b1681526001600160a01b0392831660048201529116602482015260448101859052606401600060405180830381600087803b15801561100857600080fd5b505af115801561101c573d6000803e3d6000fd5b505050506110273390565b6001600160a01b03167f8a0e37b73a0d9c82e205d4d1a3ff3d0b57ce5f4d7bccf6bac03336dc101cb7ba8360405161106191815260200190565b60405180910390a25050565b6040805160a0810182526001815260208101859052908101336001600160a01b03908116825260208083018690528482166040938401526000878152600582528390208451815460ff1916901515178155908401516001820155838301516002820180546001600160a01b03199081169285169290921790556060850151600380840191909155608090950151600492830180549092169084161790559254915163095ea7b360e01b8152309381019390935260248301869052169063095ea7b390604401600060405180830381600087803b15801561114c57600080fd5b505af1158015611160573d6000803e3d6000fd5b50505050806001600160a01b0316837fc7745c5ed59fb6521d8052f28bbbedc81ff4bdbe6860459067975d37eb4f9d4d846040516111a091815260200190565b60405180910390a3505050565b606060008267ffffffffffffffff8111156111d857634e487b7160e01b600052604160045260246000fd5b60405190808252806020026020018201604052801561122a57816020015b6040805160808101825260008082526020808301829052928201819052606082015282526000199092019101816111f65790505b50905060005b838110156112c7576000818152600660209081526040918290208251608081018452815460ff161515815260018201549281019290925260028101546001600160a01b031692820192909252600390910154606082015282518390839081106112a957634e487b7160e01b600052603260045260246000fd5b602002602001018190525080806112bf90612246565b915050611230565b5092915050565b600280546104ec9061220b565b606060008267ffffffffffffffff81111561130657634e487b7160e01b600052604160045260246000fd5b60405190808252806020026020018201604052801561135f57816020015b6040805160a0810182526000808252602080830182905292820181905260608201819052608082015282526000199092019101816113245790505b50905060005b838110156112c757600081815260056020908152604091829020825160a081018452815460ff161515815260018201549281019290925260028101546001600160a01b03908116938301939093526003810154606083015260040154909116608082015282518390839081106113eb57634e487b7160e01b600052603260045260246000fd5b6020026020010181905250808061140190612246565b915050611365565b6000818152600660209081526040918290208251608081018452815460ff161515815260018201549281019290925260028101546001600160a01b031692820183905260030154606082015290331461149d5760405162461bcd60e51b81526020600482015260166024820152752cb7ba9030b932903737ba103a3432903134b23232b960511b6044820152606401610682565b6003546040516331a9108f60e11b8152600481018490526000916001600160a01b031690636352211e9060240160206040518083038186803b1580156114e257600080fd5b505afa1580156114f6573d6000803e3d6000fd5b505050506040513d601f19601f8201168201806040525081019061151a9190611f7f565b9050336001600160a01b03821614156115695760405162461bcd60e51b815260206004820152601160248201527013dddb995c8818d85b881b9bdd08189a59607a1b6044820152606401610682565b60608281015160408051608081018252600080825260208083018981528385018381529684018381528a845260069092528483209351845460ff191690151517845551600184015594516002830180546001600160a01b0319166001600160a01b03909216919091179055935160039091015551909133916108fc84150291849190818181858888f19350505050158015611608573d6000803e3d6000fd5b50837fb03733b7bfa62b05d6586f75b62255477eb894cb5cae3d6ba2c887050f284ca4846060015160405161163f91815260200190565b60405180910390a2604051818152339030907fa96f45c7f021e61b3f486703c7db5ff1987ae3e6c1612b7085a0ded0270e96799060200160405180910390a350505050565b600081815260056020908152604091829020825160a081018452815460ff16151580825260018301549382019390935260028201546001600160a01b03908116948201949094526003820154606082015260049091015490921660808301526117275760405162461bcd60e51b81526020600482015260156024820152745370616365206973206e6f7420666f722073616c6560581b6044820152606401610682565b60808101516001600160a01b0316158061174d575060808101516001600160a01b031633145b6117a35760405162461bcd60e51b815260206004820152602160248201527f546869732073706163652063616e206e6f7420626520736f6c6420746f20796f6044820152607560f81b6064820152608401610682565b80606001513410156117f75760405162461bcd60e51b815260206004820181905260248201527f596f75206d75737420627579206d6f7265207468616e206d696e2076616c75656044820152606401610682565b6003546040516331a9108f60e11b8152600481018490526000916001600160a01b031690636352211e9060240160206040518083038186803b15801561183c57600080fd5b505afa158015611850573d6000803e3d6000fd5b505050506040513d601f19601f820116820180604052508101906118749190611f7f565b9050806001600160a01b031682604001516001600160a01b0316146118db5760405162461bcd60e51b815260206004820152601f60248201527f53656c6c6572206e6f206c6f6e676572206f776e6572206f66207370616365006044820152606401610682565b6003546001600160a01b031663b88d4fde82336040516001600160e01b031960e085901b1681526001600160a01b0392831660048201529116602482015260448101869052608060648201526000608482015260a401600060405180830381600087803b15801561194b57600080fd5b505af115801561195f573d6000803e3d6000fd5b5050505061196c83611e43565b6001600160a01b038116600090815260076020526040812080543492906119949084906121f3565b909155505060405134815233906001600160a01b0383169085907f23bd6a7d776cc01b293e9573ef30f3328402c0477c502ed84c8f0ba1dcc094f69060200160405180910390a46000838152600660209081526040918290208251608081018452815460ff161515815260018201549281019290925260028101546001600160a01b031692820183905260030154606082015290331415611ac95760608101513360009081526007602052604081208054909190611a539084906121f3565b90915550506040805160808101825260008082526020808301888152838501838152606085018481528a85526006909352949092209251835460ff19169015151783559051600183015591516002820180546001600160a01b0319166001600160a01b0390921691909117905590516003909101555b50505050565b606060008267ffffffffffffffff811115611afa57634e487b7160e01b600052604160045260246000fd5b604051908082528060200260200182016040528015611b23578160200160208202803683370190505b50905060005b838110156112c7576003546040516331a9108f60e11b8152600481018390526001600160a01b0390911690636352211e9060240160206040518083038186803b158015611b7557600080fd5b505afa158015611b89573d6000803e3d6000fd5b505050506040513d601f19601f82011682018060405250810190611bad9190611f7f565b828281518110611bcd57634e487b7160e01b600052603260045260246000fd5b6001600160a01b039092166020928302919091019091015280611bef81612246565b915050611b29565b6040805160a0810182526001815260208101849052908101336001600160a01b039081168252602080830185905260006040938401819052868152600582528390208451815460ff1916901515178155908401516001820155838301516002820180546001600160a01b03199081169285169290921790556060850151600380840191909155608090950151600492830180549092169084161790559254915163095ea7b360e01b8152309381019390935260248301859052169063095ea7b390604401600060405180830381600087803b158015611cd557600080fd5b505af1158015611ce9573d6000803e3d6000fd5b5050604051838152600092508491507fc7745c5ed59fb6521d8052f28bbbedc81ff4bdbe6860459067975d37eb4f9d4d9060200160405180910390a35050565b6000546001600160a01b03163314611d835760405162461bcd60e51b815260206004820181905260248201527f4f776e61626c653a2063616c6c6572206973206e6f7420746865206f776e65726044820152606401610682565b6001600160a01b038116611de85760405162461bcd60e51b815260206004820152602660248201527f4f776e61626c653a206e6577206f776e657220697320746865207a65726f206160448201526564647265737360d01b6064820152608401610682565b600080546040516001600160a01b03808516939216917f8be0079c531659141344cd1fd0a4f28419497f9722a3daafe3b4186f6b6457e091a3600080546001600160a01b0319166001600160a01b0392909216919091179055565b6040805160a0810182526000808252602080830185815233848601908152606085018481526080860185815288865260059094528685209551865460ff191690151517865591516001860155516002850180546001600160a01b03199081166001600160a01b0393841617909155915160038601559151600490940180549091169390911692909217909155905182917fffac6398132e5a7ffa281256055095adef949befe9b41a15f260a723ac3bcc4591a250565b610e84838383604051602401611f11939291906121c0565b60408051601f198184030181529190526020810180516001600160e01b03166307e763af60e51b17905280516a636f6e736f6c652e6c6f67602083016000808483855afa5050505050565b600060208284031215611f6d578081fd5b8135611f7881612277565b9392505050565b600060208284031215611f90578081fd5b8151611f7881612277565b60008060408385031215611fad578081fd5b8235611fb881612277565b946020939093013593505050565b600060208284031215611fd7578081fd5b5035919050565b60008060408385031215611ff0578182fd5b50508035926020909101359150565b600080600060608486031215612013578081fd5b8335925060208401359150604084013561202c81612277565b809150509250925092565b60008151808452815b8181101561205c57602081850181015186830182015201612040565b8181111561206d5782602083870101525b50601f01601f19169290920160200192915050565b6020808252825182820181905260009190848201906040850190845b818110156120c35783516001600160a01b03168352928401929184019160010161209e565b50909695505050505050565b602080825282518282018190526000919060409081850190868401855b828110156121315781518051151585528681015187860152858101516001600160a01b03168686015260609081015190850152608090930192908501906001016120ec565b5091979650505050505050565b602080825282518282018190526000919060409081850190868401855b828110156121315781518051151585528681015187860152858101516001600160a01b039081168787015260608083015190870152608091820151169085015260a0909301929085019060010161215b565b602081526000611f786020830184612037565b6060815260006121d36060830186612037565b6001600160a01b0394851660208401529290931660409091015292915050565b6000821982111561220657612206612261565b500190565b600181811c9082168061221f57607f821691505b6020821081141561224057634e487b7160e01b600052602260045260246000fd5b50919050565b600060001982141561225a5761225a612261565b5060010190565b634e487b7160e01b600052601160045260246000fd5b6001600160a01b038116811461228c57600080fd5b5056fea2646970667358221220fc895acfd40c269327ed0a6915f35ef4cc3bffadaa3728cbaa54a65310775ba564736f6c63430008040033",
  "linkReferences": {},
  "deployedLinkReferences": {}
}