{
  "_format": "hh-sol-artifact-1",
  "contractName": "NapaCryptoSpaceMarket",
  "sourceName": "contracts/NapaCryptoSpaceMarket.sol",
  "abi": [
    {
      "inputs": [],
      "stateMutability": "payable",
      "type": "constructor"
    },
    {
      "anonymous": false,
      "inputs": [
        {
          "indexed": true,
          "internalType": "address",
          "name": "to",
          "type": "address"
        },
        {
          "indexed": false,
          "internalType": "uint256",
          "name": "spaceIndex",
          "type": "uint256"
        }
      ],
      "name": "Assign",
      "type": "event"
    },
    {
      "anonymous": false,
      "inputs": [
        {
          "indexed": true,
          "internalType": "uint256",
          "name": "spaceIndex",
          "type": "uint256"
        },
        {
          "indexed": false,
          "internalType": "uint256",
          "name": "value",
          "type": "uint256"
        },
        {
          "indexed": true,
          "internalType": "address",
          "name": "fromAddress",
          "type": "address"
        }
      ],
      "name": "SpaceBidEntered",
      "type": "event"
    },
    {
      "anonymous": false,
      "inputs": [
        {
          "indexed": true,
          "internalType": "uint256",
          "name": "spaceIndex",
          "type": "uint256"
        },
        {
          "indexed": false,
          "internalType": "uint256",
          "name": "value",
          "type": "uint256"
        },
        {
          "indexed": true,
          "internalType": "address",
          "name": "fromAddress",
          "type": "address"
        }
      ],
      "name": "SpaceBidWithdrawn",
      "type": "event"
    },
    {
      "anonymous": false,
      "inputs": [
        {
          "indexed": true,
          "internalType": "uint256",
          "name": "spaceIndex",
          "type": "uint256"
        },
        {
          "indexed": false,
          "internalType": "uint256",
          "name": "value",
          "type": "uint256"
        },
        {
          "indexed": true,
          "internalType": "address",
          "name": "fromAddress",
          "type": "address"
        },
        {
          "indexed": true,
          "internalType": "address",
          "name": "toAddress",
          "type": "address"
        }
      ],
      "name": "SpaceBought",
      "type": "event"
    },
    {
      "anonymous": false,
      "inputs": [
        {
          "indexed": true,
          "internalType": "uint256",
          "name": "spaceIndex",
          "type": "uint256"
        }
      ],
      "name": "SpaceNoLongerForSale",
      "type": "event"
    },
    {
      "anonymous": false,
      "inputs": [
        {
          "indexed": true,
          "internalType": "uint256",
          "name": "spaceIndex",
          "type": "uint256"
        },
        {
          "indexed": false,
          "internalType": "uint256",
          "name": "minValue",
          "type": "uint256"
        },
        {
          "indexed": true,
          "internalType": "address",
          "name": "toAddress",
          "type": "address"
        }
      ],
      "name": "SpaceOffered",
      "type": "event"
    },
    {
      "anonymous": false,
      "inputs": [
        {
          "indexed": true,
          "internalType": "address",
          "name": "from",
          "type": "address"
        },
        {
          "indexed": true,
          "internalType": "address",
          "name": "to",
          "type": "address"
        },
        {
          "indexed": false,
          "internalType": "uint256",
          "name": "spaceIndex",
          "type": "uint256"
        }
      ],
      "name": "SpaceTransfer",
      "type": "event"
    },
    {
      "anonymous": false,
      "inputs": [
        {
          "indexed": true,
          "internalType": "address",
          "name": "from",
          "type": "address"
        },
        {
          "indexed": true,
          "internalType": "address",
          "name": "to",
          "type": "address"
        },
        {
          "indexed": false,
          "internalType": "uint256",
          "name": "value",
          "type": "uint256"
        }
      ],
      "name": "Transfer",
      "type": "event"
    },
    {
      "inputs": [
        {
          "internalType": "uint256",
          "name": "spaceIndex",
          "type": "uint256"
        },
        {
          "internalType": "uint256",
          "name": "minPrice",
          "type": "uint256"
        }
      ],
      "name": "acceptBidForSpace",
      "outputs": [],
      "stateMutability": "nonpayable",
      "type": "function"
    },
    {
      "inputs": [],
      "name": "allInitialOwnersAssigned",
      "outputs": [],
      "stateMutability": "nonpayable",
      "type": "function"
    },
    {
      "inputs": [],
      "name": "allSpacesAssigned",
      "outputs": [
        {
          "internalType": "bool",
          "name": "",
          "type": "bool"
        }
      ],
      "stateMutability": "view",
      "type": "function"
    },
    {
      "inputs": [
        {
          "internalType": "address",
          "name": "",
          "type": "address"
        }
      ],
      "name": "balanceOf",
      "outputs": [
        {
          "internalType": "uint256",
          "name": "",
          "type": "uint256"
        }
      ],
      "stateMutability": "view",
      "type": "function"
    },
    {
      "inputs": [
        {
          "internalType": "uint256",
          "name": "spaceIndex",
          "type": "uint256"
        }
      ],
      "name": "buySpace",
      "outputs": [],
      "stateMutability": "payable",
      "type": "function"
    },
    {
      "inputs": [],
      "name": "decimals",
      "outputs": [
        {
          "internalType": "uint8",
          "name": "",
          "type": "uint8"
        }
      ],
      "stateMutability": "view",
      "type": "function"
    },
    {
      "inputs": [
        {
          "internalType": "uint256",
          "name": "spaceIndex",
          "type": "uint256"
        }
      ],
      "name": "enterBidForSpace",
      "outputs": [],
      "stateMutability": "payable",
      "type": "function"
    },
    {
      "inputs": [
        {
          "internalType": "uint256",
          "name": "spaceIndex",
          "type": "uint256"
        }
      ],
      "name": "getSpace",
      "outputs": [],
      "stateMutability": "nonpayable",
      "type": "function"
    },
    {
      "inputs": [],
      "name": "imageHash",
      "outputs": [
        {
          "internalType": "string",
          "name": "",
          "type": "string"
        }
      ],
      "stateMutability": "view",
      "type": "function"
    },
    {
      "inputs": [],
      "name": "name",
      "outputs": [
        {
          "internalType": "string",
          "name": "",
          "type": "string"
        }
      ],
      "stateMutability": "view",
      "type": "function"
    },
    {
      "inputs": [],
      "name": "nextSpaceIndexToAssign",
      "outputs": [
        {
          "internalType": "uint256",
          "name": "",
          "type": "uint256"
        }
      ],
      "stateMutability": "view",
      "type": "function"
    },
    {
      "inputs": [
        {
          "internalType": "uint256",
          "name": "spaceIndex",
          "type": "uint256"
        },
        {
          "internalType": "uint256",
          "name": "minSalePriceInWei",
          "type": "uint256"
        }
      ],
      "name": "offerSpaceForSale",
      "outputs": [],
      "stateMutability": "nonpayable",
      "type": "function"
    },
    {
      "inputs": [
        {
          "internalType": "uint256",
          "name": "spaceIndex",
          "type": "uint256"
        },
        {
          "internalType": "uint256",
          "name": "minSalePriceInWei",
          "type": "uint256"
        },
        {
          "internalType": "address",
          "name": "toAddress",
          "type": "address"
        }
      ],
      "name": "offerSpaceForSaleToAddress",
      "outputs": [],
      "stateMutability": "nonpayable",
      "type": "function"
    },
    {
      "inputs": [
        {
          "internalType": "address",
          "name": "",
          "type": "address"
        }
      ],
      "name": "pendingWithdrawals",
      "outputs": [
        {
          "internalType": "uint256",
          "name": "",
          "type": "uint256"
        }
      ],
      "stateMutability": "view",
      "type": "function"
    },
    {
      "inputs": [
        {
          "internalType": "address",
          "name": "to",
          "type": "address"
        },
        {
          "internalType": "uint256",
          "name": "spaceIndex",
          "type": "uint256"
        }
      ],
      "name": "setInitialOwner",
      "outputs": [],
      "stateMutability": "nonpayable",
      "type": "function"
    },
    {
      "inputs": [
        {
          "internalType": "address[]",
          "name": "addresses",
          "type": "address[]"
        },
        {
          "internalType": "uint256[]",
          "name": "indices",
          "type": "uint256[]"
        }
      ],
      "name": "setInitialOwners",
      "outputs": [],
      "stateMutability": "nonpayable",
      "type": "function"
    },
    {
      "inputs": [
        {
          "internalType": "uint256",
          "name": "",
          "type": "uint256"
        }
      ],
      "name": "spaceBids",
      "outputs": [
        {
          "internalType": "bool",
          "name": "hasBid",
          "type": "bool"
        },
        {
          "internalType": "uint256",
          "name": "spaceIndex",
          "type": "uint256"
        },
        {
          "internalType": "address",
          "name": "bidder",
          "type": "address"
        },
        {
          "internalType": "uint256",
          "name": "value",
          "type": "uint256"
        }
      ],
      "stateMutability": "view",
      "type": "function"
    },
    {
      "inputs": [
        {
          "internalType": "uint256",
          "name": "",
          "type": "uint256"
        }
      ],
      "name": "spaceIndexToAddress",
      "outputs": [
        {
          "internalType": "address",
          "name": "",
          "type": "address"
        }
      ],
      "stateMutability": "view",
      "type": "function"
    },
    {
      "inputs": [
        {
          "internalType": "uint256",
          "name": "spaceIndex",
          "type": "uint256"
        }
      ],
      "name": "spaceNoLongerForSale",
      "outputs": [],
      "stateMutability": "nonpayable",
      "type": "function"
    },
    {
      "inputs": [
        {
          "internalType": "uint256",
          "name": "",
          "type": "uint256"
        }
      ],
      "name": "spacesOfferedForSale",
      "outputs": [
        {
          "internalType": "bool",
          "name": "isForSale",
          "type": "bool"
        },
        {
          "internalType": "uint256",
          "name": "spaceIndex",
          "type": "uint256"
        },
        {
          "internalType": "address",
          "name": "seller",
          "type": "address"
        },
        {
          "internalType": "uint256",
          "name": "minValue",
          "type": "uint256"
        },
        {
          "internalType": "address",
          "name": "onlySellTo",
          "type": "address"
        }
      ],
      "stateMutability": "view",
      "type": "function"
    },
    {
      "inputs": [],
      "name": "spacesRemainingToAssign",
      "outputs": [
        {
          "internalType": "uint256",
          "name": "",
          "type": "uint256"
        }
      ],
      "stateMutability": "view",
      "type": "function"
    },
    {
      "inputs": [],
      "name": "standard",
      "outputs": [
        {
          "internalType": "string",
          "name": "",
          "type": "string"
        }
      ],
      "stateMutability": "view",
      "type": "function"
    },
    {
      "inputs": [],
      "name": "symbol",
      "outputs": [
        {
          "internalType": "string",
          "name": "",
          "type": "string"
        }
      ],
      "stateMutability": "view",
      "type": "function"
    },
    {
      "inputs": [],
      "name": "totalSupply",
      "outputs": [
        {
          "internalType": "uint256",
          "name": "",
          "type": "uint256"
        }
      ],
      "stateMutability": "view",
      "type": "function"
    },
    {
      "inputs": [
        {
          "internalType": "address",
          "name": "to",
          "type": "address"
        },
        {
          "internalType": "uint256",
          "name": "spaceIndex",
          "type": "uint256"
        }
      ],
      "name": "transferSpace",
      "outputs": [],
      "stateMutability": "nonpayable",
      "type": "function"
    },
    {
      "inputs": [],
      "name": "withdraw",
      "outputs": [],
      "stateMutability": "nonpayable",
      "type": "function"
    },
    {
      "inputs": [
        {
          "internalType": "uint256",
          "name": "spaceIndex",
          "type": "uint256"
        }
      ],
      "name": "withdrawBidForSpace",
      "outputs": [],
      "stateMutability": "nonpayable",
      "type": "function"
    }
  ],
  "bytecode": "0x6080604052604051806060016040528060408152602001620042f5604091396000908051906020019062000035929190620001ba565b506040518060400160405280600b81526020017f43727970746f53706163650000000000000000000000000000000000000000008152506002908051906020019062000083929190620001ba565b5060006007556000600860006101000a81548160ff021916908315150217905550600060095533600160006101000a81548173ffffffffffffffffffffffffffffffffffffffff021916908373ffffffffffffffffffffffffffffffffffffffff1602179055506127106006819055506006546009819055506040518060400160405280600b81526020017f43525950544f53504143450000000000000000000000000000000000000000008152506003908051906020019062000149929190620001ba565b506040518060400160405280600181526020017f43000000000000000000000000000000000000000000000000000000000000008152506004908051906020019062000197929190620001ba565b506000600560006101000a81548160ff021916908360ff160217905550620002cf565b828054620001c8906200026a565b90600052602060002090601f016020900481019282620001ec576000855562000238565b82601f106200020757805160ff191683800117855562000238565b8280016001018555821562000238579182015b82811115620002375782518255916020019190600101906200021a565b5b5090506200024791906200024b565b5090565b5b80821115620002665760008160009055506001016200024c565b5090565b600060028204905060018216806200028357607f821691505b602082108114156200029a5762000299620002a0565b5b50919050565b7f4e487b7100000000000000000000000000000000000000000000000000000000600052602260045260246000fd5b61401680620002df6000396000f3fe60806040526004361061019c5760003560e01c806370a08231116100ec578063a75a90491161008a578063ddff7a2411610064578063ddff7a2414610561578063de80318d1461058c578063f3f43703146105b5578063ff7bdc0a146105f25761019c565b8063a75a9049146104d0578063a797de94146104f9578063da99c420146105245761019c565b80637fa4f1d9116100c65780637fa4f1d91461043757806395d89b4114610460578063994f42eb1461048b5780639bd1332e146104b45761019c565b806370a08231146103ba57806370e10431146103f75780637ecedac9146104205761019c565b806351605d8011610159578063563cbfde11610133578063563cbfde146103215780635a3b7e421461034a5780635b795c7c146103755780636178e8d1146103915761019c565b806351605d801461028d57806351d28bdb146102b857806354e39e88146102f85761019c565b806306fdde03146101a157806318160ddd146101cc5780631c5ea66e146101f7578063313ce5671461022257806339c5dde61461024d5780633ccfd60b14610276575b600080fd5b3480156101ad57600080fd5b506101b6610633565b6040516101c39190613c14565b60405180910390f35b3480156101d857600080fd5b506101e16106c1565b6040516101ee9190613c56565b60405180910390f35b34801561020357600080fd5b5061020c6106c7565b6040516102199190613c56565b60405180910390f35b34801561022e57600080fd5b506102376106cd565b6040516102449190613c71565b60405180910390f35b34801561025957600080fd5b50610274600480360381019061026f9190613964565b6106e0565b005b34801561028257600080fd5b5061028b610824565b005b34801561029957600080fd5b506102a2610946565b6040516102af9190613c14565b60405180910390f35b3480156102c457600080fd5b506102df60048036038101906102da91906139d0565b6109d4565b6040516102ef9493929190613b61565b60405180910390f35b34801561030457600080fd5b5061031f600480360381019061031a91906139f9565b610a31565b005b34801561032d57600080fd5b50610348600480360381019061034391906139d0565b6110e3565b005b34801561035657600080fd5b5061035f611377565b60405161036c9190613c14565b60405180910390f35b61038f600480360381019061038a91906139d0565b611405565b005b34801561039d57600080fd5b506103b860048036038101906103b39190613928565b611898565b005b3480156103c657600080fd5b506103e160048036038101906103dc91906138ff565b611dd2565b6040516103ee9190613c56565b60405180910390f35b34801561040357600080fd5b5061041e600480360381019061041991906139d0565b611dea565b005b34801561042c57600080fd5b50610435612075565b005b34801561044357600080fd5b5061045e60048036038101906104599190613a35565b612122565b005b34801561046c57600080fd5b506104756123d8565b6040516104829190613c14565b60405180910390f35b34801561049757600080fd5b506104b260048036038101906104ad91906139d0565b612466565b005b6104ce60048036038101906104c991906139d0565b6128cc565b005b3480156104dc57600080fd5b506104f760048036038101906104f29190613928565b61307a565b005b34801561050557600080fd5b5061050e61340b565b60405161051b9190613c56565b60405180910390f35b34801561053057600080fd5b5061054b600480360381019061054691906139d0565b613411565b6040516105589190613b2b565b60405180910390f35b34801561056d57600080fd5b50610576613444565b6040516105839190613b46565b60405180910390f35b34801561059857600080fd5b506105b360048036038101906105ae91906139f9565b613457565b005b3480156105c157600080fd5b506105dc60048036038101906105d791906138ff565b61370e565b6040516105e99190613c56565b60405180910390f35b3480156105fe57600080fd5b50610619600480360381019061061491906139d0565b613726565b60405161062a959493929190613ba6565b60405180910390f35b6003805461064090613e3f565b80601f016020809104026020016040519081016040528092919081815260200182805461066c90613e3f565b80156106b95780601f1061068e576101008083540402835291602001916106b9565b820191906000526020600020905b81548152906001019060200180831161069c57829003601f168201915b505050505081565b60065481565b60075481565b600560009054906101000a900460ff1681565b600160009054906101000a900473ffffffffffffffffffffffffffffffffffffffff1673ffffffffffffffffffffffffffffffffffffffff163373ffffffffffffffffffffffffffffffffffffffff1614610770576040517f08c379a000000000000000000000000000000000000000000000000000000000815260040161076790613c36565b60405180910390fd5b60008251905060005b8181101561081e5761080b8482815181106107bd577f4e487b7100000000000000000000000000000000000000000000000000000000600052603260045260246000fd5b60200260200101518483815181106107fe577f4e487b7100000000000000000000000000000000000000000000000000000000600052603260045260246000fd5b602002602001015161307a565b808061081690613ea2565b915050610779565b50505050565b600860009054906101000a900460ff16610873576040517f08c379a000000000000000000000000000000000000000000000000000000000815260040161086a90613c36565b60405180910390fd5b6000600e60003373ffffffffffffffffffffffffffffffffffffffff1673ffffffffffffffffffffffffffffffffffffffff1681526020019081526020016000205490506000600e60003373ffffffffffffffffffffffffffffffffffffffff1673ffffffffffffffffffffffffffffffffffffffff168152602001908152602001600020819055503373ffffffffffffffffffffffffffffffffffffffff166108fc829081150290604051600060405180830381858888f19350505050158015610942573d6000803e3d6000fd5b5050565b6000805461095390613e3f565b80601f016020809104026020016040519081016040528092919081815260200182805461097f90613e3f565b80156109cc5780601f106109a1576101008083540402835291602001916109cc565b820191906000526020600020905b8154815290600101906020018083116109af57829003601f168201915b505050505081565b600d6020528060005260406000206000915090508060000160009054906101000a900460ff16908060010154908060020160009054906101000a900473ffffffffffffffffffffffffffffffffffffffff16908060030154905084565b6127108210610a75576040517f08c379a0000000000000000000000000000000000000000000000000000000008152600401610a6c90613c36565b60405180910390fd5b600860009054906101000a900460ff16610ac4576040517f08c379a0000000000000000000000000000000000000000000000000000000008152600401610abb90613c36565b60405180910390fd5b3373ffffffffffffffffffffffffffffffffffffffff16600a600084815260200190815260200160002060009054906101000a900473ffffffffffffffffffffffffffffffffffffffff1673ffffffffffffffffffffffffffffffffffffffff1614610b65576040517f08c379a0000000000000000000000000000000000000000000000000000000008152600401610b5c90613c36565b60405180910390fd5b60003390506000600d60008581526020019081526020016000206040518060800160405290816000820160009054906101000a900460ff16151515158152602001600182015481526020016002820160009054906101000a900473ffffffffffffffffffffffffffffffffffffffff1673ffffffffffffffffffffffffffffffffffffffff1673ffffffffffffffffffffffffffffffffffffffff1681526020016003820154815250509050600081606001511415610c59576040517f08c379a0000000000000000000000000000000000000000000000000000000008152600401610c5090613c36565b60405180910390fd5b8281606001511015610ca0576040517f08c379a0000000000000000000000000000000000000000000000000000000008152600401610c9790613c36565b60405180910390fd5b8060400151600a600086815260200190815260200160002060006101000a81548173ffffffffffffffffffffffffffffffffffffffff021916908373ffffffffffffffffffffffffffffffffffffffff160217905550600b60008373ffffffffffffffffffffffffffffffffffffffff1673ffffffffffffffffffffffffffffffffffffffff1681526020019081526020016000206000815480929190610d4690613e15565b9190505550600b6000826040015173ffffffffffffffffffffffffffffffffffffffff1673ffffffffffffffffffffffffffffffffffffffff1681526020019081526020016000206000815480929190610d9f90613ea2565b9190505550806040015173ffffffffffffffffffffffffffffffffffffffff168273ffffffffffffffffffffffffffffffffffffffff167fddf252ad1be2c89b69c2b068fc378daa952ba7f163c4a11628f55a4df523b3ef6001604051610e069190613bf9565b60405180910390a36040518060a00160405280600015158152602001858152602001826040015173ffffffffffffffffffffffffffffffffffffffff16815260200160008152602001600073ffffffffffffffffffffffffffffffffffffffff16815250600c600086815260200190815260200160002060008201518160000160006101000a81548160ff0219169083151502179055506020820151816001015560408201518160020160006101000a81548173ffffffffffffffffffffffffffffffffffffffff021916908373ffffffffffffffffffffffffffffffffffffffff1602179055506060820151816003015560808201518160040160006101000a81548173ffffffffffffffffffffffffffffffffffffffff021916908373ffffffffffffffffffffffffffffffffffffffff1602179055509050506000816060015190506040518060800160405280600015158152602001868152602001600073ffffffffffffffffffffffffffffffffffffffff1681526020016000815250600d600087815260200190815260200160002060008201518160000160006101000a81548160ff0219169083151502179055506020820151816001015560408201518160020160006101000a81548173ffffffffffffffffffffffffffffffffffffffff021916908373ffffffffffffffffffffffffffffffffffffffff1602179055506060820151816003015590505080600e60008573ffffffffffffffffffffffffffffffffffffffff1673ffffffffffffffffffffffffffffffffffffffff16815260200190815260200160002060008282546110679190613d25565b92505081905550816040015173ffffffffffffffffffffffffffffffffffffffff168373ffffffffffffffffffffffffffffffffffffffff16867f23bd6a7d776cc01b293e9573ef30f3328402c0477c502ed84c8f0ba1dcc094f685606001516040516110d49190613c56565b60405180910390a45050505050565b600860009054906101000a900460ff16611132576040517f08c379a000000000000000000000000000000000000000000000000000000000815260040161112990613c36565b60405180910390fd5b3373ffffffffffffffffffffffffffffffffffffffff16600a600083815260200190815260200160002060009054906101000a900473ffffffffffffffffffffffffffffffffffffffff1673ffffffffffffffffffffffffffffffffffffffff16146111d3576040517f08c379a00000000000000000000000000000000000000000000000000000000081526004016111ca90613c36565b60405180910390fd5b6127108110611217576040517f08c379a000000000000000000000000000000000000000000000000000000000815260040161120e90613c36565b60405180910390fd5b6040518060a001604052806000151581526020018281526020013373ffffffffffffffffffffffffffffffffffffffff16815260200160008152602001600073ffffffffffffffffffffffffffffffffffffffff16815250600c600083815260200190815260200160002060008201518160000160006101000a81548160ff0219169083151502179055506020820151816001015560408201518160020160006101000a81548173ffffffffffffffffffffffffffffffffffffffff021916908373ffffffffffffffffffffffffffffffffffffffff1602179055506060820151816003015560808201518160040160006101000a81548173ffffffffffffffffffffffffffffffffffffffff021916908373ffffffffffffffffffffffffffffffffffffffff160217905550905050807fffac6398132e5a7ffa281256055095adef949befe9b41a15f260a723ac3bcc4560405160405180910390a250565b6002805461138490613e3f565b80601f01602080910402602001604051908101604052809291908181526020018280546113b090613e3f565b80156113fd5780601f106113d2576101008083540402835291602001916113fd565b820191906000526020600020905b8154815290600101906020018083116113e057829003601f168201915b505050505081565b6127108110611449576040517f08c379a000000000000000000000000000000000000000000000000000000000815260040161144090613c36565b60405180910390fd5b600860009054906101000a900460ff16611498576040517f08c379a000000000000000000000000000000000000000000000000000000000815260040161148f90613c36565b60405180910390fd5b600073ffffffffffffffffffffffffffffffffffffffff16600a600083815260200190815260200160002060009054906101000a900473ffffffffffffffffffffffffffffffffffffffff1673ffffffffffffffffffffffffffffffffffffffff16141561153b576040517f08c379a000000000000000000000000000000000000000000000000000000000815260040161153290613c36565b60405180910390fd5b3373ffffffffffffffffffffffffffffffffffffffff16600a600083815260200190815260200160002060009054906101000a900473ffffffffffffffffffffffffffffffffffffffff1673ffffffffffffffffffffffffffffffffffffffff1614156115dd576040517f08c379a00000000000000000000000000000000000000000000000000000000081526004016115d490613c36565b60405180910390fd5b6000341415611621576040517f08c379a000000000000000000000000000000000000000000000000000000000815260040161161890613c36565b60405180910390fd5b6000600d60008381526020019081526020016000206040518060800160405290816000820160009054906101000a900460ff16151515158152602001600182015481526020016002820160009054906101000a900473ffffffffffffffffffffffffffffffffffffffff1673ffffffffffffffffffffffffffffffffffffffff1673ffffffffffffffffffffffffffffffffffffffff16815260200160038201548152505090508060600151341161170e576040517f08c379a000000000000000000000000000000000000000000000000000000000815260040161170590613c36565b60405180910390fd5b60008160600151111561177a578060600151600e6000836040015173ffffffffffffffffffffffffffffffffffffffff1673ffffffffffffffffffffffffffffffffffffffff16815260200190815260200160002060008282546117729190613d25565b925050819055505b60405180608001604052806001151581526020018381526020013373ffffffffffffffffffffffffffffffffffffffff16815260200134815250600d600084815260200190815260200160002060008201518160000160006101000a81548160ff0219169083151502179055506020820151816001015560408201518160020160006101000a81548173ffffffffffffffffffffffffffffffffffffffff021916908373ffffffffffffffffffffffffffffffffffffffff160217905550606082015181600301559050503373ffffffffffffffffffffffffffffffffffffffff16827f9b0d1c0222aaff23c36c665efd78948699412db46227cc140b5c427910c5e2b83460405161188c9190613c56565b60405180910390a35050565b600860009054906101000a900460ff166118e7576040517f08c379a00000000000000000000000000000000000000000000000000000000081526004016118de90613c36565b60405180910390fd5b3373ffffffffffffffffffffffffffffffffffffffff16600a600083815260200190815260200160002060009054906101000a900473ffffffffffffffffffffffffffffffffffffffff1673ffffffffffffffffffffffffffffffffffffffff1614611988576040517f08c379a000000000000000000000000000000000000000000000000000000000815260040161197f90613c36565b60405180910390fd5b61271081106119cc576040517f08c379a00000000000000000000000000000000000000000000000000000000081526004016119c390613c36565b60405180910390fd5b600c600082815260200190815260200160002060000160009054906101000a900460ff16156119ff576119fe816110e3565b5b81600a600083815260200190815260200160002060006101000a81548173ffffffffffffffffffffffffffffffffffffffff021916908373ffffffffffffffffffffffffffffffffffffffff160217905550600b60003373ffffffffffffffffffffffffffffffffffffffff1673ffffffffffffffffffffffffffffffffffffffff1681526020019081526020016000206000815480929190611aa190613e15565b9190505550600b60008373ffffffffffffffffffffffffffffffffffffffff1673ffffffffffffffffffffffffffffffffffffffff1681526020019081526020016000206000815480929190611af690613ea2565b91905055508173ffffffffffffffffffffffffffffffffffffffff163373ffffffffffffffffffffffffffffffffffffffff167fddf252ad1be2c89b69c2b068fc378daa952ba7f163c4a11628f55a4df523b3ef6001604051611b599190613bf9565b60405180910390a38173ffffffffffffffffffffffffffffffffffffffff163373ffffffffffffffffffffffffffffffffffffffff167f93637f65711d87b65eab15bd147a75be2ff4d04b41aaf70e10b062851190a39983604051611bbe9190613c56565b60405180910390a36000600d60008381526020019081526020016000206040518060800160405290816000820160009054906101000a900460ff16151515158152602001600182015481526020016002820160009054906101000a900473ffffffffffffffffffffffffffffffffffffffff1673ffffffffffffffffffffffffffffffffffffffff1673ffffffffffffffffffffffffffffffffffffffff16815260200160038201548152505090508273ffffffffffffffffffffffffffffffffffffffff16816040015173ffffffffffffffffffffffffffffffffffffffff161415611dcd578060600151600e60008573ffffffffffffffffffffffffffffffffffffffff1673ffffffffffffffffffffffffffffffffffffffff1681526020019081526020016000206000828254611cf89190613d25565b925050819055506040518060800160405280600015158152602001838152602001600073ffffffffffffffffffffffffffffffffffffffff1681526020016000815250600d600084815260200190815260200160002060008201518160000160006101000a81548160ff0219169083151502179055506020820151816001015560408201518160020160006101000a81548173ffffffffffffffffffffffffffffffffffffffff021916908373ffffffffffffffffffffffffffffffffffffffff160217905550606082015181600301559050505b505050565b600b6020528060005260406000206000915090505481565b600860009054906101000a900460ff16611e39576040517f08c379a0000000000000000000000000000000000000000000000000000000008152600401611e3090613c36565b60405180910390fd5b60006009541415611e7f576040517f08c379a0000000000000000000000000000000000000000000000000000000008152600401611e7690613c36565b60405180910390fd5b600073ffffffffffffffffffffffffffffffffffffffff16600a600083815260200190815260200160002060009054906101000a900473ffffffffffffffffffffffffffffffffffffffff1673ffffffffffffffffffffffffffffffffffffffff1614611f21576040517f08c379a0000000000000000000000000000000000000000000000000000000008152600401611f1890613c36565b60405180910390fd5b6127108110611f65576040517f08c379a0000000000000000000000000000000000000000000000000000000008152600401611f5c90613c36565b60405180910390fd5b33600a600083815260200190815260200160002060006101000a81548173ffffffffffffffffffffffffffffffffffffffff021916908373ffffffffffffffffffffffffffffffffffffffff160217905550600b60003373ffffffffffffffffffffffffffffffffffffffff1673ffffffffffffffffffffffffffffffffffffffff168152602001908152602001600020600081548092919061200790613ea2565b91905055506009600081548092919061201f90613e15565b91905055503373ffffffffffffffffffffffffffffffffffffffff167f8a0e37b73a0d9c82e205d4d1a3ff3d0b57ce5f4d7bccf6bac03336dc101cb7ba8260405161206a9190613c56565b60405180910390a250565b600160009054906101000a900473ffffffffffffffffffffffffffffffffffffffff1673ffffffffffffffffffffffffffffffffffffffff163373ffffffffffffffffffffffffffffffffffffffff1614612105576040517f08c379a00000000000000000000000000000000000000000000000000000000081526004016120fc90613c36565b60405180910390fd5b6001600860006101000a81548160ff021916908315150217905550565b600860009054906101000a900460ff16612171576040517f08c379a000000000000000000000000000000000000000000000000000000000815260040161216890613c36565b60405180910390fd5b3373ffffffffffffffffffffffffffffffffffffffff16600a600085815260200190815260200160002060009054906101000a900473ffffffffffffffffffffffffffffffffffffffff1673ffffffffffffffffffffffffffffffffffffffff1614612212576040517f08c379a000000000000000000000000000000000000000000000000000000000815260040161220990613c36565b60405180910390fd5b6127108310612256576040517f08c379a000000000000000000000000000000000000000000000000000000000815260040161224d90613c36565b60405180910390fd5b6040518060a001604052806001151581526020018481526020013373ffffffffffffffffffffffffffffffffffffffff1681526020018381526020018273ffffffffffffffffffffffffffffffffffffffff16815250600c600085815260200190815260200160002060008201518160000160006101000a81548160ff0219169083151502179055506020820151816001015560408201518160020160006101000a81548173ffffffffffffffffffffffffffffffffffffffff021916908373ffffffffffffffffffffffffffffffffffffffff1602179055506060820151816003015560808201518160040160006101000a81548173ffffffffffffffffffffffffffffffffffffffff021916908373ffffffffffffffffffffffffffffffffffffffff1602179055509050508073ffffffffffffffffffffffffffffffffffffffff16837fc7745c5ed59fb6521d8052f28bbbedc81ff4bdbe6860459067975d37eb4f9d4d846040516123cb9190613c56565b60405180910390a3505050565b600480546123e590613e3f565b80601f016020809104026020016040519081016040528092919081815260200182805461241190613e3f565b801561245e5780601f106124335761010080835404028352916020019161245e565b820191906000526020600020905b81548152906001019060200180831161244157829003601f168201915b505050505081565b61271081106124aa576040517f08c379a00000000000000000000000000000000000000000000000000000000081526004016124a190613c36565b60405180910390fd5b600860009054906101000a900460ff166124f9576040517f08c379a00000000000000000000000000000000000000000000000000000000081526004016124f090613c36565b60405180910390fd5b600073ffffffffffffffffffffffffffffffffffffffff16600a600083815260200190815260200160002060009054906101000a900473ffffffffffffffffffffffffffffffffffffffff1673ffffffffffffffffffffffffffffffffffffffff16141561259c576040517f08c379a000000000000000000000000000000000000000000000000000000000815260040161259390613c36565b60405180910390fd5b3373ffffffffffffffffffffffffffffffffffffffff16600a600083815260200190815260200160002060009054906101000a900473ffffffffffffffffffffffffffffffffffffffff1673ffffffffffffffffffffffffffffffffffffffff16141561263e576040517f08c379a000000000000000000000000000000000000000000000000000000000815260040161263590613c36565b60405180910390fd5b6000600d60008381526020019081526020016000206040518060800160405290816000820160009054906101000a900460ff16151515158152602001600182015481526020016002820160009054906101000a900473ffffffffffffffffffffffffffffffffffffffff1673ffffffffffffffffffffffffffffffffffffffff1673ffffffffffffffffffffffffffffffffffffffff16815260200160038201548152505090503373ffffffffffffffffffffffffffffffffffffffff16816040015173ffffffffffffffffffffffffffffffffffffffff1614612757576040517f08c379a000000000000000000000000000000000000000000000000000000000815260040161274e90613c36565b60405180910390fd5b3373ffffffffffffffffffffffffffffffffffffffff16827f6c13e8ae68106d217d9b2d86eeee684e52da22415fe8c7a7430ac9b93c12082183606001516040516127a29190613c56565b60405180910390a36000816060015190506040518060800160405280600015158152602001848152602001600073ffffffffffffffffffffffffffffffffffffffff1681526020016000815250600d600085815260200190815260200160002060008201518160000160006101000a81548160ff0219169083151502179055506020820151816001015560408201518160020160006101000a81548173ffffffffffffffffffffffffffffffffffffffff021916908373ffffffffffffffffffffffffffffffffffffffff160217905550606082015181600301559050503373ffffffffffffffffffffffffffffffffffffffff166108fc829081150290604051600060405180830381858888f193505050501580156128c6573d6000803e3d6000fd5b50505050565b600860009054906101000a900460ff1661291b576040517f08c379a000000000000000000000000000000000000000000000000000000000815260040161291290613c36565b60405180910390fd5b6000600c60008381526020019081526020016000206040518060a00160405290816000820160009054906101000a900460ff16151515158152602001600182015481526020016002820160009054906101000a900473ffffffffffffffffffffffffffffffffffffffff1673ffffffffffffffffffffffffffffffffffffffff1673ffffffffffffffffffffffffffffffffffffffff168152602001600382015481526020016004820160009054906101000a900473ffffffffffffffffffffffffffffffffffffffff1673ffffffffffffffffffffffffffffffffffffffff1673ffffffffffffffffffffffffffffffffffffffff168152505090506127108210612a5c576040517f08c379a0000000000000000000000000000000000000000000000000000000008152600401612a5390613c36565b60405180910390fd5b8060000151612aa0576040517f08c379a0000000000000000000000000000000000000000000000000000000008152600401612a9790613c36565b60405180910390fd5b600073ffffffffffffffffffffffffffffffffffffffff16816080015173ffffffffffffffffffffffffffffffffffffffff1614158015612b1157503373ffffffffffffffffffffffffffffffffffffffff16816080015173ffffffffffffffffffffffffffffffffffffffff1614155b15612b51576040517f08c379a0000000000000000000000000000000000000000000000000000000008152600401612b4890613c36565b60405180910390fd5b8060600151341015612b98576040517f08c379a0000000000000000000000000000000000000000000000000000000008152600401612b8f90613c36565b60405180910390fd5b600a600083815260200190815260200160002060009054906101000a900473ffffffffffffffffffffffffffffffffffffffff1673ffffffffffffffffffffffffffffffffffffffff16816040015173ffffffffffffffffffffffffffffffffffffffff1614612c3d576040517f08c379a0000000000000000000000000000000000000000000000000000000008152600401612c3490613c36565b60405180910390fd5b60008160400151905033600a600085815260200190815260200160002060006101000a81548173ffffffffffffffffffffffffffffffffffffffff021916908373ffffffffffffffffffffffffffffffffffffffff160217905550600b60008273ffffffffffffffffffffffffffffffffffffffff1673ffffffffffffffffffffffffffffffffffffffff1681526020019081526020016000206000815480929190612ce890613e15565b9190505550600b60003373ffffffffffffffffffffffffffffffffffffffff1673ffffffffffffffffffffffffffffffffffffffff1681526020019081526020016000206000815480929190612d3d90613ea2565b91905055503373ffffffffffffffffffffffffffffffffffffffff168173ffffffffffffffffffffffffffffffffffffffff167fddf252ad1be2c89b69c2b068fc378daa952ba7f163c4a11628f55a4df523b3ef6001604051612da09190613bf9565b60405180910390a3612db1836110e3565b34600e60008373ffffffffffffffffffffffffffffffffffffffff1673ffffffffffffffffffffffffffffffffffffffff1681526020019081526020016000206000828254612e009190613d25565b925050819055503373ffffffffffffffffffffffffffffffffffffffff168173ffffffffffffffffffffffffffffffffffffffff16847f23bd6a7d776cc01b293e9573ef30f3328402c0477c502ed84c8f0ba1dcc094f634604051612e659190613c56565b60405180910390a46000600d60008581526020019081526020016000206040518060800160405290816000820160009054906101000a900460ff16151515158152602001600182015481526020016002820160009054906101000a900473ffffffffffffffffffffffffffffffffffffffff1673ffffffffffffffffffffffffffffffffffffffff1673ffffffffffffffffffffffffffffffffffffffff16815260200160038201548152505090503373ffffffffffffffffffffffffffffffffffffffff16816040015173ffffffffffffffffffffffffffffffffffffffff161415613074578060600151600e60003373ffffffffffffffffffffffffffffffffffffffff1673ffffffffffffffffffffffffffffffffffffffff1681526020019081526020016000206000828254612f9f9190613d25565b925050819055506040518060800160405280600015158152602001858152602001600073ffffffffffffffffffffffffffffffffffffffff1681526020016000815250600d600086815260200190815260200160002060008201518160000160006101000a81548160ff0219169083151502179055506020820151816001015560408201518160020160006101000a81548173ffffffffffffffffffffffffffffffffffffffff021916908373ffffffffffffffffffffffffffffffffffffffff160217905550606082015181600301559050505b50505050565b600160009054906101000a900473ffffffffffffffffffffffffffffffffffffffff1673ffffffffffffffffffffffffffffffffffffffff163373ffffffffffffffffffffffffffffffffffffffff161461310a576040517f08c379a000000000000000000000000000000000000000000000000000000000815260040161310190613c36565b60405180910390fd5b600860009054906101000a900460ff161561315a576040517f08c379a000000000000000000000000000000000000000000000000000000000815260040161315190613c36565b60405180910390fd5b612710811061319e576040517f08c379a000000000000000000000000000000000000000000000000000000000815260040161319590613c36565b60405180910390fd5b8173ffffffffffffffffffffffffffffffffffffffff16600a600083815260200190815260200160002060009054906101000a900473ffffffffffffffffffffffffffffffffffffffff1673ffffffffffffffffffffffffffffffffffffffff161461340757600073ffffffffffffffffffffffffffffffffffffffff16600a600083815260200190815260200160002060009054906101000a900473ffffffffffffffffffffffffffffffffffffffff1673ffffffffffffffffffffffffffffffffffffffff16146132f857600b6000600a600084815260200190815260200160002060009054906101000a900473ffffffffffffffffffffffffffffffffffffffff1673ffffffffffffffffffffffffffffffffffffffff1673ffffffffffffffffffffffffffffffffffffffff16815260200190815260200160002060008154809291906132ee90613e15565b9190505550613311565b6009600081548092919061330b90613e15565b91905055505b81600a600083815260200190815260200160002060006101000a81548173ffffffffffffffffffffffffffffffffffffffff021916908373ffffffffffffffffffffffffffffffffffffffff160217905550600b60008373ffffffffffffffffffffffffffffffffffffffff1673ffffffffffffffffffffffffffffffffffffffff16815260200190815260200160002060008154809291906133b390613ea2565b91905055508173ffffffffffffffffffffffffffffffffffffffff167f8a0e37b73a0d9c82e205d4d1a3ff3d0b57ce5f4d7bccf6bac03336dc101cb7ba826040516133fe9190613c56565b60405180910390a25b5050565b60095481565b600a6020528060005260406000206000915054906101000a900473ffffffffffffffffffffffffffffffffffffffff1681565b600860009054906101000a900460ff1681565b600860009054906101000a900460ff166134a6576040517f08c379a000000000000000000000000000000000000000000000000000000000815260040161349d90613c36565b60405180910390fd5b3373ffffffffffffffffffffffffffffffffffffffff16600a600084815260200190815260200160002060009054906101000a900473ffffffffffffffffffffffffffffffffffffffff1673ffffffffffffffffffffffffffffffffffffffff1614613547576040517f08c379a000000000000000000000000000000000000000000000000000000000815260040161353e90613c36565b60405180910390fd5b612710821061358b576040517f08c379a000000000000000000000000000000000000000000000000000000000815260040161358290613c36565b60405180910390fd5b6040518060a001604052806001151581526020018381526020013373ffffffffffffffffffffffffffffffffffffffff168152602001828152602001600073ffffffffffffffffffffffffffffffffffffffff16815250600c600084815260200190815260200160002060008201518160000160006101000a81548160ff0219169083151502179055506020820151816001015560408201518160020160006101000a81548173ffffffffffffffffffffffffffffffffffffffff021916908373ffffffffffffffffffffffffffffffffffffffff1602179055506060820151816003015560808201518160040160006101000a81548173ffffffffffffffffffffffffffffffffffffffff021916908373ffffffffffffffffffffffffffffffffffffffff160217905550905050600073ffffffffffffffffffffffffffffffffffffffff16827fc7745c5ed59fb6521d8052f28bbbedc81ff4bdbe6860459067975d37eb4f9d4d836040516137029190613c56565b60405180910390a35050565b600e6020528060005260406000206000915090505481565b600c6020528060005260406000206000915090508060000160009054906101000a900460ff16908060010154908060020160009054906101000a900473ffffffffffffffffffffffffffffffffffffffff16908060030154908060040160009054906101000a900473ffffffffffffffffffffffffffffffffffffffff16905085565b60006137bc6137b784613cb1565b613c8c565b905080838252602082019050828560208602820111156137db57600080fd5b60005b8581101561380b57816137f18882613881565b8452602084019350602083019250506001810190506137de565b5050509392505050565b600061382861382384613cdd565b613c8c565b9050808382526020820190508285602086028201111561384757600080fd5b60005b85811015613877578161385d88826138ea565b84526020840193506020830192505060018101905061384a565b5050509392505050565b60008135905061389081613fb2565b92915050565b600082601f8301126138a757600080fd5b81356138b78482602086016137a9565b91505092915050565b600082601f8301126138d157600080fd5b81356138e1848260208601613815565b91505092915050565b6000813590506138f981613fc9565b92915050565b60006020828403121561391157600080fd5b600061391f84828501613881565b91505092915050565b6000806040838503121561393b57600080fd5b600061394985828601613881565b925050602061395a858286016138ea565b9150509250929050565b6000806040838503121561397757600080fd5b600083013567ffffffffffffffff81111561399157600080fd5b61399d85828601613896565b925050602083013567ffffffffffffffff8111156139ba57600080fd5b6139c6858286016138c0565b9150509250929050565b6000602082840312156139e257600080fd5b60006139f0848285016138ea565b91505092915050565b60008060408385031215613a0c57600080fd5b6000613a1a858286016138ea565b9250506020613a2b858286016138ea565b9150509250929050565b600080600060608486031215613a4a57600080fd5b6000613a58868287016138ea565b9350506020613a69868287016138ea565b9250506040613a7a86828701613881565b9150509250925092565b613a8d81613d7b565b82525050565b613a9c81613d8d565b82525050565b613aab81613dd0565b82525050565b6000613abc82613d09565b613ac68185613d14565b9350613ad6818560208601613de2565b613adf81613f78565b840191505092915050565b6000613af7600583613d14565b9150613b0282613f89565b602082019050919050565b613b1681613db9565b82525050565b613b2581613dc3565b82525050565b6000602082019050613b406000830184613a84565b92915050565b6000602082019050613b5b6000830184613a93565b92915050565b6000608082019050613b766000830187613a93565b613b836020830186613b0d565b613b906040830185613a84565b613b9d6060830184613b0d565b95945050505050565b600060a082019050613bbb6000830188613a93565b613bc86020830187613b0d565b613bd56040830186613a84565b613be26060830185613b0d565b613bef6080830184613a84565b9695505050505050565b6000602082019050613c0e6000830184613aa2565b92915050565b60006020820190508181036000830152613c2e8184613ab1565b905092915050565b60006020820190508181036000830152613c4f81613aea565b9050919050565b6000602082019050613c6b6000830184613b0d565b92915050565b6000602082019050613c866000830184613b1c565b92915050565b6000613c96613ca7565b9050613ca28282613e71565b919050565b6000604051905090565b600067ffffffffffffffff821115613ccc57613ccb613f49565b5b602082029050602081019050919050565b600067ffffffffffffffff821115613cf857613cf7613f49565b5b602082029050602081019050919050565b600081519050919050565b600082825260208201905092915050565b6000613d3082613db9565b9150613d3b83613db9565b9250827fffffffffffffffffffffffffffffffffffffffffffffffffffffffffffffffff03821115613d7057613d6f613eeb565b5b828201905092915050565b6000613d8682613d99565b9050919050565b60008115159050919050565b600073ffffffffffffffffffffffffffffffffffffffff82169050919050565b6000819050919050565b600060ff82169050919050565b6000613ddb82613db9565b9050919050565b60005b83811015613e00578082015181840152602081019050613de5565b83811115613e0f576000848401525b50505050565b6000613e2082613db9565b91506000821415613e3457613e33613eeb565b5b600182039050919050565b60006002820490506001821680613e5757607f821691505b60208210811415613e6b57613e6a613f1a565b5b50919050565b613e7a82613f78565b810181811067ffffffffffffffff82111715613e9957613e98613f49565b5b80604052505050565b6000613ead82613db9565b91507fffffffffffffffffffffffffffffffffffffffffffffffffffffffffffffffff821415613ee057613edf613eeb565b5b600182019050919050565b7f4e487b7100000000000000000000000000000000000000000000000000000000600052601160045260246000fd5b7f4e487b7100000000000000000000000000000000000000000000000000000000600052602260045260246000fd5b7f4e487b7100000000000000000000000000000000000000000000000000000000600052604160045260246000fd5b6000601f19601f8301169050919050565b7f4572726f72000000000000000000000000000000000000000000000000000000600082015250565b613fbb81613d7b565b8114613fc657600080fd5b50565b613fd281613db9565b8114613fdd57600080fd5b5056fea26469706673582212209efa49609d23ba4834de89baaed172e82e373ed002695b78966023f91c0b1d1964736f6c6343000804003361633339616634373933313139656534366262666633353164386362366235663233646136303232323132366164643432363865323631313939613239323162",
  "linkReferences": {},
  "deployedLinkReferences": {}
}