{
  "_format": "hh-sol-artifact-1",
  "contractName": "NapaCryptoSpaceMarket",
  "sourceName": "contracts/NapaCryptoSpaceMarket.sol",
  "abi": [
    {
      "inputs": [],
      "stateMutability": "nonpayable",
      "type": "constructor"
    },
    {
      "anonymous": false,
      "inputs": [
        {
          "indexed": true,
          "internalType": "address",
          "name": "to",
          "type": "address"
        },
        {
          "indexed": false,
          "internalType": "uint256",
          "name": "spaceIndex",
          "type": "uint256"
        }
      ],
      "name": "Assign",
      "type": "event"
    },
    {
      "anonymous": false,
      "inputs": [
        {
          "indexed": true,
          "internalType": "address",
          "name": "from",
          "type": "address"
        },
        {
          "indexed": true,
          "internalType": "address",
          "name": "to",
          "type": "address"
        },
        {
          "indexed": false,
          "internalType": "uint256",
          "name": "value",
          "type": "uint256"
        }
      ],
      "name": "ETHTransfer",
      "type": "event"
    },
    {
      "anonymous": false,
      "inputs": [
        {
          "indexed": true,
          "internalType": "address",
          "name": "previousOwner",
          "type": "address"
        },
        {
          "indexed": true,
          "internalType": "address",
          "name": "newOwner",
          "type": "address"
        }
      ],
      "name": "OwnershipTransferred",
      "type": "event"
    },
    {
      "anonymous": false,
      "inputs": [
        {
          "indexed": true,
          "internalType": "uint256",
          "name": "spaceIndex",
          "type": "uint256"
        },
        {
          "indexed": false,
          "internalType": "uint256",
          "name": "value",
          "type": "uint256"
        }
      ],
      "name": "SpaceBidEntered",
      "type": "event"
    },
    {
      "anonymous": false,
      "inputs": [
        {
          "indexed": true,
          "internalType": "uint256",
          "name": "spaceIndex",
          "type": "uint256"
        },
        {
          "indexed": false,
          "internalType": "uint256",
          "name": "value",
          "type": "uint256"
        }
      ],
      "name": "SpaceBidWithdrawn",
      "type": "event"
    },
    {
      "anonymous": false,
      "inputs": [
        {
          "indexed": true,
          "internalType": "uint256",
          "name": "spaceIndex",
          "type": "uint256"
        },
        {
          "indexed": false,
          "internalType": "uint256",
          "name": "value",
          "type": "uint256"
        },
        {
          "indexed": true,
          "internalType": "address",
          "name": "fromAddress",
          "type": "address"
        },
        {
          "indexed": true,
          "internalType": "address",
          "name": "toAddress",
          "type": "address"
        }
      ],
      "name": "SpaceBought",
      "type": "event"
    },
    {
      "anonymous": false,
      "inputs": [
        {
          "indexed": true,
          "internalType": "uint256",
          "name": "spaceIndex",
          "type": "uint256"
        }
      ],
      "name": "SpaceNoLongerForSale",
      "type": "event"
    },
    {
      "anonymous": false,
      "inputs": [
        {
          "indexed": true,
          "internalType": "uint256",
          "name": "spaceIndex",
          "type": "uint256"
        },
        {
          "indexed": false,
          "internalType": "uint256",
          "name": "minValue",
          "type": "uint256"
        },
        {
          "indexed": true,
          "internalType": "address",
          "name": "toAddress",
          "type": "address"
        }
      ],
      "name": "SpaceOffered",
      "type": "event"
    },
    {
      "anonymous": false,
      "inputs": [
        {
          "indexed": true,
          "internalType": "address",
          "name": "from",
          "type": "address"
        },
        {
          "indexed": true,
          "internalType": "address",
          "name": "to",
          "type": "address"
        },
        {
          "indexed": false,
          "internalType": "uint256",
          "name": "spaceIndex",
          "type": "uint256"
        }
      ],
      "name": "SpaceTransfer",
      "type": "event"
    },
    {
      "inputs": [
        {
          "internalType": "uint256",
          "name": "spaceIndex",
          "type": "uint256"
        },
        {
          "internalType": "uint256",
          "name": "minPrice",
          "type": "uint256"
        }
      ],
      "name": "acceptBidForSpace",
      "outputs": [],
      "stateMutability": "nonpayable",
      "type": "function"
    },
    {
      "inputs": [
        {
          "internalType": "address",
          "name": "",
          "type": "address"
        }
      ],
      "name": "balanceOf",
      "outputs": [
        {
          "internalType": "uint256",
          "name": "",
          "type": "uint256"
        }
      ],
      "stateMutability": "view",
      "type": "function"
    },
    {
      "inputs": [
        {
          "internalType": "uint256",
          "name": "spaceIndex",
          "type": "uint256"
        }
      ],
      "name": "buySpace",
      "outputs": [],
      "stateMutability": "payable",
      "type": "function"
    },
    {
      "inputs": [
        {
          "internalType": "uint256",
          "name": "spaceIndex",
          "type": "uint256"
        }
      ],
      "name": "enterBidForSpace",
      "outputs": [],
      "stateMutability": "payable",
      "type": "function"
    },
    {
      "inputs": [
        {
          "internalType": "uint256",
          "name": "spaceIndex",
          "type": "uint256"
        }
      ],
      "name": "getSpace",
      "outputs": [],
      "stateMutability": "nonpayable",
      "type": "function"
    },
    {
      "inputs": [],
      "name": "name",
      "outputs": [
        {
          "internalType": "string",
          "name": "",
          "type": "string"
        }
      ],
      "stateMutability": "view",
      "type": "function"
    },
    {
      "inputs": [
        {
          "internalType": "uint256",
          "name": "spaceIndex",
          "type": "uint256"
        },
        {
          "internalType": "uint256",
          "name": "minSalePriceInWei",
          "type": "uint256"
        }
      ],
      "name": "offerSpaceForSale",
      "outputs": [],
      "stateMutability": "nonpayable",
      "type": "function"
    },
    {
      "inputs": [
        {
          "internalType": "uint256",
          "name": "spaceIndex",
          "type": "uint256"
        },
        {
          "internalType": "uint256",
          "name": "minSalePriceInWei",
          "type": "uint256"
        },
        {
          "internalType": "address",
          "name": "toAddress",
          "type": "address"
        }
      ],
      "name": "offerSpaceForSaleToAddress",
      "outputs": [],
      "stateMutability": "nonpayable",
      "type": "function"
    },
    {
      "inputs": [],
      "name": "owner",
      "outputs": [
        {
          "internalType": "address",
          "name": "",
          "type": "address"
        }
      ],
      "stateMutability": "view",
      "type": "function"
    },
    {
      "inputs": [
        {
          "internalType": "address",
          "name": "",
          "type": "address"
        }
      ],
      "name": "pendingWithdrawals",
      "outputs": [
        {
          "internalType": "uint256",
          "name": "",
          "type": "uint256"
        }
      ],
      "stateMutability": "view",
      "type": "function"
    },
    {
      "inputs": [],
      "name": "renounceOwnership",
      "outputs": [],
      "stateMutability": "nonpayable",
      "type": "function"
    },
    {
      "inputs": [
        {
          "internalType": "address",
          "name": "to",
          "type": "address"
        },
        {
          "internalType": "uint256",
          "name": "spaceIndex",
          "type": "uint256"
        }
      ],
      "name": "setInitialOwner",
      "outputs": [],
      "stateMutability": "nonpayable",
      "type": "function"
    },
    {
      "inputs": [
        {
          "internalType": "address[]",
          "name": "addresses",
          "type": "address[]"
        },
        {
          "internalType": "uint256[]",
          "name": "indices",
          "type": "uint256[]"
        }
      ],
      "name": "setInitialOwners",
      "outputs": [],
      "stateMutability": "nonpayable",
      "type": "function"
    },
    {
      "inputs": [
        {
          "internalType": "uint256",
          "name": "",
          "type": "uint256"
        }
      ],
      "name": "spaceBids",
      "outputs": [
        {
          "internalType": "bool",
          "name": "hasBid",
          "type": "bool"
        },
        {
          "internalType": "uint256",
          "name": "spaceIndex",
          "type": "uint256"
        },
        {
          "internalType": "address",
          "name": "bidder",
          "type": "address"
        },
        {
          "internalType": "uint256",
          "name": "value",
          "type": "uint256"
        }
      ],
      "stateMutability": "view",
      "type": "function"
    },
    {
      "inputs": [
        {
          "internalType": "uint256",
          "name": "",
          "type": "uint256"
        }
      ],
      "name": "spaceIndexToAddress",
      "outputs": [
        {
          "internalType": "address",
          "name": "",
          "type": "address"
        }
      ],
      "stateMutability": "view",
      "type": "function"
    },
    {
      "inputs": [
        {
          "internalType": "uint256",
          "name": "",
          "type": "uint256"
        }
      ],
      "name": "spacesOfferedForSale",
      "outputs": [
        {
          "internalType": "bool",
          "name": "isForSale",
          "type": "bool"
        },
        {
          "internalType": "uint256",
          "name": "spaceIndex",
          "type": "uint256"
        },
        {
          "internalType": "address",
          "name": "seller",
          "type": "address"
        },
        {
          "internalType": "uint256",
          "name": "minValue",
          "type": "uint256"
        },
        {
          "internalType": "address",
          "name": "onlySellTo",
          "type": "address"
        }
      ],
      "stateMutability": "view",
      "type": "function"
    },
    {
      "inputs": [],
      "name": "spacesRemainingToAssign",
      "outputs": [
        {
          "internalType": "uint256",
          "name": "",
          "type": "uint256"
        }
      ],
      "stateMutability": "view",
      "type": "function"
    },
    {
      "inputs": [],
      "name": "symbol",
      "outputs": [
        {
          "internalType": "string",
          "name": "",
          "type": "string"
        }
      ],
      "stateMutability": "view",
      "type": "function"
    },
    {
      "inputs": [
        {
          "internalType": "address",
          "name": "newOwner",
          "type": "address"
        }
      ],
      "name": "transferOwnership",
      "outputs": [],
      "stateMutability": "nonpayable",
      "type": "function"
    },
    {
      "inputs": [
        {
          "internalType": "address",
          "name": "to",
          "type": "address"
        },
        {
          "internalType": "uint256",
          "name": "spaceIndex",
          "type": "uint256"
        }
      ],
      "name": "transferSpace",
      "outputs": [],
      "stateMutability": "nonpayable",
      "type": "function"
    },
    {
      "inputs": [],
      "name": "withdraw",
      "outputs": [],
      "stateMutability": "nonpayable",
      "type": "function"
    },
    {
      "inputs": [
        {
          "internalType": "uint256",
          "name": "spaceIndex",
          "type": "uint256"
        }
      ],
      "name": "withdrawBidForSpace",
      "outputs": [],
      "stateMutability": "nonpayable",
      "type": "function"
    }
  ],
  "bytecode": "0x60806040526127106003553480156200001757600080fd5b5060006200002a6200017360201b60201c565b9050806000806101000a81548173ffffffffffffffffffffffffffffffffffffffff021916908373ffffffffffffffffffffffffffffffffffffffff1602179055508073ffffffffffffffffffffffffffffffffffffffff16600073ffffffffffffffffffffffffffffffffffffffff167f8be0079c531659141344cd1fd0a4f28419497f9722a3daafe3b4186f6b6457e060405160405180910390a3506003546004819055506040518060400160405280600b81526020017f43525950544f5350414345000000000000000000000000000000000000000000815250600190805190602001906200011e9291906200017b565b506040518060400160405280600381526020017f4e43530000000000000000000000000000000000000000000000000000000000815250600290805190602001906200016c9291906200017b565b5062000290565b600033905090565b82805462000189906200022b565b90600052602060002090601f016020900481019282620001ad5760008555620001f9565b82601f10620001c857805160ff1916838001178555620001f9565b82800160010185558215620001f9579182015b82811115620001f8578251825591602001919060010190620001db565b5b5090506200020891906200020c565b5090565b5b80821115620002275760008160009055506001016200020d565b5090565b600060028204905060018216806200024457607f821691505b602082108114156200025b576200025a62000261565b5b50919050565b7f4e487b7100000000000000000000000000000000000000000000000000000000600052602260045260246000fd5b61443580620002a06000396000f3fe6080604052600436106101355760003560e01c80638da5cb5b116100ab578063a797de941161006f578063a797de94146103bd578063da99c420146103e8578063de80318d14610425578063f2fde38b1461044e578063f3f4370314610477578063ff7bdc0a146104b457610135565b80638da5cb5b146102f957806395d89b4114610324578063994f42eb1461034f5780639bd1332e14610378578063a75a90491461039457610135565b80635b795c7c116100fd5780635b795c7c1461020e5780636178e8d11461022a57806370a082311461025357806370e1043114610290578063715018a6146102b95780637fa4f1d9146102d057610135565b806306fdde031461013a57806339c5dde6146101655780633ccfd60b1461018e57806351d28bdb146101a557806354e39e88146101e5575b600080fd5b34801561014657600080fd5b5061014f6104f5565b60405161015c9190613ad6565b60405180910390f35b34801561017157600080fd5b5061018c60048036038101906101879190613627565b610583565b005b34801561019a57600080fd5b506101a36106b3565b005b3480156101b157600080fd5b506101cc60048036038101906101c79190613693565b610807565b6040516101dc9493929190613a3e565b60405180910390f35b3480156101f157600080fd5b5061020c600480360381019061020791906136bc565b610864565b005b61022860048036038101906102239190613693565b610e6f565b005b34801561023657600080fd5b50610251600480360381019061024c91906135eb565b6112ae565b005b34801561025f57600080fd5b5061027a600480360381019061027591906135c2565b61174c565b6040516102879190613d38565b60405180910390f35b34801561029c57600080fd5b506102b760048036038101906102b29190613693565b611764565b005b3480156102c557600080fd5b506102ce6119b9565b005b3480156102dc57600080fd5b506102f760048036038101906102f291906136f8565b611af3565b005b34801561030557600080fd5b5061030e611d6c565b60405161031b9190613a23565b60405180910390f35b34801561033057600080fd5b50610339611d95565b6040516103469190613ad6565b60405180910390f35b34801561035b57600080fd5b5061037660048036038101906103719190613693565b611e23565b005b610392600480360381019061038d9190613693565b6122a8565b005b3480156103a057600080fd5b506103bb60048036038101906103b691906135eb565b6129c9565b005b3480156103c957600080fd5b506103d2612d16565b6040516103df9190613d38565b60405180910390f35b3480156103f457600080fd5b5061040f600480360381019061040a9190613693565b612d1c565b60405161041c9190613a23565b60405180910390f35b34801561043157600080fd5b5061044c600480360381019061044791906136bc565b612d4f565b005b34801561045a57600080fd5b50610475600480360381019061047091906135c2565b612fc9565b005b34801561048357600080fd5b5061049e600480360381019061049991906135c2565b613172565b6040516104ab9190613d38565b60405180910390f35b3480156104c057600080fd5b506104db60048036038101906104d69190613693565b61318a565b6040516104ec959493929190613a83565b60405180910390f35b6001805461050290613ee7565b80601f016020809104026020016040519081016040528092919081815260200182805461052e90613ee7565b801561057b5780601f106105505761010080835404028352916020019161057b565b820191906000526020600020905b81548152906001019060200180831161055e57829003601f168201915b505050505081565b61058b61320d565b73ffffffffffffffffffffffffffffffffffffffff166105a9611d6c565b73ffffffffffffffffffffffffffffffffffffffff16146105ff576040517f08c379a00000000000000000000000000000000000000000000000000000000081526004016105f690613c38565b60405180910390fd5b60008251905060005b818110156106ad5761069a84828151811061064c577f4e487b7100000000000000000000000000000000000000000000000000000000600052603260045260246000fd5b602002602001015184838151811061068d577f4e487b7100000000000000000000000000000000000000000000000000000000600052603260045260246000fd5b60200260200101516129c9565b80806106a590613f4a565b915050610608565b50505050565b6000600960006106c161320d565b73ffffffffffffffffffffffffffffffffffffffff1673ffffffffffffffffffffffffffffffffffffffff16815260200190815260200160002054905060006009600061070c61320d565b73ffffffffffffffffffffffffffffffffffffffff1673ffffffffffffffffffffffffffffffffffffffff1681526020019081526020016000208190555061075261320d565b73ffffffffffffffffffffffffffffffffffffffff166108fc829081150290604051600060405180830381858888f19350505050158015610797573d6000803e3d6000fd5b506107a061320d565b73ffffffffffffffffffffffffffffffffffffffff163073ffffffffffffffffffffffffffffffffffffffff167fa96f45c7f021e61b3f486703c7db5ff1987ae3e6c1612b7085a0ded0270e9679836040516107fc9190613d38565b60405180910390a350565b60086020528060005260406000206000915090508060000160009054906101000a900460ff16908060010154908060020160009054906101000a900473ffffffffffffffffffffffffffffffffffffffff16908060030154905084565b8160035481106108a9576040517f08c379a00000000000000000000000000000000000000000000000000000000081526004016108a090613bf8565b60405180910390fd5b826108b261320d565b73ffffffffffffffffffffffffffffffffffffffff166005600083815260200190815260200160002060009054906101000a900473ffffffffffffffffffffffffffffffffffffffff1673ffffffffffffffffffffffffffffffffffffffff1614610952576040517f08c379a000000000000000000000000000000000000000000000000000000000815260040161094990613cf8565b60405180910390fd5b600061095c61320d565b90506000600860008781526020019081526020016000206040518060800160405290816000820160009054906101000a900460ff16151515158152602001600182015481526020016002820160009054906101000a900473ffffffffffffffffffffffffffffffffffffffff1673ffffffffffffffffffffffffffffffffffffffff1673ffffffffffffffffffffffffffffffffffffffff1681526020016003820154815250509050600081606001511415610a4d576040517f08c379a0000000000000000000000000000000000000000000000000000000008152600401610a4490613bd8565b60405180910390fd5b8481606001511015610a94576040517f08c379a0000000000000000000000000000000000000000000000000000000008152600401610a8b90613c58565b60405180910390fd5b80604001516005600088815260200190815260200160002060006101000a81548173ffffffffffffffffffffffffffffffffffffffff021916908373ffffffffffffffffffffffffffffffffffffffff160217905550600660008373ffffffffffffffffffffffffffffffffffffffff1673ffffffffffffffffffffffffffffffffffffffff1681526020019081526020016000206000815480929190610b3a90613ebd565b919050555060066000826040015173ffffffffffffffffffffffffffffffffffffffff1673ffffffffffffffffffffffffffffffffffffffff1681526020019081526020016000206000815480929190610b9390613f4a565b91905055506040518060a00160405280600015158152602001878152602001826040015173ffffffffffffffffffffffffffffffffffffffff16815260200160008152602001600073ffffffffffffffffffffffffffffffffffffffff168152506007600088815260200190815260200160002060008201518160000160006101000a81548160ff0219169083151502179055506020820151816001015560408201518160020160006101000a81548173ffffffffffffffffffffffffffffffffffffffff021916908373ffffffffffffffffffffffffffffffffffffffff1602179055506060820151816003015560808201518160040160006101000a81548173ffffffffffffffffffffffffffffffffffffffff021916908373ffffffffffffffffffffffffffffffffffffffff1602179055509050506000816060015190506040518060800160405280600015158152602001888152602001600073ffffffffffffffffffffffffffffffffffffffff16815260200160008152506008600089815260200190815260200160002060008201518160000160006101000a81548160ff0219169083151502179055506020820151816001015560408201518160020160006101000a81548173ffffffffffffffffffffffffffffffffffffffff021916908373ffffffffffffffffffffffffffffffffffffffff1602179055506060820151816003015590505080600960008573ffffffffffffffffffffffffffffffffffffffff1673ffffffffffffffffffffffffffffffffffffffff1681526020019081526020016000206000828254610df19190613dec565b92505081905550816040015173ffffffffffffffffffffffffffffffffffffffff168373ffffffffffffffffffffffffffffffffffffffff16887f23bd6a7d776cc01b293e9573ef30f3328402c0477c502ed84c8f0ba1dcc094f68560600151604051610e5e9190613d38565b60405180910390a450505050505050565b806003548110610eb4576040517f08c379a0000000000000000000000000000000000000000000000000000000008152600401610eab90613bf8565b60405180910390fd5b81600073ffffffffffffffffffffffffffffffffffffffff166005600083815260200190815260200160002060009054906101000a900473ffffffffffffffffffffffffffffffffffffffff1673ffffffffffffffffffffffffffffffffffffffff161415610f58576040517f08c379a0000000000000000000000000000000000000000000000000000000008152600401610f4f90613c98565b60405180910390fd5b610f6061320d565b73ffffffffffffffffffffffffffffffffffffffff166005600083815260200190815260200160002060009054906101000a900473ffffffffffffffffffffffffffffffffffffffff1673ffffffffffffffffffffffffffffffffffffffff161415611001576040517f08c379a0000000000000000000000000000000000000000000000000000000008152600401610ff890613b98565b60405180910390fd5b6000341415611045576040517f08c379a000000000000000000000000000000000000000000000000000000000815260040161103c90613c78565b60405180910390fd5b6000600860008581526020019081526020016000206040518060800160405290816000820160009054906101000a900460ff16151515158152602001600182015481526020016002820160009054906101000a900473ffffffffffffffffffffffffffffffffffffffff1673ffffffffffffffffffffffffffffffffffffffff1673ffffffffffffffffffffffffffffffffffffffff168152602001600382015481525050905080606001513411611132576040517f08c379a000000000000000000000000000000000000000000000000000000000815260040161112990613b38565b60405180910390fd5b60008160600151111561119e57806060015160096000836040015173ffffffffffffffffffffffffffffffffffffffff1673ffffffffffffffffffffffffffffffffffffffff16815260200190815260200160002060008282546111969190613dec565b925050819055505b60405180608001604052806001151581526020018581526020016111c061320d565b73ffffffffffffffffffffffffffffffffffffffff168152602001348152506008600086815260200190815260200160002060008201518160000160006101000a81548160ff0219169083151502179055506020820151816001015560408201518160020160006101000a81548173ffffffffffffffffffffffffffffffffffffffff021916908373ffffffffffffffffffffffffffffffffffffffff16021790555060608201518160030155905050837f6c7774aa65846ab41024d9d3bf54d81c4949b1e05db79af29ac41c752817ab16346040516112a09190613d38565b60405180910390a250505050565b8060035481106112f3576040517f08c379a00000000000000000000000000000000000000000000000000000000081526004016112ea90613bf8565b60405180910390fd5b816112fc61320d565b73ffffffffffffffffffffffffffffffffffffffff166005600083815260200190815260200160002060009054906101000a900473ffffffffffffffffffffffffffffffffffffffff1673ffffffffffffffffffffffffffffffffffffffff161461139c576040517f08c379a000000000000000000000000000000000000000000000000000000000815260040161139390613cf8565b60405180910390fd5b6007600084815260200190815260200160002060000160009054906101000a900460ff16156113cf576113ce83613215565b5b836005600085815260200190815260200160002060006101000a81548173ffffffffffffffffffffffffffffffffffffffff021916908373ffffffffffffffffffffffffffffffffffffffff1602179055506006600061142d61320d565b73ffffffffffffffffffffffffffffffffffffffff1673ffffffffffffffffffffffffffffffffffffffff168152602001908152602001600020600081548092919061147890613ebd565b9190505550600660008573ffffffffffffffffffffffffffffffffffffffff1673ffffffffffffffffffffffffffffffffffffffff16815260200190815260200160002060008154809291906114cd90613f4a565b91905055508373ffffffffffffffffffffffffffffffffffffffff166114f161320d565b73ffffffffffffffffffffffffffffffffffffffff167f93637f65711d87b65eab15bd147a75be2ff4d04b41aaf70e10b062851190a399856040516115369190613d38565b60405180910390a36000600860008581526020019081526020016000206040518060800160405290816000820160009054906101000a900460ff16151515158152602001600182015481526020016002820160009054906101000a900473ffffffffffffffffffffffffffffffffffffffff1673ffffffffffffffffffffffffffffffffffffffff1673ffffffffffffffffffffffffffffffffffffffff16815260200160038201548152505090508473ffffffffffffffffffffffffffffffffffffffff16816040015173ffffffffffffffffffffffffffffffffffffffff161415611745578060600151600960008773ffffffffffffffffffffffffffffffffffffffff1673ffffffffffffffffffffffffffffffffffffffff16815260200190815260200160002060008282546116709190613dec565b925050819055506040518060800160405280600015158152602001858152602001600073ffffffffffffffffffffffffffffffffffffffff16815260200160008152506008600086815260200190815260200160002060008201518160000160006101000a81548160ff0219169083151502179055506020820151816001015560408201518160020160006101000a81548173ffffffffffffffffffffffffffffffffffffffff021916908373ffffffffffffffffffffffffffffffffffffffff160217905550606082015181600301559050505b5050505050565b60066020528060005260406000206000915090505481565b8060035481106117a9576040517f08c379a00000000000000000000000000000000000000000000000000000000081526004016117a090613bf8565b60405180910390fd5b81600060045414156117f0576040517f08c379a00000000000000000000000000000000000000000000000000000000081526004016117e790613bb8565b60405180910390fd5b600073ffffffffffffffffffffffffffffffffffffffff166005600083815260200190815260200160002060009054906101000a900473ffffffffffffffffffffffffffffffffffffffff1673ffffffffffffffffffffffffffffffffffffffff1614611892576040517f08c379a000000000000000000000000000000000000000000000000000000000815260040161188990613af8565b60405180910390fd5b61189a61320d565b6005600085815260200190815260200160002060006101000a81548173ffffffffffffffffffffffffffffffffffffffff021916908373ffffffffffffffffffffffffffffffffffffffff160217905550600660006118f761320d565b73ffffffffffffffffffffffffffffffffffffffff1673ffffffffffffffffffffffffffffffffffffffff168152602001908152602001600020600081548092919061194290613f4a565b91905055506004600081548092919061195a90613ebd565b919050555061196761320d565b73ffffffffffffffffffffffffffffffffffffffff167f8a0e37b73a0d9c82e205d4d1a3ff3d0b57ce5f4d7bccf6bac03336dc101cb7ba846040516119ac9190613d38565b60405180910390a2505050565b6119c161320d565b73ffffffffffffffffffffffffffffffffffffffff166119df611d6c565b73ffffffffffffffffffffffffffffffffffffffff1614611a35576040517f08c379a0000000000000000000000000000000000000000000000000000000008152600401611a2c90613c38565b60405180910390fd5b600073ffffffffffffffffffffffffffffffffffffffff1660008054906101000a900473ffffffffffffffffffffffffffffffffffffffff1673ffffffffffffffffffffffffffffffffffffffff167f8be0079c531659141344cd1fd0a4f28419497f9722a3daafe3b4186f6b6457e060405160405180910390a360008060006101000a81548173ffffffffffffffffffffffffffffffffffffffff021916908373ffffffffffffffffffffffffffffffffffffffff160217905550565b826003548110611b38576040517f08c379a0000000000000000000000000000000000000000000000000000000008152600401611b2f90613bf8565b60405180910390fd5b83611b4161320d565b73ffffffffffffffffffffffffffffffffffffffff166005600083815260200190815260200160002060009054906101000a900473ffffffffffffffffffffffffffffffffffffffff1673ffffffffffffffffffffffffffffffffffffffff1614611be1576040517f08c379a0000000000000000000000000000000000000000000000000000000008152600401611bd890613cf8565b60405180910390fd5b6040518060a00160405280600115158152602001868152602001611c0361320d565b73ffffffffffffffffffffffffffffffffffffffff1681526020018581526020018473ffffffffffffffffffffffffffffffffffffffff168152506007600087815260200190815260200160002060008201518160000160006101000a81548160ff0219169083151502179055506020820151816001015560408201518160020160006101000a81548173ffffffffffffffffffffffffffffffffffffffff021916908373ffffffffffffffffffffffffffffffffffffffff1602179055506060820151816003015560808201518160040160006101000a81548173ffffffffffffffffffffffffffffffffffffffff021916908373ffffffffffffffffffffffffffffffffffffffff1602179055509050508273ffffffffffffffffffffffffffffffffffffffff16857fc7745c5ed59fb6521d8052f28bbbedc81ff4bdbe6860459067975d37eb4f9d4d86604051611d5d9190613d38565b60405180910390a35050505050565b60008060009054906101000a900473ffffffffffffffffffffffffffffffffffffffff16905090565b60028054611da290613ee7565b80601f0160208091040260200160405190810160405280929190818152602001828054611dce90613ee7565b8015611e1b5780601f10611df057610100808354040283529160200191611e1b565b820191906000526020600020905b815481529060010190602001808311611dfe57829003601f168201915b505050505081565b806003548110611e68576040517f08c379a0000000000000000000000000000000000000000000000000000000008152600401611e5f90613bf8565b60405180910390fd5b81600073ffffffffffffffffffffffffffffffffffffffff166005600083815260200190815260200160002060009054906101000a900473ffffffffffffffffffffffffffffffffffffffff1673ffffffffffffffffffffffffffffffffffffffff161415611f0c576040517f08c379a0000000000000000000000000000000000000000000000000000000008152600401611f0390613c98565b60405180910390fd5b611f1461320d565b73ffffffffffffffffffffffffffffffffffffffff166005600083815260200190815260200160002060009054906101000a900473ffffffffffffffffffffffffffffffffffffffff1673ffffffffffffffffffffffffffffffffffffffff161415611fb5576040517f08c379a0000000000000000000000000000000000000000000000000000000008152600401611fac90613b98565b60405180910390fd5b6000600860008581526020019081526020016000206040518060800160405290816000820160009054906101000a900460ff16151515158152602001600182015481526020016002820160009054906101000a900473ffffffffffffffffffffffffffffffffffffffff1673ffffffffffffffffffffffffffffffffffffffff1673ffffffffffffffffffffffffffffffffffffffff168152602001600382015481525050905061206461320d565b73ffffffffffffffffffffffffffffffffffffffff16816040015173ffffffffffffffffffffffffffffffffffffffff16146120d5576040517f08c379a00000000000000000000000000000000000000000000000000000000081526004016120cc90613b18565b60405180910390fd5b837fb03733b7bfa62b05d6586f75b62255477eb894cb5cae3d6ba2c887050f284ca482606001516040516121099190613d38565b60405180910390a26000816060015190506040518060800160405280600015158152602001868152602001600073ffffffffffffffffffffffffffffffffffffffff16815260200160008152506008600087815260200190815260200160002060008201518160000160006101000a81548160ff0219169083151502179055506020820151816001015560408201518160020160006101000a81548173ffffffffffffffffffffffffffffffffffffffff021916908373ffffffffffffffffffffffffffffffffffffffff160217905550606082015181600301559050506121ef61320d565b73ffffffffffffffffffffffffffffffffffffffff166108fc829081150290604051600060405180830381858888f19350505050158015612234573d6000803e3d6000fd5b5061223d61320d565b73ffffffffffffffffffffffffffffffffffffffff163073ffffffffffffffffffffffffffffffffffffffff167fa96f45c7f021e61b3f486703c7db5ff1987ae3e6c1612b7085a0ded0270e9679836040516122999190613d38565b60405180910390a35050505050565b8060035481106122ed576040517f08c379a00000000000000000000000000000000000000000000000000000000081526004016122e490613bf8565b60405180910390fd5b6000600760008481526020019081526020016000206040518060a00160405290816000820160009054906101000a900460ff16151515158152602001600182015481526020016002820160009054906101000a900473ffffffffffffffffffffffffffffffffffffffff1673ffffffffffffffffffffffffffffffffffffffff1673ffffffffffffffffffffffffffffffffffffffff168152602001600382015481526020016004820160009054906101000a900473ffffffffffffffffffffffffffffffffffffffff1673ffffffffffffffffffffffffffffffffffffffff1673ffffffffffffffffffffffffffffffffffffffff16815250509050806000015161242e576040517f08c379a000000000000000000000000000000000000000000000000000000000815260040161242590613d18565b60405180910390fd5b600073ffffffffffffffffffffffffffffffffffffffff16816080015173ffffffffffffffffffffffffffffffffffffffff1614806124a3575061247061320d565b73ffffffffffffffffffffffffffffffffffffffff16816080015173ffffffffffffffffffffffffffffffffffffffff16145b6124e2576040517f08c379a00000000000000000000000000000000000000000000000000000000081526004016124d990613cd8565b60405180910390fd5b8060600151341015612529576040517f08c379a000000000000000000000000000000000000000000000000000000000815260040161252090613cb8565b60405180910390fd5b6005600084815260200190815260200160002060009054906101000a900473ffffffffffffffffffffffffffffffffffffffff1673ffffffffffffffffffffffffffffffffffffffff16816040015173ffffffffffffffffffffffffffffffffffffffff16146125ce576040517f08c379a00000000000000000000000000000000000000000000000000000000081526004016125c590613c18565b60405180910390fd5b6000816040015190506125df61320d565b6005600086815260200190815260200160002060006101000a81548173ffffffffffffffffffffffffffffffffffffffff021916908373ffffffffffffffffffffffffffffffffffffffff160217905550600660008273ffffffffffffffffffffffffffffffffffffffff1673ffffffffffffffffffffffffffffffffffffffff168152602001908152602001600020600081548092919061268090613ebd565b91905055506006600061269161320d565b73ffffffffffffffffffffffffffffffffffffffff1673ffffffffffffffffffffffffffffffffffffffff16815260200190815260200160002060008154809291906126dc90613f4a565b91905055506126ea84613215565b34600960008373ffffffffffffffffffffffffffffffffffffffff1673ffffffffffffffffffffffffffffffffffffffff16815260200190815260200160002060008282546127399190613dec565b9250508190555061274861320d565b73ffffffffffffffffffffffffffffffffffffffff168173ffffffffffffffffffffffffffffffffffffffff16857f23bd6a7d776cc01b293e9573ef30f3328402c0477c502ed84c8f0ba1dcc094f6346040516127a59190613d38565b60405180910390a46000600860008681526020019081526020016000206040518060800160405290816000820160009054906101000a900460ff16151515158152602001600182015481526020016002820160009054906101000a900473ffffffffffffffffffffffffffffffffffffffff1673ffffffffffffffffffffffffffffffffffffffff1673ffffffffffffffffffffffffffffffffffffffff168152602001600382015481525050905061285c61320d565b73ffffffffffffffffffffffffffffffffffffffff16816040015173ffffffffffffffffffffffffffffffffffffffff1614156129c2578060600151600960006128a461320d565b73ffffffffffffffffffffffffffffffffffffffff1673ffffffffffffffffffffffffffffffffffffffff16815260200190815260200160002060008282546128ed9190613dec565b925050819055506040518060800160405280600015158152602001868152602001600073ffffffffffffffffffffffffffffffffffffffff16815260200160008152506008600087815260200190815260200160002060008201518160000160006101000a81548160ff0219169083151502179055506020820151816001015560408201518160020160006101000a81548173ffffffffffffffffffffffffffffffffffffffff021916908373ffffffffffffffffffffffffffffffffffffffff160217905550606082015181600301559050505b5050505050565b6129d161320d565b73ffffffffffffffffffffffffffffffffffffffff166129ef611d6c565b73ffffffffffffffffffffffffffffffffffffffff1614612a45576040517f08c379a0000000000000000000000000000000000000000000000000000000008152600401612a3c90613c38565b60405180910390fd5b806003548110612a8a576040517f08c379a0000000000000000000000000000000000000000000000000000000008152600401612a8190613bf8565b60405180910390fd5b8273ffffffffffffffffffffffffffffffffffffffff166005600084815260200190815260200160002060009054906101000a900473ffffffffffffffffffffffffffffffffffffffff1673ffffffffffffffffffffffffffffffffffffffff161415612b2c576040517f08c379a0000000000000000000000000000000000000000000000000000000008152600401612b2390613b58565b60405180910390fd5b600073ffffffffffffffffffffffffffffffffffffffff166005600084815260200190815260200160002060009054906101000a900473ffffffffffffffffffffffffffffffffffffffff1673ffffffffffffffffffffffffffffffffffffffff1614612c1c57600660006005600085815260200190815260200160002060009054906101000a900473ffffffffffffffffffffffffffffffffffffffff1673ffffffffffffffffffffffffffffffffffffffff1673ffffffffffffffffffffffffffffffffffffffff1681526020019081526020016000206000815480929190612c1690613ebd565b91905055505b826005600084815260200190815260200160002060006101000a81548173ffffffffffffffffffffffffffffffffffffffff021916908373ffffffffffffffffffffffffffffffffffffffff160217905550600660008473ffffffffffffffffffffffffffffffffffffffff1673ffffffffffffffffffffffffffffffffffffffff1681526020019081526020016000206000815480929190612cbe90613f4a565b91905055508273ffffffffffffffffffffffffffffffffffffffff167f8a0e37b73a0d9c82e205d4d1a3ff3d0b57ce5f4d7bccf6bac03336dc101cb7ba83604051612d099190613d38565b60405180910390a2505050565b60045481565b60056020528060005260406000206000915054906101000a900473ffffffffffffffffffffffffffffffffffffffff1681565b816003548110612d94576040517f08c379a0000000000000000000000000000000000000000000000000000000008152600401612d8b90613bf8565b60405180910390fd5b82612d9d61320d565b73ffffffffffffffffffffffffffffffffffffffff166005600083815260200190815260200160002060009054906101000a900473ffffffffffffffffffffffffffffffffffffffff1673ffffffffffffffffffffffffffffffffffffffff1614612e3d576040517f08c379a0000000000000000000000000000000000000000000000000000000008152600401612e3490613cf8565b60405180910390fd5b6040518060a00160405280600115158152602001858152602001612e5f61320d565b73ffffffffffffffffffffffffffffffffffffffff168152602001848152602001600073ffffffffffffffffffffffffffffffffffffffff168152506007600086815260200190815260200160002060008201518160000160006101000a81548160ff0219169083151502179055506020820151816001015560408201518160020160006101000a81548173ffffffffffffffffffffffffffffffffffffffff021916908373ffffffffffffffffffffffffffffffffffffffff1602179055506060820151816003015560808201518160040160006101000a81548173ffffffffffffffffffffffffffffffffffffffff021916908373ffffffffffffffffffffffffffffffffffffffff160217905550905050600073ffffffffffffffffffffffffffffffffffffffff16847fc7745c5ed59fb6521d8052f28bbbedc81ff4bdbe6860459067975d37eb4f9d4d85604051612fbb9190613d38565b60405180910390a350505050565b612fd161320d565b73ffffffffffffffffffffffffffffffffffffffff16612fef611d6c565b73ffffffffffffffffffffffffffffffffffffffff1614613045576040517f08c379a000000000000000000000000000000000000000000000000000000000815260040161303c90613c38565b60405180910390fd5b600073ffffffffffffffffffffffffffffffffffffffff168173ffffffffffffffffffffffffffffffffffffffff1614156130b5576040517f08c379a00000000000000000000000000000000000000000000000000000000081526004016130ac90613b78565b60405180910390fd5b8073ffffffffffffffffffffffffffffffffffffffff1660008054906101000a900473ffffffffffffffffffffffffffffffffffffffff1673ffffffffffffffffffffffffffffffffffffffff167f8be0079c531659141344cd1fd0a4f28419497f9722a3daafe3b4186f6b6457e060405160405180910390a3806000806101000a81548173ffffffffffffffffffffffffffffffffffffffff021916908373ffffffffffffffffffffffffffffffffffffffff16021790555050565b60096020528060005260406000206000915090505481565b60076020528060005260406000206000915090508060000160009054906101000a900460ff16908060010154908060020160009054906101000a900473ffffffffffffffffffffffffffffffffffffffff16908060030154908060040160009054906101000a900473ffffffffffffffffffffffffffffffffffffffff16905085565b600033905090565b80600354811061325a576040517f08c379a000000000000000000000000000000000000000000000000000000000815260040161325190613bf8565b60405180910390fd5b8161326361320d565b73ffffffffffffffffffffffffffffffffffffffff166005600083815260200190815260200160002060009054906101000a900473ffffffffffffffffffffffffffffffffffffffff1673ffffffffffffffffffffffffffffffffffffffff1614613303576040517f08c379a00000000000000000000000000000000000000000000000000000000081526004016132fa90613cf8565b60405180910390fd5b6040518060a0016040528060001515815260200184815260200161332561320d565b73ffffffffffffffffffffffffffffffffffffffff16815260200160008152602001600073ffffffffffffffffffffffffffffffffffffffff168152506007600085815260200190815260200160002060008201518160000160006101000a81548160ff0219169083151502179055506020820151816001015560408201518160020160006101000a81548173ffffffffffffffffffffffffffffffffffffffff021916908373ffffffffffffffffffffffffffffffffffffffff1602179055506060820151816003015560808201518160040160006101000a81548173ffffffffffffffffffffffffffffffffffffffff021916908373ffffffffffffffffffffffffffffffffffffffff160217905550905050827fffac6398132e5a7ffa281256055095adef949befe9b41a15f260a723ac3bcc4560405160405180910390a2505050565b600061347f61347a84613d78565b613d53565b9050808382526020820190508285602086028201111561349e57600080fd5b60005b858110156134ce57816134b48882613544565b8452602084019350602083019250506001810190506134a1565b5050509392505050565b60006134eb6134e684613da4565b613d53565b9050808382526020820190508285602086028201111561350a57600080fd5b60005b8581101561353a578161352088826135ad565b84526020840193506020830192505060018101905061350d565b5050509392505050565b600081359050613553816143d1565b92915050565b600082601f83011261356a57600080fd5b813561357a84826020860161346c565b91505092915050565b600082601f83011261359457600080fd5b81356135a48482602086016134d8565b91505092915050565b6000813590506135bc816143e8565b92915050565b6000602082840312156135d457600080fd5b60006135e284828501613544565b91505092915050565b600080604083850312156135fe57600080fd5b600061360c85828601613544565b925050602061361d858286016135ad565b9150509250929050565b6000806040838503121561363a57600080fd5b600083013567ffffffffffffffff81111561365457600080fd5b61366085828601613559565b925050602083013567ffffffffffffffff81111561367d57600080fd5b61368985828601613583565b9150509250929050565b6000602082840312156136a557600080fd5b60006136b3848285016135ad565b91505092915050565b600080604083850312156136cf57600080fd5b60006136dd858286016135ad565b92505060206136ee858286016135ad565b9150509250929050565b60008060006060848603121561370d57600080fd5b600061371b868287016135ad565b935050602061372c868287016135ad565b925050604061373d86828701613544565b9150509250925092565b61375081613e42565b82525050565b61375f81613e54565b82525050565b600061377082613dd0565b61377a8185613ddb565b935061378a818560208601613e8a565b61379381614020565b840191505092915050565b60006137ab602383613ddb565b91506137b682614031565b604082019050919050565b60006137ce601683613ddb565b91506137d982614080565b602082019050919050565b60006137f1602a83613ddb565b91506137fc826140a9565b604082019050919050565b6000613814601983613ddb565b915061381f826140f8565b602082019050919050565b6000613837602683613ddb565b915061384282614121565b604082019050919050565b600061385a601183613ddb565b915061386582614170565b602082019050919050565b600061387d600d83613ddb565b915061388882614199565b602082019050919050565b60006138a0601783613ddb565b91506138ab826141c2565b602082019050919050565b60006138c3601383613ddb565b91506138ce826141eb565b602082019050919050565b60006138e6601f83613ddb565b91506138f182614214565b602082019050919050565b6000613909602083613ddb565b91506139148261423d565b602082019050919050565b600061392c602c83613ddb565b915061393782614266565b604082019050919050565b600061394f601283613ddb565b915061395a826142b5565b602082019050919050565b6000613972601583613ddb565b915061397d826142de565b602082019050919050565b6000613995602083613ddb565b91506139a082614307565b602082019050919050565b60006139b8602183613ddb565b91506139c382614330565b604082019050919050565b60006139db601183613ddb565b91506139e68261437f565b602082019050919050565b60006139fe601583613ddb565b9150613a09826143a8565b602082019050919050565b613a1d81613e80565b82525050565b6000602082019050613a386000830184613747565b92915050565b6000608082019050613a536000830187613756565b613a606020830186613a14565b613a6d6040830185613747565b613a7a6060830184613a14565b95945050505050565b600060a082019050613a986000830188613756565b613aa56020830187613a14565b613ab26040830186613747565b613abf6060830185613a14565b613acc6080830184613747565b9695505050505050565b60006020820190508181036000830152613af08184613765565b905092915050565b60006020820190508181036000830152613b118161379e565b9050919050565b60006020820190508181036000830152613b31816137c1565b9050919050565b60006020820190508181036000830152613b51816137e4565b9050919050565b60006020820190508181036000830152613b7181613807565b9050919050565b60006020820190508181036000830152613b918161382a565b9050919050565b60006020820190508181036000830152613bb18161384d565b9050919050565b60006020820190508181036000830152613bd181613870565b9050919050565b60006020820190508181036000830152613bf181613893565b9050919050565b60006020820190508181036000830152613c11816138b6565b9050919050565b60006020820190508181036000830152613c31816138d9565b9050919050565b60006020820190508181036000830152613c51816138fc565b9050919050565b60006020820190508181036000830152613c718161391f565b9050919050565b60006020820190508181036000830152613c9181613942565b9050919050565b60006020820190508181036000830152613cb181613965565b9050919050565b60006020820190508181036000830152613cd181613988565b9050919050565b60006020820190508181036000830152613cf1816139ab565b9050919050565b60006020820190508181036000830152613d11816139ce565b9050919050565b60006020820190508181036000830152613d31816139f1565b9050919050565b6000602082019050613d4d6000830184613a14565b92915050565b6000613d5d613d6e565b9050613d698282613f19565b919050565b6000604051905090565b600067ffffffffffffffff821115613d9357613d92613ff1565b5b602082029050602081019050919050565b600067ffffffffffffffff821115613dbf57613dbe613ff1565b5b602082029050602081019050919050565b600081519050919050565b600082825260208201905092915050565b6000613df782613e80565b9150613e0283613e80565b9250827fffffffffffffffffffffffffffffffffffffffffffffffffffffffffffffffff03821115613e3757613e36613f93565b5b828201905092915050565b6000613e4d82613e60565b9050919050565b60008115159050919050565b600073ffffffffffffffffffffffffffffffffffffffff82169050919050565b6000819050919050565b60005b83811015613ea8578082015181840152602081019050613e8d565b83811115613eb7576000848401525b50505050565b6000613ec882613e80565b91506000821415613edc57613edb613f93565b5b600182039050919050565b60006002820490506001821680613eff57607f821691505b60208210811415613f1357613f12613fc2565b5b50919050565b613f2282614020565b810181811067ffffffffffffffff82111715613f4157613f40613ff1565b5b80604052505050565b6000613f5582613e80565b91507fffffffffffffffffffffffffffffffffffffffffffffffffffffffffffffffff821415613f8857613f87613f93565b5b600182019050919050565b7f4e487b7100000000000000000000000000000000000000000000000000000000600052601160045260246000fd5b7f4e487b7100000000000000000000000000000000000000000000000000000000600052602260045260246000fd5b7f4e487b7100000000000000000000000000000000000000000000000000000000600052604160045260246000fd5b6000601f19601f8301169050919050565b7f5370616365206d757374206265206c6f6e6720746f20656d707479206164647260008201527f6573730000000000000000000000000000000000000000000000000000000000602082015250565b7f596f7520617265206e6f74207468652062696464657200000000000000000000600082015250565b7f56616c7565206d7573742062652067726561746572207468616e20746865206860008201527f6967686573742062696400000000000000000000000000000000000000000000602082015250565b7f4d75737420626520646966666572656e74206164647265737300000000000000600082015250565b7f4f776e61626c653a206e6577206f776e657220697320746865207a65726f206160008201527f6464726573730000000000000000000000000000000000000000000000000000602082015250565b7f4f776e65722063616e206e6f7420626964000000000000000000000000000000600082015250565b7f4e6f207370616365206c65667400000000000000000000000000000000000000600082015250565b7f4269642076616c7565206d757374206e6f742062652030000000000000000000600082015250565b7f496e76616c696420737061636520696e64657800000000000000000000000000600082015250565b7f53656c6c6572206e6f206c6f6e676572206f776e6572206f6620737061636500600082015250565b7f4f776e61626c653a2063616c6c6572206973206e6f7420746865206f776e6572600082015250565b7f4269642076616c7565206d7573742062652067726561746572206f722065717560008201527f616c206d696e2070726963650000000000000000000000000000000000000000602082015250565b7f56616c75652063616e206e6f7420626520300000000000000000000000000000600082015250565b7f5370616365206d7573742068617665206f776e65720000000000000000000000600082015250565b7f596f75206d75737420627579206d6f7265207468616e206d696e2076616c7565600082015250565b7f546869732073706163652063616e206e6f7420626520736f6c6420746f20796f60008201527f7500000000000000000000000000000000000000000000000000000000000000602082015250565b7f596f7520617265206e6f74206f776e6572000000000000000000000000000000600082015250565b7f5370616365206973206e6f7420666f722073616c650000000000000000000000600082015250565b6143da81613e42565b81146143e557600080fd5b50565b6143f181613e80565b81146143fc57600080fd5b5056fea26469706673582212200c582b8e8eab06ce661735fa31b6d594d2775ddfebaaca79016b3b05ab4019ac64736f6c63430008040033",
  "linkReferences": {},
  "deployedLinkReferences": {}
}